{
	"contracts/Marketplace.sol": {
		"Marketplace": {
			"abi": [
				{
					"anonymous": false,
					"inputs": [
						{
							"indexed": true,
							"internalType": "uint256",
							"name": "id",
							"type": "uint256"
						},
						{
							"indexed": false,
							"internalType": "string",
							"name": "title",
							"type": "string"
						},
						{
							"indexed": false,
							"internalType": "string",
							"name": "description",
							"type": "string"
						},
						{
							"indexed": false,
							"internalType": "uint256",
							"name": "price",
							"type": "uint256"
						},
						{
							"indexed": true,
							"internalType": "address",
							"name": "seller",
							"type": "address"
						}
					],
					"name": "ItemListed",
					"type": "event"
				},
				{
					"anonymous": false,
					"inputs": [
						{
							"indexed": true,
							"internalType": "uint256",
							"name": "id",
							"type": "uint256"
						},
						{
							"indexed": false,
							"internalType": "string",
							"name": "title",
							"type": "string"
						},
						{
							"indexed": false,
							"internalType": "uint256",
							"name": "price",
							"type": "uint256"
						},
						{
							"indexed": true,
							"internalType": "address",
							"name": "seller",
							"type": "address"
						},
						{
							"indexed": true,
							"internalType": "address",
							"name": "buyer",
							"type": "address"
						}
					],
					"name": "ItemPurchased",
					"type": "event"
				},
				{
					"inputs": [
						{
							"internalType": "uint256",
							"name": "_id",
							"type": "uint256"
						}
					],
					"name": "buyItem",
					"outputs": [],
					"stateMutability": "payable",
					"type": "function"
				},
				{
					"inputs": [],
					"name": "getAllItems",
					"outputs": [
						{
							"components": [
								{
									"internalType": "uint256",
									"name": "id",
									"type": "uint256"
								},
								{
									"internalType": "string",
									"name": "title",
									"type": "string"
								},
								{
									"internalType": "string",
									"name": "description",
									"type": "string"
								},
								{
									"internalType": "uint256",
									"name": "price",
									"type": "uint256"
								},
								{
									"internalType": "address payable",
									"name": "seller",
									"type": "address"
								},
								{
									"internalType": "address",
									"name": "buyer",
									"type": "address"
								},
								{
									"internalType": "bool",
									"name": "isSold",
									"type": "bool"
								}
							],
							"internalType": "struct Marketplace.Item[]",
							"name": "",
							"type": "tuple[]"
						}
					],
					"stateMutability": "view",
					"type": "function"
				},
				{
					"inputs": [],
					"name": "itemCount",
					"outputs": [
						{
							"internalType": "uint256",
							"name": "",
							"type": "uint256"
						}
					],
					"stateMutability": "view",
					"type": "function"
				},
				{
					"inputs": [
						{
							"internalType": "uint256",
							"name": "",
							"type": "uint256"
						}
					],
					"name": "items",
					"outputs": [
						{
							"internalType": "uint256",
							"name": "id",
							"type": "uint256"
						},
						{
							"internalType": "string",
							"name": "title",
							"type": "string"
						},
						{
							"internalType": "string",
							"name": "description",
							"type": "string"
						},
						{
							"internalType": "uint256",
							"name": "price",
							"type": "uint256"
						},
						{
							"internalType": "address payable",
							"name": "seller",
							"type": "address"
						},
						{
							"internalType": "address",
							"name": "buyer",
							"type": "address"
						},
						{
							"internalType": "bool",
							"name": "isSold",
							"type": "bool"
						}
					],
					"stateMutability": "view",
					"type": "function"
				},
				{
					"inputs": [
						{
							"internalType": "string",
							"name": "_title",
							"type": "string"
						},
						{
							"internalType": "string",
							"name": "_description",
							"type": "string"
						},
						{
							"internalType": "uint256",
							"name": "_priceInWei",
							"type": "uint256"
						}
					],
					"name": "listItem",
					"outputs": [],
					"stateMutability": "nonpayable",
					"type": "function"
				}
			],
			"devdoc": {
				"kind": "dev",
				"methods": {},
				"version": 1
			},
			"evm": {
				"assembly": "    /* \"contracts/Marketplace.sol\":57:1987  contract Marketplace {... */\n  mstore(0x40, 0x80)\n  callvalue\n  dup1\n  iszero\n  tag_1\n  jumpi\n  0x00\n  dup1\n  revert\ntag_1:\n  pop\n  dataSize(sub_0)\n  dup1\n  dataOffset(sub_0)\n  0x00\n  codecopy\n  0x00\n  return\nstop\n\nsub_0: assembly {\n        /* \"contracts/Marketplace.sol\":57:1987  contract Marketplace {... */\n      mstore(0x40, 0x80)\n      jumpi(tag_1, lt(calldatasize, 0x04))\n      shr(0xe0, calldataload(0x00))\n      dup1\n      0x0562021c\n      eq\n      tag_2\n      jumpi\n      dup1\n      0x4ba1d6aa\n      eq\n      tag_3\n      jumpi\n      dup1\n      0x6bfb0d01\n      eq\n      tag_4\n      jumpi\n      dup1\n      0xbfb231d2\n      eq\n      tag_5\n      jumpi\n      dup1\n      0xe7fb74c7\n      eq\n      tag_6\n      jumpi\n    tag_1:\n      0x00\n      dup1\n      revert\n        /* \"contracts/Marketplace.sol\":764:1152  function listItem(string memory _title, string memory _description, uint256 _priceInWei) public {... */\n    tag_2:\n      callvalue\n      dup1\n      iszero\n      tag_7\n      jumpi\n      0x00\n      dup1\n      revert\n    tag_7:\n      pop\n      tag_8\n      0x04\n      dup1\n      calldatasize\n      sub\n      dup2\n      add\n      swap1\n      tag_9\n      swap2\n      swap1\n      tag_10\n      jump\t// in\n    tag_9:\n      tag_11\n      jump\t// in\n    tag_8:\n      stop\n        /* \"contracts/Marketplace.sol\":1737:1985  function getAllItems() public view returns (Item[] memory) {... */\n    tag_3:\n      callvalue\n      dup1\n      iszero\n      tag_12\n      jumpi\n      0x00\n      dup1\n      revert\n    tag_12:\n      pop\n      tag_13\n      tag_14\n      jump\t// in\n    tag_13:\n      mload(0x40)\n      tag_15\n      swap2\n      swap1\n      tag_16\n      jump\t// in\n    tag_15:\n      mload(0x40)\n      dup1\n      swap2\n      sub\n      swap1\n      return\n        /* \"contracts/Marketplace.sol\":360:384  uint256 public itemCount */\n    tag_4:\n      callvalue\n      dup1\n      iszero\n      tag_17\n      jumpi\n      0x00\n      dup1\n      revert\n    tag_17:\n      pop\n      tag_18\n      tag_19\n      jump\t// in\n    tag_18:\n      mload(0x40)\n      tag_20\n      swap2\n      swap1\n      tag_21\n      jump\t// in\n    tag_20:\n      mload(0x40)\n      dup1\n      swap2\n      sub\n      swap1\n      return\n        /* \"contracts/Marketplace.sol\":390:427  mapping(uint256 => Item) public items */\n    tag_5:\n      callvalue\n      dup1\n      iszero\n      tag_22\n      jumpi\n      0x00\n      dup1\n      revert\n    tag_22:\n      pop\n      tag_23\n      0x04\n      dup1\n      calldatasize\n      sub\n      dup2\n      add\n      swap1\n      tag_24\n      swap2\n      swap1\n      tag_25\n      jump\t// in\n    tag_24:\n      tag_26\n      jump\t// in\n    tag_23:\n      mload(0x40)\n      tag_27\n      swap8\n      swap7\n      swap6\n      swap5\n      swap4\n      swap3\n      swap2\n      swap1\n      tag_28\n      jump\t// in\n    tag_27:\n      mload(0x40)\n      dup1\n      swap2\n      sub\n      swap1\n      return\n        /* \"contracts/Marketplace.sol\":1158:1730  function buyItem(uint256 _id) public payable {... */\n    tag_6:\n      tag_29\n      0x04\n      dup1\n      calldatasize\n      sub\n      dup2\n      add\n      swap1\n      tag_30\n      swap2\n      swap1\n      tag_25\n      jump\t// in\n    tag_30:\n      tag_31\n      jump\t// in\n    tag_29:\n      stop\n        /* \"contracts/Marketplace.sol\":764:1152  function listItem(string memory _title, string memory _description, uint256 _priceInWei) public {... */\n    tag_11:\n        /* \"contracts/Marketplace.sol\":892:893  0 */\n      0x00\n        /* \"contracts/Marketplace.sol\":878:889  _priceInWei */\n      dup2\n        /* \"contracts/Marketplace.sol\":878:893  _priceInWei > 0 */\n      gt\n        /* \"contracts/Marketplace.sol\":870:920  require(_priceInWei > 0, \"Price must be positive\") */\n      tag_33\n      jumpi\n      mload(0x40)\n      0x08c379a000000000000000000000000000000000000000000000000000000000\n      dup2\n      mstore\n      0x04\n      add\n      tag_34\n      swap1\n      tag_35\n      jump\t// in\n    tag_34:\n      mload(0x40)\n      dup1\n      swap2\n      sub\n      swap1\n      revert\n    tag_33:\n        /* \"contracts/Marketplace.sol\":931:940  itemCount */\n      0x00\n      dup1\n        /* \"contracts/Marketplace.sol\":931:942  itemCount++ */\n      dup2\n      sload\n      dup1\n      swap3\n      swap2\n      swap1\n      tag_36\n      swap1\n      tag_37\n      jump\t// in\n    tag_36:\n      swap2\n      swap1\n      pop\n      sstore\n      pop\n        /* \"contracts/Marketplace.sol\":971:1061  Item(itemCount, _title, _description, _priceInWei, payable(msg.sender), address(0), false) */\n      mload(0x40)\n      dup1\n      0xe0\n      add\n      0x40\n      mstore\n      dup1\n        /* \"contracts/Marketplace.sol\":976:985  itemCount */\n      sload(0x00)\n        /* \"contracts/Marketplace.sol\":971:1061  Item(itemCount, _title, _description, _priceInWei, payable(msg.sender), address(0), false) */\n      dup2\n      mstore\n      0x20\n      add\n        /* \"contracts/Marketplace.sol\":987:993  _title */\n      dup5\n        /* \"contracts/Marketplace.sol\":971:1061  Item(itemCount, _title, _description, _priceInWei, payable(msg.sender), address(0), false) */\n      dup2\n      mstore\n      0x20\n      add\n        /* \"contracts/Marketplace.sol\":995:1007  _description */\n      dup4\n        /* \"contracts/Marketplace.sol\":971:1061  Item(itemCount, _title, _description, _priceInWei, payable(msg.sender), address(0), false) */\n      dup2\n      mstore\n      0x20\n      add\n        /* \"contracts/Marketplace.sol\":1009:1020  _priceInWei */\n      dup3\n        /* \"contracts/Marketplace.sol\":971:1061  Item(itemCount, _title, _description, _priceInWei, payable(msg.sender), address(0), false) */\n      dup2\n      mstore\n      0x20\n      add\n        /* \"contracts/Marketplace.sol\":1030:1040  msg.sender */\n      caller\n        /* \"contracts/Marketplace.sol\":971:1061  Item(itemCount, _title, _description, _priceInWei, payable(msg.sender), address(0), false) */\n      0xffffffffffffffffffffffffffffffffffffffff\n      and\n      dup2\n      mstore\n      0x20\n      add\n        /* \"contracts/Marketplace.sol\":1051:1052  0 */\n      0x00\n        /* \"contracts/Marketplace.sol\":971:1061  Item(itemCount, _title, _description, _priceInWei, payable(msg.sender), address(0), false) */\n      0xffffffffffffffffffffffffffffffffffffffff\n      and\n      dup2\n      mstore\n      0x20\n      add\n        /* \"contracts/Marketplace.sol\":1055:1060  false */\n      0x00\n        /* \"contracts/Marketplace.sol\":971:1061  Item(itemCount, _title, _description, _priceInWei, payable(msg.sender), address(0), false) */\n      iszero\n      iszero\n      dup2\n      mstore\n      pop\n        /* \"contracts/Marketplace.sol\":952:957  items */\n      0x01\n        /* \"contracts/Marketplace.sol\":952:968  items[itemCount] */\n      0x00\n        /* \"contracts/Marketplace.sol\":958:967  itemCount */\n      dup1\n      sload\n        /* \"contracts/Marketplace.sol\":952:968  items[itemCount] */\n      dup2\n      mstore\n      0x20\n      add\n      swap1\n      dup2\n      mstore\n      0x20\n      add\n      0x00\n      keccak256\n        /* \"contracts/Marketplace.sol\":952:1061  items[itemCount] = Item(itemCount, _title, _description, _priceInWei, payable(msg.sender), address(0), false) */\n      0x00\n      dup3\n      add\n      mload\n      dup2\n      0x00\n      add\n      sstore\n      0x20\n      dup3\n      add\n      mload\n      dup2\n      0x01\n      add\n      swap1\n      dup2\n      tag_38\n      swap2\n      swap1\n      tag_39\n      jump\t// in\n    tag_38:\n      pop\n      0x40\n      dup3\n      add\n      mload\n      dup2\n      0x02\n      add\n      swap1\n      dup2\n      tag_40\n      swap2\n      swap1\n      tag_39\n      jump\t// in\n    tag_40:\n      pop\n      0x60\n      dup3\n      add\n      mload\n      dup2\n      0x03\n      add\n      sstore\n      0x80\n      dup3\n      add\n      mload\n      dup2\n      0x04\n      add\n      exp(0x0100, 0x00)\n      dup2\n      sload\n      dup2\n      0xffffffffffffffffffffffffffffffffffffffff\n      mul\n      not\n      and\n      swap1\n      dup4\n      0xffffffffffffffffffffffffffffffffffffffff\n      and\n      mul\n      or\n      swap1\n      sstore\n      pop\n      0xa0\n      dup3\n      add\n      mload\n      dup2\n      0x05\n      add\n      exp(0x0100, 0x00)\n      dup2\n      sload\n      dup2\n      0xffffffffffffffffffffffffffffffffffffffff\n      mul\n      not\n      and\n      swap1\n      dup4\n      0xffffffffffffffffffffffffffffffffffffffff\n      and\n      mul\n      or\n      swap1\n      sstore\n      pop\n      0xc0\n      dup3\n      add\n      mload\n      dup2\n      0x05\n      add\n      exp(0x0100, 0x14)\n      dup2\n      sload\n      dup2\n      0xff\n      mul\n      not\n      and\n      swap1\n      dup4\n      iszero\n      iszero\n      mul\n      or\n      swap1\n      sstore\n      pop\n      swap1\n      pop\n      pop\n        /* \"contracts/Marketplace.sol\":1134:1144  msg.sender */\n      caller\n        /* \"contracts/Marketplace.sol\":1077:1145  ItemListed(itemCount, _title, _description, _priceInWei, msg.sender) */\n      0xffffffffffffffffffffffffffffffffffffffff\n      and\n        /* \"contracts/Marketplace.sol\":1088:1097  itemCount */\n      sload(0x00)\n        /* \"contracts/Marketplace.sol\":1077:1145  ItemListed(itemCount, _title, _description, _priceInWei, msg.sender) */\n      0x3ec1beb288b62a2e890402fe7f1b8ae6b2b57519029f47be4804a27fae2082c5\n        /* \"contracts/Marketplace.sol\":1099:1105  _title */\n      dup6\n        /* \"contracts/Marketplace.sol\":1107:1119  _description */\n      dup6\n        /* \"contracts/Marketplace.sol\":1121:1132  _priceInWei */\n      dup6\n        /* \"contracts/Marketplace.sol\":1077:1145  ItemListed(itemCount, _title, _description, _priceInWei, msg.sender) */\n      mload(0x40)\n      tag_41\n      swap4\n      swap3\n      swap2\n      swap1\n      tag_42\n      jump\t// in\n    tag_41:\n      mload(0x40)\n      dup1\n      swap2\n      sub\n      swap1\n      log3\n        /* \"contracts/Marketplace.sol\":764:1152  function listItem(string memory _title, string memory _description, uint256 _priceInWei) public {... */\n      pop\n      pop\n      pop\n      jump\t// out\n        /* \"contracts/Marketplace.sol\":1737:1985  function getAllItems() public view returns (Item[] memory) {... */\n    tag_14:\n        /* \"contracts/Marketplace.sol\":1781:1794  Item[] memory */\n      0x60\n        /* \"contracts/Marketplace.sol\":1806:1828  Item[] memory allItems */\n      0x00\n        /* \"contracts/Marketplace.sol\":1842:1851  itemCount */\n      dup1\n      sload\n        /* \"contracts/Marketplace.sol\":1831:1852  new Item[](itemCount) */\n      0xffffffffffffffff\n      dup2\n      gt\n      iszero\n      tag_44\n      jumpi\n      tag_45\n      tag_46\n      jump\t// in\n    tag_45:\n    tag_44:\n      mload(0x40)\n      swap1\n      dup1\n      dup3\n      mstore\n      dup1\n      0x20\n      mul\n      0x20\n      add\n      dup3\n      add\n      0x40\n      mstore\n      dup1\n      iszero\n      tag_47\n      jumpi\n      dup2\n      0x20\n      add\n    tag_48:\n      tag_49\n      tag_50\n      jump\t// in\n    tag_49:\n      dup2\n      mstore\n      0x20\n      add\n      swap1\n      0x01\n      swap1\n      sub\n      swap1\n      dup2\n      tag_48\n      jumpi\n      swap1\n      pop\n    tag_47:\n      pop\n        /* \"contracts/Marketplace.sol\":1806:1852  Item[] memory allItems = new Item[](itemCount) */\n      swap1\n      pop\n        /* \"contracts/Marketplace.sol\":1867:1876  uint256 i */\n      0x00\n        /* \"contracts/Marketplace.sol\":1879:1880  1 */\n      0x01\n        /* \"contracts/Marketplace.sol\":1867:1880  uint256 i = 1 */\n      swap1\n      pop\n        /* \"contracts/Marketplace.sol\":1862:1954  for (uint256 i = 1; i <= itemCount; i++) {... */\n    tag_51:\n        /* \"contracts/Marketplace.sol\":1887:1896  itemCount */\n      sload(0x00)\n        /* \"contracts/Marketplace.sol\":1882:1883  i */\n      dup2\n        /* \"contracts/Marketplace.sol\":1882:1896  i <= itemCount */\n      gt\n        /* \"contracts/Marketplace.sol\":1862:1954  for (uint256 i = 1; i <= itemCount; i++) {... */\n      tag_52\n      jumpi\n        /* \"contracts/Marketplace.sol\":1935:1940  items */\n      0x01\n        /* \"contracts/Marketplace.sol\":1935:1943  items[i] */\n      0x00\n        /* \"contracts/Marketplace.sol\":1941:1942  i */\n      dup3\n        /* \"contracts/Marketplace.sol\":1935:1943  items[i] */\n      dup2\n      mstore\n      0x20\n      add\n      swap1\n      dup2\n      mstore\n      0x20\n      add\n      0x00\n      keccak256\n        /* \"contracts/Marketplace.sol\":1917:1943  allItems[i - 1] = items[i] */\n      mload(0x40)\n      dup1\n      0xe0\n      add\n      0x40\n      mstore\n      swap1\n      dup2\n      0x00\n      dup3\n      add\n      sload\n      dup2\n      mstore\n      0x20\n      add\n      0x01\n      dup3\n      add\n      dup1\n      sload\n      tag_54\n      swap1\n      tag_55\n      jump\t// in\n    tag_54:\n      dup1\n      0x1f\n      add\n      0x20\n      dup1\n      swap2\n      div\n      mul\n      0x20\n      add\n      mload(0x40)\n      swap1\n      dup2\n      add\n      0x40\n      mstore\n      dup1\n      swap3\n      swap2\n      swap1\n      dup2\n      dup2\n      mstore\n      0x20\n      add\n      dup3\n      dup1\n      sload\n      tag_56\n      swap1\n      tag_55\n      jump\t// in\n    tag_56:\n      dup1\n      iszero\n      tag_57\n      jumpi\n      dup1\n      0x1f\n      lt\n      tag_58\n      jumpi\n      0x0100\n      dup1\n      dup4\n      sload\n      div\n      mul\n      dup4\n      mstore\n      swap2\n      0x20\n      add\n      swap2\n      jump(tag_57)\n    tag_58:\n      dup3\n      add\n      swap2\n      swap1\n      0x00\n      mstore\n      keccak256(0x00, 0x20)\n      swap1\n    tag_59:\n      dup2\n      sload\n      dup2\n      mstore\n      swap1\n      0x01\n      add\n      swap1\n      0x20\n      add\n      dup1\n      dup4\n      gt\n      tag_59\n      jumpi\n      dup3\n      swap1\n      sub\n      0x1f\n      and\n      dup3\n      add\n      swap2\n    tag_57:\n      pop\n      pop\n      pop\n      pop\n      pop\n      dup2\n      mstore\n      0x20\n      add\n      0x02\n      dup3\n      add\n      dup1\n      sload\n      tag_60\n      swap1\n      tag_55\n      jump\t// in\n    tag_60:\n      dup1\n      0x1f\n      add\n      0x20\n      dup1\n      swap2\n      div\n      mul\n      0x20\n      add\n      mload(0x40)\n      swap1\n      dup2\n      add\n      0x40\n      mstore\n      dup1\n      swap3\n      swap2\n      swap1\n      dup2\n      dup2\n      mstore\n      0x20\n      add\n      dup3\n      dup1\n      sload\n      tag_61\n      swap1\n      tag_55\n      jump\t// in\n    tag_61:\n      dup1\n      iszero\n      tag_62\n      jumpi\n      dup1\n      0x1f\n      lt\n      tag_63\n      jumpi\n      0x0100\n      dup1\n      dup4\n      sload\n      div\n      mul\n      dup4\n      mstore\n      swap2\n      0x20\n      add\n      swap2\n      jump(tag_62)\n    tag_63:\n      dup3\n      add\n      swap2\n      swap1\n      0x00\n      mstore\n      keccak256(0x00, 0x20)\n      swap1\n    tag_64:\n      dup2\n      sload\n      dup2\n      mstore\n      swap1\n      0x01\n      add\n      swap1\n      0x20\n      add\n      dup1\n      dup4\n      gt\n      tag_64\n      jumpi\n      dup3\n      swap1\n      sub\n      0x1f\n      and\n      dup3\n      add\n      swap2\n    tag_62:\n      pop\n      pop\n      pop\n      pop\n      pop\n      dup2\n      mstore\n      0x20\n      add\n      0x03\n      dup3\n      add\n      sload\n      dup2\n      mstore\n      0x20\n      add\n      0x04\n      dup3\n      add\n      0x00\n      swap1\n      sload\n      swap1\n      0x0100\n      exp\n      swap1\n      div\n      0xffffffffffffffffffffffffffffffffffffffff\n      and\n      0xffffffffffffffffffffffffffffffffffffffff\n      and\n      0xffffffffffffffffffffffffffffffffffffffff\n      and\n      dup2\n      mstore\n      0x20\n      add\n      0x05\n      dup3\n      add\n      0x00\n      swap1\n      sload\n      swap1\n      0x0100\n      exp\n      swap1\n      div\n      0xffffffffffffffffffffffffffffffffffffffff\n      and\n      0xffffffffffffffffffffffffffffffffffffffff\n      and\n      0xffffffffffffffffffffffffffffffffffffffff\n      and\n      dup2\n      mstore\n      0x20\n      add\n      0x05\n      dup3\n      add\n      0x14\n      swap1\n      sload\n      swap1\n      0x0100\n      exp\n      swap1\n      div\n      0xff\n      and\n      iszero\n      iszero\n      iszero\n      iszero\n      dup2\n      mstore\n      pop\n      pop\n        /* \"contracts/Marketplace.sol\":1917:1925  allItems */\n      dup3\n        /* \"contracts/Marketplace.sol\":1930:1931  1 */\n      0x01\n        /* \"contracts/Marketplace.sol\":1926:1927  i */\n      dup4\n        /* \"contracts/Marketplace.sol\":1926:1931  i - 1 */\n      tag_65\n      swap2\n      swap1\n      tag_66\n      jump\t// in\n    tag_65:\n        /* \"contracts/Marketplace.sol\":1917:1932  allItems[i - 1] */\n      dup2\n      mload\n      dup2\n      lt\n      tag_67\n      jumpi\n      tag_68\n      tag_69\n      jump\t// in\n    tag_68:\n    tag_67:\n      0x20\n      mul\n      0x20\n      add\n      add\n        /* \"contracts/Marketplace.sol\":1917:1943  allItems[i - 1] = items[i] */\n      dup2\n      swap1\n      mstore\n      pop\n        /* \"contracts/Marketplace.sol\":1898:1901  i++ */\n      dup1\n      dup1\n      tag_70\n      swap1\n      tag_37\n      jump\t// in\n    tag_70:\n      swap2\n      pop\n      pop\n        /* \"contracts/Marketplace.sol\":1862:1954  for (uint256 i = 1; i <= itemCount; i++) {... */\n      jump(tag_51)\n    tag_52:\n      pop\n        /* \"contracts/Marketplace.sol\":1970:1978  allItems */\n      dup1\n        /* \"contracts/Marketplace.sol\":1963:1978  return allItems */\n      swap2\n      pop\n      pop\n        /* \"contracts/Marketplace.sol\":1737:1985  function getAllItems() public view returns (Item[] memory) {... */\n      swap1\n      jump\t// out\n        /* \"contracts/Marketplace.sol\":360:384  uint256 public itemCount */\n    tag_19:\n      sload(0x00)\n      dup2\n      jump\t// out\n        /* \"contracts/Marketplace.sol\":390:427  mapping(uint256 => Item) public items */\n    tag_26:\n      mstore(0x20, 0x01)\n      dup1\n      0x00\n      mstore\n      keccak256(0x00, 0x40)\n      0x00\n      swap2\n      pop\n      swap1\n      pop\n      dup1\n      0x00\n      add\n      sload\n      swap1\n      dup1\n      0x01\n      add\n      dup1\n      sload\n      tag_71\n      swap1\n      tag_55\n      jump\t// in\n    tag_71:\n      dup1\n      0x1f\n      add\n      0x20\n      dup1\n      swap2\n      div\n      mul\n      0x20\n      add\n      mload(0x40)\n      swap1\n      dup2\n      add\n      0x40\n      mstore\n      dup1\n      swap3\n      swap2\n      swap1\n      dup2\n      dup2\n      mstore\n      0x20\n      add\n      dup3\n      dup1\n      sload\n      tag_72\n      swap1\n      tag_55\n      jump\t// in\n    tag_72:\n      dup1\n      iszero\n      tag_73\n      jumpi\n      dup1\n      0x1f\n      lt\n      tag_74\n      jumpi\n      0x0100\n      dup1\n      dup4\n      sload\n      div\n      mul\n      dup4\n      mstore\n      swap2\n      0x20\n      add\n      swap2\n      jump(tag_73)\n    tag_74:\n      dup3\n      add\n      swap2\n      swap1\n      0x00\n      mstore\n      keccak256(0x00, 0x20)\n      swap1\n    tag_75:\n      dup2\n      sload\n      dup2\n      mstore\n      swap1\n      0x01\n      add\n      swap1\n      0x20\n      add\n      dup1\n      dup4\n      gt\n      tag_75\n      jumpi\n      dup3\n      swap1\n      sub\n      0x1f\n      and\n      dup3\n      add\n      swap2\n    tag_73:\n      pop\n      pop\n      pop\n      pop\n      pop\n      swap1\n      dup1\n      0x02\n      add\n      dup1\n      sload\n      tag_76\n      swap1\n      tag_55\n      jump\t// in\n    tag_76:\n      dup1\n      0x1f\n      add\n      0x20\n      dup1\n      swap2\n      div\n      mul\n      0x20\n      add\n      mload(0x40)\n      swap1\n      dup2\n      add\n      0x40\n      mstore\n      dup1\n      swap3\n      swap2\n      swap1\n      dup2\n      dup2\n      mstore\n      0x20\n      add\n      dup3\n      dup1\n      sload\n      tag_77\n      swap1\n      tag_55\n      jump\t// in\n    tag_77:\n      dup1\n      iszero\n      tag_78\n      jumpi\n      dup1\n      0x1f\n      lt\n      tag_79\n      jumpi\n      0x0100\n      dup1\n      dup4\n      sload\n      div\n      mul\n      dup4\n      mstore\n      swap2\n      0x20\n      add\n      swap2\n      jump(tag_78)\n    tag_79:\n      dup3\n      add\n      swap2\n      swap1\n      0x00\n      mstore\n      keccak256(0x00, 0x20)\n      swap1\n    tag_80:\n      dup2\n      sload\n      dup2\n      mstore\n      swap1\n      0x01\n      add\n      swap1\n      0x20\n      add\n      dup1\n      dup4\n      gt\n      tag_80\n      jumpi\n      dup3\n      swap1\n      sub\n      0x1f\n      and\n      dup3\n      add\n      swap2\n    tag_78:\n      pop\n      pop\n      pop\n      pop\n      pop\n      swap1\n      dup1\n      0x03\n      add\n      sload\n      swap1\n      dup1\n      0x04\n      add\n      0x00\n      swap1\n      sload\n      swap1\n      0x0100\n      exp\n      swap1\n      div\n      0xffffffffffffffffffffffffffffffffffffffff\n      and\n      swap1\n      dup1\n      0x05\n      add\n      0x00\n      swap1\n      sload\n      swap1\n      0x0100\n      exp\n      swap1\n      div\n      0xffffffffffffffffffffffffffffffffffffffff\n      and\n      swap1\n      dup1\n      0x05\n      add\n      0x14\n      swap1\n      sload\n      swap1\n      0x0100\n      exp\n      swap1\n      div\n      0xff\n      and\n      swap1\n      pop\n      dup8\n      jump\t// out\n        /* \"contracts/Marketplace.sol\":1158:1730  function buyItem(uint256 _id) public payable {... */\n    tag_31:\n        /* \"contracts/Marketplace.sol\":1227:1228  0 */\n      0x00\n        /* \"contracts/Marketplace.sol\":1221:1224  _id */\n      dup2\n        /* \"contracts/Marketplace.sol\":1221:1228  _id > 0 */\n      gt\n        /* \"contracts/Marketplace.sol\":1221:1248  _id > 0 && _id <= itemCount */\n      dup1\n      iszero\n      tag_82\n      jumpi\n      pop\n        /* \"contracts/Marketplace.sol\":1239:1248  itemCount */\n      sload(0x00)\n        /* \"contracts/Marketplace.sol\":1232:1235  _id */\n      dup2\n        /* \"contracts/Marketplace.sol\":1232:1248  _id <= itemCount */\n      gt\n      iszero\n        /* \"contracts/Marketplace.sol\":1221:1248  _id > 0 && _id <= itemCount */\n    tag_82:\n        /* \"contracts/Marketplace.sol\":1213:1275  require(_id > 0 && _id <= itemCount, \"Item ID does not exist\") */\n      tag_83\n      jumpi\n      mload(0x40)\n      0x08c379a000000000000000000000000000000000000000000000000000000000\n      dup2\n      mstore\n      0x04\n      add\n      tag_84\n      swap1\n      tag_85\n      jump\t// in\n    tag_84:\n      mload(0x40)\n      dup1\n      swap2\n      sub\n      swap1\n      revert\n    tag_83:\n        /* \"contracts/Marketplace.sol\":1285:1302  Item storage item */\n      0x00\n        /* \"contracts/Marketplace.sol\":1305:1310  items */\n      0x01\n        /* \"contracts/Marketplace.sol\":1305:1315  items[_id] */\n      0x00\n        /* \"contracts/Marketplace.sol\":1311:1314  _id */\n      dup4\n        /* \"contracts/Marketplace.sol\":1305:1315  items[_id] */\n      dup2\n      mstore\n      0x20\n      add\n      swap1\n      dup2\n      mstore\n      0x20\n      add\n      0x00\n      keccak256\n        /* \"contracts/Marketplace.sol\":1285:1315  Item storage item = items[_id] */\n      swap1\n      pop\n        /* \"contracts/Marketplace.sol\":1347:1351  item */\n      dup1\n        /* \"contracts/Marketplace.sol\":1347:1358  item.seller */\n      0x04\n      add\n      0x00\n      swap1\n      sload\n      swap1\n      0x0100\n      exp\n      swap1\n      div\n      0xffffffffffffffffffffffffffffffffffffffff\n      and\n        /* \"contracts/Marketplace.sol\":1333:1358  msg.sender != item.seller */\n      0xffffffffffffffffffffffffffffffffffffffff\n      and\n        /* \"contracts/Marketplace.sol\":1333:1343  msg.sender */\n      caller\n        /* \"contracts/Marketplace.sol\":1333:1358  msg.sender != item.seller */\n      0xffffffffffffffffffffffffffffffffffffffff\n      and\n      sub\n        /* \"contracts/Marketplace.sol\":1325:1385  require(msg.sender != item.seller, \"Seller cannot be buyer\") */\n      tag_86\n      jumpi\n      mload(0x40)\n      0x08c379a000000000000000000000000000000000000000000000000000000000\n      dup2\n      mstore\n      0x04\n      add\n      tag_87\n      swap1\n      tag_88\n      jump\t// in\n    tag_87:\n      mload(0x40)\n      dup1\n      swap2\n      sub\n      swap1\n      revert\n    tag_86:\n        /* \"contracts/Marketplace.sol\":1455:1459  item */\n      dup1\n        /* \"contracts/Marketplace.sol\":1455:1465  item.price */\n      0x03\n      add\n      sload\n        /* \"contracts/Marketplace.sol\":1442:1451  msg.value */\n      callvalue\n        /* \"contracts/Marketplace.sol\":1442:1465  msg.value == item.price */\n      eq\n        /* \"contracts/Marketplace.sol\":1434:1485  require(msg.value == item.price, \"Incorrect value\") */\n      tag_89\n      jumpi\n      mload(0x40)\n      0x08c379a000000000000000000000000000000000000000000000000000000000\n      dup2\n      mstore\n      0x04\n      add\n      tag_90\n      swap1\n      tag_91\n      jump\t// in\n    tag_90:\n      mload(0x40)\n      dup1\n      swap2\n      sub\n      swap1\n      revert\n    tag_89:\n        /* \"contracts/Marketplace.sol\":1504:1508  item */\n      dup1\n        /* \"contracts/Marketplace.sol\":1504:1515  item.isSold */\n      0x05\n      add\n      0x14\n      swap1\n      sload\n      swap1\n      0x0100\n      exp\n      swap1\n      div\n      0xff\n      and\n        /* \"contracts/Marketplace.sol\":1503:1515  !item.isSold */\n      iszero\n        /* \"contracts/Marketplace.sol\":1495:1537  require(!item.isSold, \"Item already sold\") */\n      tag_92\n      jumpi\n      mload(0x40)\n      0x08c379a000000000000000000000000000000000000000000000000000000000\n      dup2\n      mstore\n      0x04\n      add\n      tag_93\n      swap1\n      tag_94\n      jump\t// in\n    tag_93:\n      mload(0x40)\n      dup1\n      swap2\n      sub\n      swap1\n      revert\n    tag_92:\n        /* \"contracts/Marketplace.sol\":1548:1552  item */\n      dup1\n        /* \"contracts/Marketplace.sol\":1548:1559  item.seller */\n      0x04\n      add\n      0x00\n      swap1\n      sload\n      swap1\n      0x0100\n      exp\n      swap1\n      div\n      0xffffffffffffffffffffffffffffffffffffffff\n      and\n        /* \"contracts/Marketplace.sol\":1548:1568  item.seller.transfer */\n      0xffffffffffffffffffffffffffffffffffffffff\n      and\n        /* \"contracts/Marketplace.sol\":1548:1579  item.seller.transfer(msg.value) */\n      0x08fc\n        /* \"contracts/Marketplace.sol\":1569:1578  msg.value */\n      callvalue\n        /* \"contracts/Marketplace.sol\":1548:1579  item.seller.transfer(msg.value) */\n      swap1\n      dup2\n      iszero\n      mul\n      swap1\n      mload(0x40)\n      0x00\n      mload(0x40)\n      dup1\n      dup4\n      sub\n      dup2\n      dup6\n      dup9\n      dup9\n      call\n      swap4\n      pop\n      pop\n      pop\n      pop\n      iszero\n      dup1\n      iszero\n      tag_96\n      jumpi\n      returndatasize\n      0x00\n      dup1\n      returndatacopy\n      revert(0x00, returndatasize)\n    tag_96:\n      pop\n        /* \"contracts/Marketplace.sol\":1603:1607  true */\n      0x01\n        /* \"contracts/Marketplace.sol\":1589:1593  item */\n      dup2\n        /* \"contracts/Marketplace.sol\":1589:1600  item.isSold */\n      0x05\n      add\n      0x14\n        /* \"contracts/Marketplace.sol\":1589:1607  item.isSold = true */\n      0x0100\n      exp\n      dup2\n      sload\n      dup2\n      0xff\n      mul\n      not\n      and\n      swap1\n      dup4\n      iszero\n      iszero\n      mul\n      or\n      swap1\n      sstore\n      pop\n        /* \"contracts/Marketplace.sol\":1630:1640  msg.sender */\n      caller\n        /* \"contracts/Marketplace.sol\":1617:1621  item */\n      dup2\n        /* \"contracts/Marketplace.sol\":1617:1627  item.buyer */\n      0x05\n      add\n      0x00\n        /* \"contracts/Marketplace.sol\":1617:1640  item.buyer = msg.sender */\n      0x0100\n      exp\n      dup2\n      sload\n      dup2\n      0xffffffffffffffffffffffffffffffffffffffff\n      mul\n      not\n      and\n      swap1\n      dup4\n      0xffffffffffffffffffffffffffffffffffffffff\n      and\n      mul\n      or\n      swap1\n      sstore\n      pop\n        /* \"contracts/Marketplace.sol\":1712:1722  msg.sender */\n      caller\n        /* \"contracts/Marketplace.sol\":1656:1723  ItemPurchased(_id, item.title, item.price, item.seller, msg.sender) */\n      0xffffffffffffffffffffffffffffffffffffffff\n      and\n        /* \"contracts/Marketplace.sol\":1699:1703  item */\n      dup2\n        /* \"contracts/Marketplace.sol\":1699:1710  item.seller */\n      0x04\n      add\n      0x00\n      swap1\n      sload\n      swap1\n      0x0100\n      exp\n      swap1\n      div\n      0xffffffffffffffffffffffffffffffffffffffff\n      and\n        /* \"contracts/Marketplace.sol\":1656:1723  ItemPurchased(_id, item.title, item.price, item.seller, msg.sender) */\n      0xffffffffffffffffffffffffffffffffffffffff\n      and\n        /* \"contracts/Marketplace.sol\":1670:1673  _id */\n      dup4\n        /* \"contracts/Marketplace.sol\":1656:1723  ItemPurchased(_id, item.title, item.price, item.seller, msg.sender) */\n      0x3b8d931b3031f1db7027edc66b50d3430d54217ac726ca7688c2b779e5a90c1f\n        /* \"contracts/Marketplace.sol\":1675:1679  item */\n      dup5\n        /* \"contracts/Marketplace.sol\":1675:1685  item.title */\n      0x01\n      add\n        /* \"contracts/Marketplace.sol\":1687:1691  item */\n      dup6\n        /* \"contracts/Marketplace.sol\":1687:1697  item.price */\n      0x03\n      add\n      sload\n        /* \"contracts/Marketplace.sol\":1656:1723  ItemPurchased(_id, item.title, item.price, item.seller, msg.sender) */\n      mload(0x40)\n      tag_97\n      swap3\n      swap2\n      swap1\n      tag_98\n      jump\t// in\n    tag_97:\n      mload(0x40)\n      dup1\n      swap2\n      sub\n      swap1\n      log4\n        /* \"contracts/Marketplace.sol\":1203:1730  {... */\n      pop\n        /* \"contracts/Marketplace.sol\":1158:1730  function buyItem(uint256 _id) public payable {... */\n      pop\n      jump\t// out\n    tag_50:\n      mload(0x40)\n      dup1\n      0xe0\n      add\n      0x40\n      mstore\n      dup1\n      0x00\n      dup2\n      mstore\n      0x20\n      add\n      0x60\n      dup2\n      mstore\n      0x20\n      add\n      0x60\n      dup2\n      mstore\n      0x20\n      add\n      0x00\n      dup2\n      mstore\n      0x20\n      add\n      and(0xffffffffffffffffffffffffffffffffffffffff, 0x00)\n      dup2\n      mstore\n      0x20\n      add\n      and(0xffffffffffffffffffffffffffffffffffffffff, 0x00)\n      dup2\n      mstore\n      0x20\n      add\n      iszero(iszero(0x00))\n      dup2\n      mstore\n      pop\n      swap1\n      jump\t// out\n        /* \"#utility.yul\":7:82   */\n    tag_99:\n        /* \"#utility.yul\":40:46   */\n      0x00\n        /* \"#utility.yul\":73:75   */\n      0x40\n        /* \"#utility.yul\":67:76   */\n      mload\n        /* \"#utility.yul\":57:76   */\n      swap1\n      pop\n        /* \"#utility.yul\":7:82   */\n      swap1\n      jump\t// out\n        /* \"#utility.yul\":88:205   */\n    tag_100:\n        /* \"#utility.yul\":197:198   */\n      0x00\n        /* \"#utility.yul\":194:195   */\n      dup1\n        /* \"#utility.yul\":187:199   */\n      revert\n        /* \"#utility.yul\":211:328   */\n    tag_101:\n        /* \"#utility.yul\":320:321   */\n      0x00\n        /* \"#utility.yul\":317:318   */\n      dup1\n        /* \"#utility.yul\":310:322   */\n      revert\n        /* \"#utility.yul\":334:451   */\n    tag_102:\n        /* \"#utility.yul\":443:444   */\n      0x00\n        /* \"#utility.yul\":440:441   */\n      dup1\n        /* \"#utility.yul\":433:445   */\n      revert\n        /* \"#utility.yul\":457:574   */\n    tag_103:\n        /* \"#utility.yul\":566:567   */\n      0x00\n        /* \"#utility.yul\":563:564   */\n      dup1\n        /* \"#utility.yul\":556:568   */\n      revert\n        /* \"#utility.yul\":580:682   */\n    tag_104:\n        /* \"#utility.yul\":621:627   */\n      0x00\n        /* \"#utility.yul\":672:674   */\n      0x1f\n        /* \"#utility.yul\":668:675   */\n      not\n        /* \"#utility.yul\":663:665   */\n      0x1f\n        /* \"#utility.yul\":656:661   */\n      dup4\n        /* \"#utility.yul\":652:666   */\n      add\n        /* \"#utility.yul\":648:676   */\n      and\n        /* \"#utility.yul\":638:676   */\n      swap1\n      pop\n        /* \"#utility.yul\":580:682   */\n      swap2\n      swap1\n      pop\n      jump\t// out\n        /* \"#utility.yul\":688:868   */\n    tag_46:\n        /* \"#utility.yul\":736:813   */\n      0x4e487b7100000000000000000000000000000000000000000000000000000000\n        /* \"#utility.yul\":733:734   */\n      0x00\n        /* \"#utility.yul\":726:814   */\n      mstore\n        /* \"#utility.yul\":833:837   */\n      0x41\n        /* \"#utility.yul\":830:831   */\n      0x04\n        /* \"#utility.yul\":823:838   */\n      mstore\n        /* \"#utility.yul\":857:861   */\n      0x24\n        /* \"#utility.yul\":854:855   */\n      0x00\n        /* \"#utility.yul\":847:862   */\n      revert\n        /* \"#utility.yul\":874:1155   */\n    tag_105:\n        /* \"#utility.yul\":957:984   */\n      tag_176\n        /* \"#utility.yul\":979:983   */\n      dup3\n        /* \"#utility.yul\":957:984   */\n      tag_104\n      jump\t// in\n    tag_176:\n        /* \"#utility.yul\":949:955   */\n      dup2\n        /* \"#utility.yul\":945:985   */\n      add\n        /* \"#utility.yul\":1087:1093   */\n      dup2\n        /* \"#utility.yul\":1075:1085   */\n      dup2\n        /* \"#utility.yul\":1072:1094   */\n      lt\n        /* \"#utility.yul\":1051:1069   */\n      0xffffffffffffffff\n        /* \"#utility.yul\":1039:1049   */\n      dup3\n        /* \"#utility.yul\":1036:1070   */\n      gt\n        /* \"#utility.yul\":1033:1095   */\n      or\n        /* \"#utility.yul\":1030:1118   */\n      iszero\n      tag_177\n      jumpi\n        /* \"#utility.yul\":1098:1116   */\n      tag_178\n      tag_46\n      jump\t// in\n    tag_178:\n        /* \"#utility.yul\":1030:1118   */\n    tag_177:\n        /* \"#utility.yul\":1138:1148   */\n      dup1\n        /* \"#utility.yul\":1134:1136   */\n      0x40\n        /* \"#utility.yul\":1127:1149   */\n      mstore\n        /* \"#utility.yul\":917:1155   */\n      pop\n        /* \"#utility.yul\":874:1155   */\n      pop\n      pop\n      jump\t// out\n        /* \"#utility.yul\":1161:1290   */\n    tag_106:\n        /* \"#utility.yul\":1195:1201   */\n      0x00\n        /* \"#utility.yul\":1222:1242   */\n      tag_180\n      tag_99\n      jump\t// in\n    tag_180:\n        /* \"#utility.yul\":1212:1242   */\n      swap1\n      pop\n        /* \"#utility.yul\":1251:1284   */\n      tag_181\n        /* \"#utility.yul\":1279:1283   */\n      dup3\n        /* \"#utility.yul\":1271:1277   */\n      dup3\n        /* \"#utility.yul\":1251:1284   */\n      tag_105\n      jump\t// in\n    tag_181:\n        /* \"#utility.yul\":1161:1290   */\n      swap2\n      swap1\n      pop\n      jump\t// out\n        /* \"#utility.yul\":1296:1604   */\n    tag_107:\n        /* \"#utility.yul\":1358:1362   */\n      0x00\n        /* \"#utility.yul\":1448:1466   */\n      0xffffffffffffffff\n        /* \"#utility.yul\":1440:1446   */\n      dup3\n        /* \"#utility.yul\":1437:1467   */\n      gt\n        /* \"#utility.yul\":1434:1490   */\n      iszero\n      tag_183\n      jumpi\n        /* \"#utility.yul\":1470:1488   */\n      tag_184\n      tag_46\n      jump\t// in\n    tag_184:\n        /* \"#utility.yul\":1434:1490   */\n    tag_183:\n        /* \"#utility.yul\":1508:1537   */\n      tag_185\n        /* \"#utility.yul\":1530:1536   */\n      dup3\n        /* \"#utility.yul\":1508:1537   */\n      tag_104\n      jump\t// in\n    tag_185:\n        /* \"#utility.yul\":1500:1537   */\n      swap1\n      pop\n        /* \"#utility.yul\":1592:1596   */\n      0x20\n        /* \"#utility.yul\":1586:1590   */\n      dup2\n        /* \"#utility.yul\":1582:1597   */\n      add\n        /* \"#utility.yul\":1574:1597   */\n      swap1\n      pop\n        /* \"#utility.yul\":1296:1604   */\n      swap2\n      swap1\n      pop\n      jump\t// out\n        /* \"#utility.yul\":1610:1758   */\n    tag_108:\n        /* \"#utility.yul\":1708:1714   */\n      dup3\n        /* \"#utility.yul\":1703:1706   */\n      dup2\n        /* \"#utility.yul\":1698:1701   */\n      dup4\n        /* \"#utility.yul\":1685:1715   */\n      calldatacopy\n        /* \"#utility.yul\":1749:1750   */\n      0x00\n        /* \"#utility.yul\":1740:1746   */\n      dup4\n        /* \"#utility.yul\":1735:1738   */\n      dup4\n        /* \"#utility.yul\":1731:1747   */\n      add\n        /* \"#utility.yul\":1724:1751   */\n      mstore\n        /* \"#utility.yul\":1610:1758   */\n      pop\n      pop\n      pop\n      jump\t// out\n        /* \"#utility.yul\":1764:2189   */\n    tag_109:\n        /* \"#utility.yul\":1842:1847   */\n      0x00\n        /* \"#utility.yul\":1867:1933   */\n      tag_188\n        /* \"#utility.yul\":1883:1932   */\n      tag_189\n        /* \"#utility.yul\":1925:1931   */\n      dup5\n        /* \"#utility.yul\":1883:1932   */\n      tag_107\n      jump\t// in\n    tag_189:\n        /* \"#utility.yul\":1867:1933   */\n      tag_106\n      jump\t// in\n    tag_188:\n        /* \"#utility.yul\":1858:1933   */\n      swap1\n      pop\n        /* \"#utility.yul\":1956:1962   */\n      dup3\n        /* \"#utility.yul\":1949:1954   */\n      dup2\n        /* \"#utility.yul\":1942:1963   */\n      mstore\n        /* \"#utility.yul\":1994:1998   */\n      0x20\n        /* \"#utility.yul\":1987:1992   */\n      dup2\n        /* \"#utility.yul\":1983:1999   */\n      add\n        /* \"#utility.yul\":2032:2035   */\n      dup5\n        /* \"#utility.yul\":2023:2029   */\n      dup5\n        /* \"#utility.yul\":2018:2021   */\n      dup5\n        /* \"#utility.yul\":2014:2030   */\n      add\n        /* \"#utility.yul\":2011:2036   */\n      gt\n        /* \"#utility.yul\":2008:2120   */\n      iszero\n      tag_190\n      jumpi\n        /* \"#utility.yul\":2039:2118   */\n      tag_191\n      tag_103\n      jump\t// in\n    tag_191:\n        /* \"#utility.yul\":2008:2120   */\n    tag_190:\n        /* \"#utility.yul\":2129:2183   */\n      tag_192\n        /* \"#utility.yul\":2176:2182   */\n      dup5\n        /* \"#utility.yul\":2171:2174   */\n      dup3\n        /* \"#utility.yul\":2166:2169   */\n      dup6\n        /* \"#utility.yul\":2129:2183   */\n      tag_108\n      jump\t// in\n    tag_192:\n        /* \"#utility.yul\":1848:2189   */\n      pop\n        /* \"#utility.yul\":1764:2189   */\n      swap4\n      swap3\n      pop\n      pop\n      pop\n      jump\t// out\n        /* \"#utility.yul\":2209:2549   */\n    tag_110:\n        /* \"#utility.yul\":2265:2270   */\n      0x00\n        /* \"#utility.yul\":2314:2317   */\n      dup3\n        /* \"#utility.yul\":2307:2311   */\n      0x1f\n        /* \"#utility.yul\":2299:2305   */\n      dup4\n        /* \"#utility.yul\":2295:2312   */\n      add\n        /* \"#utility.yul\":2291:2318   */\n      slt\n        /* \"#utility.yul\":2281:2403   */\n      tag_194\n      jumpi\n        /* \"#utility.yul\":2322:2401   */\n      tag_195\n      tag_102\n      jump\t// in\n    tag_195:\n        /* \"#utility.yul\":2281:2403   */\n    tag_194:\n        /* \"#utility.yul\":2439:2445   */\n      dup2\n        /* \"#utility.yul\":2426:2446   */\n      calldataload\n        /* \"#utility.yul\":2464:2543   */\n      tag_196\n        /* \"#utility.yul\":2539:2542   */\n      dup5\n        /* \"#utility.yul\":2531:2537   */\n      dup3\n        /* \"#utility.yul\":2524:2528   */\n      0x20\n        /* \"#utility.yul\":2516:2522   */\n      dup7\n        /* \"#utility.yul\":2512:2529   */\n      add\n        /* \"#utility.yul\":2464:2543   */\n      tag_109\n      jump\t// in\n    tag_196:\n        /* \"#utility.yul\":2455:2543   */\n      swap2\n      pop\n        /* \"#utility.yul\":2271:2549   */\n      pop\n        /* \"#utility.yul\":2209:2549   */\n      swap3\n      swap2\n      pop\n      pop\n      jump\t// out\n        /* \"#utility.yul\":2555:2632   */\n    tag_111:\n        /* \"#utility.yul\":2592:2599   */\n      0x00\n        /* \"#utility.yul\":2621:2626   */\n      dup2\n        /* \"#utility.yul\":2610:2626   */\n      swap1\n      pop\n        /* \"#utility.yul\":2555:2632   */\n      swap2\n      swap1\n      pop\n      jump\t// out\n        /* \"#utility.yul\":2638:2760   */\n    tag_112:\n        /* \"#utility.yul\":2711:2735   */\n      tag_199\n        /* \"#utility.yul\":2729:2734   */\n      dup2\n        /* \"#utility.yul\":2711:2735   */\n      tag_111\n      jump\t// in\n    tag_199:\n        /* \"#utility.yul\":2704:2709   */\n      dup2\n        /* \"#utility.yul\":2701:2736   */\n      eq\n        /* \"#utility.yul\":2691:2754   */\n      tag_200\n      jumpi\n        /* \"#utility.yul\":2750:2751   */\n      0x00\n        /* \"#utility.yul\":2747:2748   */\n      dup1\n        /* \"#utility.yul\":2740:2752   */\n      revert\n        /* \"#utility.yul\":2691:2754   */\n    tag_200:\n        /* \"#utility.yul\":2638:2760   */\n      pop\n      jump\t// out\n        /* \"#utility.yul\":2766:2905   */\n    tag_113:\n        /* \"#utility.yul\":2812:2817   */\n      0x00\n        /* \"#utility.yul\":2850:2856   */\n      dup2\n        /* \"#utility.yul\":2837:2857   */\n      calldataload\n        /* \"#utility.yul\":2828:2857   */\n      swap1\n      pop\n        /* \"#utility.yul\":2866:2899   */\n      tag_202\n        /* \"#utility.yul\":2893:2898   */\n      dup2\n        /* \"#utility.yul\":2866:2899   */\n      tag_112\n      jump\t// in\n    tag_202:\n        /* \"#utility.yul\":2766:2905   */\n      swap3\n      swap2\n      pop\n      pop\n      jump\t// out\n        /* \"#utility.yul\":2911:3890   */\n    tag_10:\n        /* \"#utility.yul\":3008:3014   */\n      0x00\n        /* \"#utility.yul\":3016:3022   */\n      dup1\n        /* \"#utility.yul\":3024:3030   */\n      0x00\n        /* \"#utility.yul\":3073:3075   */\n      0x60\n        /* \"#utility.yul\":3061:3070   */\n      dup5\n        /* \"#utility.yul\":3052:3059   */\n      dup7\n        /* \"#utility.yul\":3048:3071   */\n      sub\n        /* \"#utility.yul\":3044:3076   */\n      slt\n        /* \"#utility.yul\":3041:3160   */\n      iszero\n      tag_204\n      jumpi\n        /* \"#utility.yul\":3079:3158   */\n      tag_205\n      tag_100\n      jump\t// in\n    tag_205:\n        /* \"#utility.yul\":3041:3160   */\n    tag_204:\n        /* \"#utility.yul\":3227:3228   */\n      0x00\n        /* \"#utility.yul\":3216:3225   */\n      dup5\n        /* \"#utility.yul\":3212:3229   */\n      add\n        /* \"#utility.yul\":3199:3230   */\n      calldataload\n        /* \"#utility.yul\":3257:3275   */\n      0xffffffffffffffff\n        /* \"#utility.yul\":3249:3255   */\n      dup2\n        /* \"#utility.yul\":3246:3276   */\n      gt\n        /* \"#utility.yul\":3243:3360   */\n      iszero\n      tag_206\n      jumpi\n        /* \"#utility.yul\":3279:3358   */\n      tag_207\n      tag_101\n      jump\t// in\n    tag_207:\n        /* \"#utility.yul\":3243:3360   */\n    tag_206:\n        /* \"#utility.yul\":3384:3447   */\n      tag_208\n        /* \"#utility.yul\":3439:3446   */\n      dup7\n        /* \"#utility.yul\":3430:3436   */\n      dup3\n        /* \"#utility.yul\":3419:3428   */\n      dup8\n        /* \"#utility.yul\":3415:3437   */\n      add\n        /* \"#utility.yul\":3384:3447   */\n      tag_110\n      jump\t// in\n    tag_208:\n        /* \"#utility.yul\":3374:3447   */\n      swap4\n      pop\n        /* \"#utility.yul\":3170:3457   */\n      pop\n        /* \"#utility.yul\":3524:3526   */\n      0x20\n        /* \"#utility.yul\":3513:3522   */\n      dup5\n        /* \"#utility.yul\":3509:3527   */\n      add\n        /* \"#utility.yul\":3496:3528   */\n      calldataload\n        /* \"#utility.yul\":3555:3573   */\n      0xffffffffffffffff\n        /* \"#utility.yul\":3547:3553   */\n      dup2\n        /* \"#utility.yul\":3544:3574   */\n      gt\n        /* \"#utility.yul\":3541:3658   */\n      iszero\n      tag_209\n      jumpi\n        /* \"#utility.yul\":3577:3656   */\n      tag_210\n      tag_101\n      jump\t// in\n    tag_210:\n        /* \"#utility.yul\":3541:3658   */\n    tag_209:\n        /* \"#utility.yul\":3682:3745   */\n      tag_211\n        /* \"#utility.yul\":3737:3744   */\n      dup7\n        /* \"#utility.yul\":3728:3734   */\n      dup3\n        /* \"#utility.yul\":3717:3726   */\n      dup8\n        /* \"#utility.yul\":3713:3735   */\n      add\n        /* \"#utility.yul\":3682:3745   */\n      tag_110\n      jump\t// in\n    tag_211:\n        /* \"#utility.yul\":3672:3745   */\n      swap3\n      pop\n        /* \"#utility.yul\":3467:3755   */\n      pop\n        /* \"#utility.yul\":3794:3796   */\n      0x40\n        /* \"#utility.yul\":3820:3873   */\n      tag_212\n        /* \"#utility.yul\":3865:3872   */\n      dup7\n        /* \"#utility.yul\":3856:3862   */\n      dup3\n        /* \"#utility.yul\":3845:3854   */\n      dup8\n        /* \"#utility.yul\":3841:3863   */\n      add\n        /* \"#utility.yul\":3820:3873   */\n      tag_113\n      jump\t// in\n    tag_212:\n        /* \"#utility.yul\":3810:3873   */\n      swap2\n      pop\n        /* \"#utility.yul\":3765:3883   */\n      pop\n        /* \"#utility.yul\":2911:3890   */\n      swap3\n      pop\n      swap3\n      pop\n      swap3\n      jump\t// out\n        /* \"#utility.yul\":3896:4030   */\n    tag_114:\n        /* \"#utility.yul\":3983:3989   */\n      0x00\n        /* \"#utility.yul\":4017:4022   */\n      dup2\n        /* \"#utility.yul\":4011:4023   */\n      mload\n        /* \"#utility.yul\":4001:4023   */\n      swap1\n      pop\n        /* \"#utility.yul\":3896:4030   */\n      swap2\n      swap1\n      pop\n      jump\t// out\n        /* \"#utility.yul\":4036:4240   */\n    tag_115:\n        /* \"#utility.yul\":4155:4166   */\n      0x00\n        /* \"#utility.yul\":4189:4195   */\n      dup3\n        /* \"#utility.yul\":4184:4187   */\n      dup3\n        /* \"#utility.yul\":4177:4196   */\n      mstore\n        /* \"#utility.yul\":4229:4233   */\n      0x20\n        /* \"#utility.yul\":4224:4227   */\n      dup3\n        /* \"#utility.yul\":4220:4234   */\n      add\n        /* \"#utility.yul\":4205:4234   */\n      swap1\n      pop\n        /* \"#utility.yul\":4036:4240   */\n      swap3\n      swap2\n      pop\n      pop\n      jump\t// out\n        /* \"#utility.yul\":4246:4398   */\n    tag_116:\n        /* \"#utility.yul\":4333:4337   */\n      0x00\n        /* \"#utility.yul\":4356:4359   */\n      dup2\n        /* \"#utility.yul\":4348:4359   */\n      swap1\n      pop\n        /* \"#utility.yul\":4386:4390   */\n      0x20\n        /* \"#utility.yul\":4381:4384   */\n      dup3\n        /* \"#utility.yul\":4377:4391   */\n      add\n        /* \"#utility.yul\":4369:4391   */\n      swap1\n      pop\n        /* \"#utility.yul\":4246:4398   */\n      swap2\n      swap1\n      pop\n      jump\t// out\n        /* \"#utility.yul\":4404:4512   */\n    tag_117:\n        /* \"#utility.yul\":4481:4505   */\n      tag_217\n        /* \"#utility.yul\":4499:4504   */\n      dup2\n        /* \"#utility.yul\":4481:4505   */\n      tag_111\n      jump\t// in\n    tag_217:\n        /* \"#utility.yul\":4476:4479   */\n      dup3\n        /* \"#utility.yul\":4469:4506   */\n      mstore\n        /* \"#utility.yul\":4404:4512   */\n      pop\n      pop\n      jump\t// out\n        /* \"#utility.yul\":4518:4617   */\n    tag_118:\n        /* \"#utility.yul\":4570:4576   */\n      0x00\n        /* \"#utility.yul\":4604:4609   */\n      dup2\n        /* \"#utility.yul\":4598:4610   */\n      mload\n        /* \"#utility.yul\":4588:4610   */\n      swap1\n      pop\n        /* \"#utility.yul\":4518:4617   */\n      swap2\n      swap1\n      pop\n      jump\t// out\n        /* \"#utility.yul\":4623:4782   */\n    tag_119:\n        /* \"#utility.yul\":4697:4708   */\n      0x00\n        /* \"#utility.yul\":4731:4737   */\n      dup3\n        /* \"#utility.yul\":4726:4729   */\n      dup3\n        /* \"#utility.yul\":4719:4738   */\n      mstore\n        /* \"#utility.yul\":4771:4775   */\n      0x20\n        /* \"#utility.yul\":4766:4769   */\n      dup3\n        /* \"#utility.yul\":4762:4776   */\n      add\n        /* \"#utility.yul\":4747:4776   */\n      swap1\n      pop\n        /* \"#utility.yul\":4623:4782   */\n      swap3\n      swap2\n      pop\n      pop\n      jump\t// out\n        /* \"#utility.yul\":4788:4927   */\n    tag_120:\n        /* \"#utility.yul\":4877:4883   */\n      dup3\n        /* \"#utility.yul\":4872:4875   */\n      dup2\n        /* \"#utility.yul\":4867:4870   */\n      dup4\n        /* \"#utility.yul\":4861:4884   */\n      mcopy\n        /* \"#utility.yul\":4918:4919   */\n      0x00\n        /* \"#utility.yul\":4909:4915   */\n      dup4\n        /* \"#utility.yul\":4904:4907   */\n      dup4\n        /* \"#utility.yul\":4900:4916   */\n      add\n        /* \"#utility.yul\":4893:4920   */\n      mstore\n        /* \"#utility.yul\":4788:4927   */\n      pop\n      pop\n      pop\n      jump\t// out\n        /* \"#utility.yul\":4933:5290   */\n    tag_121:\n        /* \"#utility.yul\":5011:5014   */\n      0x00\n        /* \"#utility.yul\":5039:5078   */\n      tag_222\n        /* \"#utility.yul\":5072:5077   */\n      dup3\n        /* \"#utility.yul\":5039:5078   */\n      tag_118\n      jump\t// in\n    tag_222:\n        /* \"#utility.yul\":5094:5155   */\n      tag_223\n        /* \"#utility.yul\":5148:5154   */\n      dup2\n        /* \"#utility.yul\":5143:5146   */\n      dup6\n        /* \"#utility.yul\":5094:5155   */\n      tag_119\n      jump\t// in\n    tag_223:\n        /* \"#utility.yul\":5087:5155   */\n      swap4\n      pop\n        /* \"#utility.yul\":5164:5229   */\n      tag_224\n        /* \"#utility.yul\":5222:5228   */\n      dup2\n        /* \"#utility.yul\":5217:5220   */\n      dup6\n        /* \"#utility.yul\":5210:5214   */\n      0x20\n        /* \"#utility.yul\":5203:5208   */\n      dup7\n        /* \"#utility.yul\":5199:5215   */\n      add\n        /* \"#utility.yul\":5164:5229   */\n      tag_120\n      jump\t// in\n    tag_224:\n        /* \"#utility.yul\":5254:5283   */\n      tag_225\n        /* \"#utility.yul\":5276:5282   */\n      dup2\n        /* \"#utility.yul\":5254:5283   */\n      tag_104\n      jump\t// in\n    tag_225:\n        /* \"#utility.yul\":5249:5252   */\n      dup5\n        /* \"#utility.yul\":5245:5284   */\n      add\n        /* \"#utility.yul\":5238:5284   */\n      swap2\n      pop\n        /* \"#utility.yul\":5015:5290   */\n      pop\n        /* \"#utility.yul\":4933:5290   */\n      swap3\n      swap2\n      pop\n      pop\n      jump\t// out\n        /* \"#utility.yul\":5296:5422   */\n    tag_122:\n        /* \"#utility.yul\":5333:5340   */\n      0x00\n        /* \"#utility.yul\":5373:5415   */\n      0xffffffffffffffffffffffffffffffffffffffff\n        /* \"#utility.yul\":5366:5371   */\n      dup3\n        /* \"#utility.yul\":5362:5416   */\n      and\n        /* \"#utility.yul\":5351:5416   */\n      swap1\n      pop\n        /* \"#utility.yul\":5296:5422   */\n      swap2\n      swap1\n      pop\n      jump\t// out\n        /* \"#utility.yul\":5428:5532   */\n    tag_123:\n        /* \"#utility.yul\":5473:5480   */\n      0x00\n        /* \"#utility.yul\":5502:5526   */\n      tag_228\n        /* \"#utility.yul\":5520:5525   */\n      dup3\n        /* \"#utility.yul\":5502:5526   */\n      tag_122\n      jump\t// in\n    tag_228:\n        /* \"#utility.yul\":5491:5526   */\n      swap1\n      pop\n        /* \"#utility.yul\":5428:5532   */\n      swap2\n      swap1\n      pop\n      jump\t// out\n        /* \"#utility.yul\":5538:5670   */\n    tag_124:\n        /* \"#utility.yul\":5631:5663   */\n      tag_230\n        /* \"#utility.yul\":5657:5662   */\n      dup2\n        /* \"#utility.yul\":5631:5663   */\n      tag_123\n      jump\t// in\n    tag_230:\n        /* \"#utility.yul\":5626:5629   */\n      dup3\n        /* \"#utility.yul\":5619:5664   */\n      mstore\n        /* \"#utility.yul\":5538:5670   */\n      pop\n      pop\n      jump\t// out\n        /* \"#utility.yul\":5676:5772   */\n    tag_125:\n        /* \"#utility.yul\":5713:5720   */\n      0x00\n        /* \"#utility.yul\":5742:5766   */\n      tag_232\n        /* \"#utility.yul\":5760:5765   */\n      dup3\n        /* \"#utility.yul\":5742:5766   */\n      tag_122\n      jump\t// in\n    tag_232:\n        /* \"#utility.yul\":5731:5766   */\n      swap1\n      pop\n        /* \"#utility.yul\":5676:5772   */\n      swap2\n      swap1\n      pop\n      jump\t// out\n        /* \"#utility.yul\":5778:5886   */\n    tag_126:\n        /* \"#utility.yul\":5855:5879   */\n      tag_234\n        /* \"#utility.yul\":5873:5878   */\n      dup2\n        /* \"#utility.yul\":5855:5879   */\n      tag_125\n      jump\t// in\n    tag_234:\n        /* \"#utility.yul\":5850:5853   */\n      dup3\n        /* \"#utility.yul\":5843:5880   */\n      mstore\n        /* \"#utility.yul\":5778:5886   */\n      pop\n      pop\n      jump\t// out\n        /* \"#utility.yul\":5892:5982   */\n    tag_127:\n        /* \"#utility.yul\":5926:5933   */\n      0x00\n        /* \"#utility.yul\":5969:5974   */\n      dup2\n        /* \"#utility.yul\":5962:5975   */\n      iszero\n        /* \"#utility.yul\":5955:5976   */\n      iszero\n        /* \"#utility.yul\":5944:5976   */\n      swap1\n      pop\n        /* \"#utility.yul\":5892:5982   */\n      swap2\n      swap1\n      pop\n      jump\t// out\n        /* \"#utility.yul\":5988:6087   */\n    tag_128:\n        /* \"#utility.yul\":6059:6080   */\n      tag_237\n        /* \"#utility.yul\":6074:6079   */\n      dup2\n        /* \"#utility.yul\":6059:6080   */\n      tag_127\n      jump\t// in\n    tag_237:\n        /* \"#utility.yul\":6054:6057   */\n      dup3\n        /* \"#utility.yul\":6047:6081   */\n      mstore\n        /* \"#utility.yul\":5988:6087   */\n      pop\n      pop\n      jump\t// out\n        /* \"#utility.yul\":6151:7700   */\n    tag_129:\n        /* \"#utility.yul\":6250:6253   */\n      0x00\n        /* \"#utility.yul\":6286:6290   */\n      0xe0\n        /* \"#utility.yul\":6281:6284   */\n      dup4\n        /* \"#utility.yul\":6277:6291   */\n      add\n        /* \"#utility.yul\":6371:6375   */\n      0x00\n        /* \"#utility.yul\":6364:6369   */\n      dup4\n        /* \"#utility.yul\":6360:6376   */\n      add\n        /* \"#utility.yul\":6354:6377   */\n      mload\n        /* \"#utility.yul\":6390:6453   */\n      tag_239\n        /* \"#utility.yul\":6447:6451   */\n      0x00\n        /* \"#utility.yul\":6442:6445   */\n      dup7\n        /* \"#utility.yul\":6438:6452   */\n      add\n        /* \"#utility.yul\":6424:6436   */\n      dup3\n        /* \"#utility.yul\":6390:6453   */\n      tag_117\n      jump\t// in\n    tag_239:\n        /* \"#utility.yul\":6301:6463   */\n      pop\n        /* \"#utility.yul\":6546:6550   */\n      0x20\n        /* \"#utility.yul\":6539:6544   */\n      dup4\n        /* \"#utility.yul\":6535:6551   */\n      add\n        /* \"#utility.yul\":6529:6552   */\n      mload\n        /* \"#utility.yul\":6599:6602   */\n      dup5\n        /* \"#utility.yul\":6593:6597   */\n      dup3\n        /* \"#utility.yul\":6589:6603   */\n      sub\n        /* \"#utility.yul\":6582:6586   */\n      0x20\n        /* \"#utility.yul\":6577:6580   */\n      dup7\n        /* \"#utility.yul\":6573:6587   */\n      add\n        /* \"#utility.yul\":6566:6604   */\n      mstore\n        /* \"#utility.yul\":6625:6698   */\n      tag_240\n        /* \"#utility.yul\":6693:6697   */\n      dup3\n        /* \"#utility.yul\":6679:6691   */\n      dup3\n        /* \"#utility.yul\":6625:6698   */\n      tag_121\n      jump\t// in\n    tag_240:\n        /* \"#utility.yul\":6617:6698   */\n      swap2\n      pop\n        /* \"#utility.yul\":6473:6709   */\n      pop\n        /* \"#utility.yul\":6798:6802   */\n      0x40\n        /* \"#utility.yul\":6791:6796   */\n      dup4\n        /* \"#utility.yul\":6787:6803   */\n      add\n        /* \"#utility.yul\":6781:6804   */\n      mload\n        /* \"#utility.yul\":6851:6854   */\n      dup5\n        /* \"#utility.yul\":6845:6849   */\n      dup3\n        /* \"#utility.yul\":6841:6855   */\n      sub\n        /* \"#utility.yul\":6834:6838   */\n      0x40\n        /* \"#utility.yul\":6829:6832   */\n      dup7\n        /* \"#utility.yul\":6825:6839   */\n      add\n        /* \"#utility.yul\":6818:6856   */\n      mstore\n        /* \"#utility.yul\":6877:6950   */\n      tag_241\n        /* \"#utility.yul\":6945:6949   */\n      dup3\n        /* \"#utility.yul\":6931:6943   */\n      dup3\n        /* \"#utility.yul\":6877:6950   */\n      tag_121\n      jump\t// in\n    tag_241:\n        /* \"#utility.yul\":6869:6950   */\n      swap2\n      pop\n        /* \"#utility.yul\":6719:6961   */\n      pop\n        /* \"#utility.yul\":7044:7048   */\n      0x60\n        /* \"#utility.yul\":7037:7042   */\n      dup4\n        /* \"#utility.yul\":7033:7049   */\n      add\n        /* \"#utility.yul\":7027:7050   */\n      mload\n        /* \"#utility.yul\":7063:7126   */\n      tag_242\n        /* \"#utility.yul\":7120:7124   */\n      0x60\n        /* \"#utility.yul\":7115:7118   */\n      dup7\n        /* \"#utility.yul\":7111:7125   */\n      add\n        /* \"#utility.yul\":7097:7109   */\n      dup3\n        /* \"#utility.yul\":7063:7126   */\n      tag_117\n      jump\t// in\n    tag_242:\n        /* \"#utility.yul\":6971:7136   */\n      pop\n        /* \"#utility.yul\":7220:7224   */\n      0x80\n        /* \"#utility.yul\":7213:7218   */\n      dup4\n        /* \"#utility.yul\":7209:7225   */\n      add\n        /* \"#utility.yul\":7203:7226   */\n      mload\n        /* \"#utility.yul\":7239:7318   */\n      tag_243\n        /* \"#utility.yul\":7312:7316   */\n      0x80\n        /* \"#utility.yul\":7307:7310   */\n      dup7\n        /* \"#utility.yul\":7303:7317   */\n      add\n        /* \"#utility.yul\":7289:7301   */\n      dup3\n        /* \"#utility.yul\":7239:7318   */\n      tag_124\n      jump\t// in\n    tag_243:\n        /* \"#utility.yul\":7146:7328   */\n      pop\n        /* \"#utility.yul\":7411:7415   */\n      0xa0\n        /* \"#utility.yul\":7404:7409   */\n      dup4\n        /* \"#utility.yul\":7400:7416   */\n      add\n        /* \"#utility.yul\":7394:7417   */\n      mload\n        /* \"#utility.yul\":7430:7493   */\n      tag_244\n        /* \"#utility.yul\":7487:7491   */\n      0xa0\n        /* \"#utility.yul\":7482:7485   */\n      dup7\n        /* \"#utility.yul\":7478:7492   */\n      add\n        /* \"#utility.yul\":7464:7476   */\n      dup3\n        /* \"#utility.yul\":7430:7493   */\n      tag_126\n      jump\t// in\n    tag_244:\n        /* \"#utility.yul\":7338:7503   */\n      pop\n        /* \"#utility.yul\":7587:7591   */\n      0xc0\n        /* \"#utility.yul\":7580:7585   */\n      dup4\n        /* \"#utility.yul\":7576:7592   */\n      add\n        /* \"#utility.yul\":7570:7593   */\n      mload\n        /* \"#utility.yul\":7606:7663   */\n      tag_245\n        /* \"#utility.yul\":7657:7661   */\n      0xc0\n        /* \"#utility.yul\":7652:7655   */\n      dup7\n        /* \"#utility.yul\":7648:7662   */\n      add\n        /* \"#utility.yul\":7634:7646   */\n      dup3\n        /* \"#utility.yul\":7606:7663   */\n      tag_128\n      jump\t// in\n    tag_245:\n        /* \"#utility.yul\":7513:7673   */\n      pop\n        /* \"#utility.yul\":7690:7694   */\n      dup1\n        /* \"#utility.yul\":7683:7694   */\n      swap2\n      pop\n        /* \"#utility.yul\":6255:7700   */\n      pop\n        /* \"#utility.yul\":6151:7700   */\n      swap3\n      swap2\n      pop\n      pop\n      jump\t// out\n        /* \"#utility.yul\":7706:7942   */\n    tag_130:\n        /* \"#utility.yul\":7815:7825   */\n      0x00\n        /* \"#utility.yul\":7850:7936   */\n      tag_247\n        /* \"#utility.yul\":7932:7935   */\n      dup4\n        /* \"#utility.yul\":7924:7930   */\n      dup4\n        /* \"#utility.yul\":7850:7936   */\n      tag_129\n      jump\t// in\n    tag_247:\n        /* \"#utility.yul\":7836:7936   */\n      swap1\n      pop\n        /* \"#utility.yul\":7706:7942   */\n      swap3\n      swap2\n      pop\n      pop\n      jump\t// out\n        /* \"#utility.yul\":7948:8081   */\n    tag_131:\n        /* \"#utility.yul\":8038:8042   */\n      0x00\n        /* \"#utility.yul\":8070:8074   */\n      0x20\n        /* \"#utility.yul\":8065:8068   */\n      dup3\n        /* \"#utility.yul\":8061:8075   */\n      add\n        /* \"#utility.yul\":8053:8075   */\n      swap1\n      pop\n        /* \"#utility.yul\":7948:8081   */\n      swap2\n      swap1\n      pop\n      jump\t// out\n        /* \"#utility.yul\":8149:9220   */\n    tag_132:\n        /* \"#utility.yul\":8308:8311   */\n      0x00\n        /* \"#utility.yul\":8337:8411   */\n      tag_250\n        /* \"#utility.yul\":8405:8410   */\n      dup3\n        /* \"#utility.yul\":8337:8411   */\n      tag_114\n      jump\t// in\n    tag_250:\n        /* \"#utility.yul\":8427:8533   */\n      tag_251\n        /* \"#utility.yul\":8526:8532   */\n      dup2\n        /* \"#utility.yul\":8521:8524   */\n      dup6\n        /* \"#utility.yul\":8427:8533   */\n      tag_115\n      jump\t// in\n    tag_251:\n        /* \"#utility.yul\":8420:8533   */\n      swap4\n      pop\n        /* \"#utility.yul\":8559:8562   */\n      dup4\n        /* \"#utility.yul\":8604:8608   */\n      0x20\n        /* \"#utility.yul\":8596:8602   */\n      dup3\n        /* \"#utility.yul\":8592:8609   */\n      mul\n        /* \"#utility.yul\":8587:8590   */\n      dup6\n        /* \"#utility.yul\":8583:8610   */\n      add\n        /* \"#utility.yul\":8634:8710   */\n      tag_252\n        /* \"#utility.yul\":8704:8709   */\n      dup6\n        /* \"#utility.yul\":8634:8710   */\n      tag_116\n      jump\t// in\n    tag_252:\n        /* \"#utility.yul\":8733:8740   */\n      dup1\n        /* \"#utility.yul\":8764:8765   */\n      0x00\n        /* \"#utility.yul\":8749:9175   */\n    tag_253:\n        /* \"#utility.yul\":8774:8780   */\n      dup6\n        /* \"#utility.yul\":8771:8772   */\n      dup2\n        /* \"#utility.yul\":8768:8781   */\n      lt\n        /* \"#utility.yul\":8749:9175   */\n      iszero\n      tag_255\n      jumpi\n        /* \"#utility.yul\":8845:8854   */\n      dup5\n        /* \"#utility.yul\":8839:8843   */\n      dup5\n        /* \"#utility.yul\":8835:8855   */\n      sub\n        /* \"#utility.yul\":8830:8833   */\n      dup10\n        /* \"#utility.yul\":8823:8856   */\n      mstore\n        /* \"#utility.yul\":8896:8902   */\n      dup2\n        /* \"#utility.yul\":8890:8903   */\n      mload\n        /* \"#utility.yul\":8924:9028   */\n      tag_256\n        /* \"#utility.yul\":9023:9027   */\n      dup6\n        /* \"#utility.yul\":9008:9021   */\n      dup3\n        /* \"#utility.yul\":8924:9028   */\n      tag_130\n      jump\t// in\n    tag_256:\n        /* \"#utility.yul\":8916:9028   */\n      swap5\n      pop\n        /* \"#utility.yul\":9051:9131   */\n      tag_257\n        /* \"#utility.yul\":9124:9130   */\n      dup4\n        /* \"#utility.yul\":9051:9131   */\n      tag_131\n      jump\t// in\n    tag_257:\n        /* \"#utility.yul\":9041:9131   */\n      swap3\n      pop\n        /* \"#utility.yul\":9160:9164   */\n      0x20\n        /* \"#utility.yul\":9155:9158   */\n      dup11\n        /* \"#utility.yul\":9151:9165   */\n      add\n        /* \"#utility.yul\":9144:9165   */\n      swap10\n      pop\n        /* \"#utility.yul\":8809:9175   */\n      pop\n        /* \"#utility.yul\":8796:8797   */\n      0x01\n        /* \"#utility.yul\":8793:8794   */\n      dup2\n        /* \"#utility.yul\":8789:8798   */\n      add\n        /* \"#utility.yul\":8784:8798   */\n      swap1\n      pop\n        /* \"#utility.yul\":8749:9175   */\n      jump(tag_253)\n    tag_255:\n        /* \"#utility.yul\":8753:8767   */\n      pop\n        /* \"#utility.yul\":9191:9195   */\n      dup3\n        /* \"#utility.yul\":9184:9195   */\n      swap8\n      pop\n        /* \"#utility.yul\":9211:9214   */\n      dup8\n        /* \"#utility.yul\":9204:9214   */\n      swap6\n      pop\n        /* \"#utility.yul\":8313:9220   */\n      pop\n      pop\n      pop\n      pop\n      pop\n        /* \"#utility.yul\":8149:9220   */\n      swap3\n      swap2\n      pop\n      pop\n      jump\t// out\n        /* \"#utility.yul\":9226:9679   */\n    tag_16:\n        /* \"#utility.yul\":9409:9413   */\n      0x00\n        /* \"#utility.yul\":9447:9449   */\n      0x20\n        /* \"#utility.yul\":9436:9445   */\n      dup3\n        /* \"#utility.yul\":9432:9450   */\n      add\n        /* \"#utility.yul\":9424:9450   */\n      swap1\n      pop\n        /* \"#utility.yul\":9496:9505   */\n      dup2\n        /* \"#utility.yul\":9490:9494   */\n      dup2\n        /* \"#utility.yul\":9486:9506   */\n      sub\n        /* \"#utility.yul\":9482:9483   */\n      0x00\n        /* \"#utility.yul\":9471:9480   */\n      dup4\n        /* \"#utility.yul\":9467:9484   */\n      add\n        /* \"#utility.yul\":9460:9507   */\n      mstore\n        /* \"#utility.yul\":9524:9672   */\n      tag_259\n        /* \"#utility.yul\":9667:9671   */\n      dup2\n        /* \"#utility.yul\":9658:9664   */\n      dup5\n        /* \"#utility.yul\":9524:9672   */\n      tag_132\n      jump\t// in\n    tag_259:\n        /* \"#utility.yul\":9516:9672   */\n      swap1\n      pop\n        /* \"#utility.yul\":9226:9679   */\n      swap3\n      swap2\n      pop\n      pop\n      jump\t// out\n        /* \"#utility.yul\":9685:9803   */\n    tag_133:\n        /* \"#utility.yul\":9772:9796   */\n      tag_261\n        /* \"#utility.yul\":9790:9795   */\n      dup2\n        /* \"#utility.yul\":9772:9796   */\n      tag_111\n      jump\t// in\n    tag_261:\n        /* \"#utility.yul\":9767:9770   */\n      dup3\n        /* \"#utility.yul\":9760:9797   */\n      mstore\n        /* \"#utility.yul\":9685:9803   */\n      pop\n      pop\n      jump\t// out\n        /* \"#utility.yul\":9809:10031   */\n    tag_21:\n        /* \"#utility.yul\":9902:9906   */\n      0x00\n        /* \"#utility.yul\":9940:9942   */\n      0x20\n        /* \"#utility.yul\":9929:9938   */\n      dup3\n        /* \"#utility.yul\":9925:9943   */\n      add\n        /* \"#utility.yul\":9917:9943   */\n      swap1\n      pop\n        /* \"#utility.yul\":9953:10024   */\n      tag_263\n        /* \"#utility.yul\":10021:10022   */\n      0x00\n        /* \"#utility.yul\":10010:10019   */\n      dup4\n        /* \"#utility.yul\":10006:10023   */\n      add\n        /* \"#utility.yul\":9997:10003   */\n      dup5\n        /* \"#utility.yul\":9953:10024   */\n      tag_133\n      jump\t// in\n    tag_263:\n        /* \"#utility.yul\":9809:10031   */\n      swap3\n      swap2\n      pop\n      pop\n      jump\t// out\n        /* \"#utility.yul\":10037:10366   */\n    tag_25:\n        /* \"#utility.yul\":10096:10102   */\n      0x00\n        /* \"#utility.yul\":10145:10147   */\n      0x20\n        /* \"#utility.yul\":10133:10142   */\n      dup3\n        /* \"#utility.yul\":10124:10131   */\n      dup5\n        /* \"#utility.yul\":10120:10143   */\n      sub\n        /* \"#utility.yul\":10116:10148   */\n      slt\n        /* \"#utility.yul\":10113:10232   */\n      iszero\n      tag_265\n      jumpi\n        /* \"#utility.yul\":10151:10230   */\n      tag_266\n      tag_100\n      jump\t// in\n    tag_266:\n        /* \"#utility.yul\":10113:10232   */\n    tag_265:\n        /* \"#utility.yul\":10271:10272   */\n      0x00\n        /* \"#utility.yul\":10296:10349   */\n      tag_267\n        /* \"#utility.yul\":10341:10348   */\n      dup5\n        /* \"#utility.yul\":10332:10338   */\n      dup3\n        /* \"#utility.yul\":10321:10330   */\n      dup6\n        /* \"#utility.yul\":10317:10339   */\n      add\n        /* \"#utility.yul\":10296:10349   */\n      tag_113\n      jump\t// in\n    tag_267:\n        /* \"#utility.yul\":10286:10349   */\n      swap2\n      pop\n        /* \"#utility.yul\":10242:10359   */\n      pop\n        /* \"#utility.yul\":10037:10366   */\n      swap3\n      swap2\n      pop\n      pop\n      jump\t// out\n        /* \"#utility.yul\":10372:10541   */\n    tag_134:\n        /* \"#utility.yul\":10456:10467   */\n      0x00\n        /* \"#utility.yul\":10490:10496   */\n      dup3\n        /* \"#utility.yul\":10485:10488   */\n      dup3\n        /* \"#utility.yul\":10478:10497   */\n      mstore\n        /* \"#utility.yul\":10530:10534   */\n      0x20\n        /* \"#utility.yul\":10525:10528   */\n      dup3\n        /* \"#utility.yul\":10521:10535   */\n      add\n        /* \"#utility.yul\":10506:10535   */\n      swap1\n      pop\n        /* \"#utility.yul\":10372:10541   */\n      swap3\n      swap2\n      pop\n      pop\n      jump\t// out\n        /* \"#utility.yul\":10547:10924   */\n    tag_135:\n        /* \"#utility.yul\":10635:10638   */\n      0x00\n        /* \"#utility.yul\":10663:10702   */\n      tag_270\n        /* \"#utility.yul\":10696:10701   */\n      dup3\n        /* \"#utility.yul\":10663:10702   */\n      tag_118\n      jump\t// in\n    tag_270:\n        /* \"#utility.yul\":10718:10789   */\n      tag_271\n        /* \"#utility.yul\":10782:10788   */\n      dup2\n        /* \"#utility.yul\":10777:10780   */\n      dup6\n        /* \"#utility.yul\":10718:10789   */\n      tag_134\n      jump\t// in\n    tag_271:\n        /* \"#utility.yul\":10711:10789   */\n      swap4\n      pop\n        /* \"#utility.yul\":10798:10863   */\n      tag_272\n        /* \"#utility.yul\":10856:10862   */\n      dup2\n        /* \"#utility.yul\":10851:10854   */\n      dup6\n        /* \"#utility.yul\":10844:10848   */\n      0x20\n        /* \"#utility.yul\":10837:10842   */\n      dup7\n        /* \"#utility.yul\":10833:10849   */\n      add\n        /* \"#utility.yul\":10798:10863   */\n      tag_120\n      jump\t// in\n    tag_272:\n        /* \"#utility.yul\":10888:10917   */\n      tag_273\n        /* \"#utility.yul\":10910:10916   */\n      dup2\n        /* \"#utility.yul\":10888:10917   */\n      tag_104\n      jump\t// in\n    tag_273:\n        /* \"#utility.yul\":10883:10886   */\n      dup5\n        /* \"#utility.yul\":10879:10918   */\n      add\n        /* \"#utility.yul\":10872:10918   */\n      swap2\n      pop\n        /* \"#utility.yul\":10639:10924   */\n      pop\n        /* \"#utility.yul\":10547:10924   */\n      swap3\n      swap2\n      pop\n      pop\n      jump\t// out\n        /* \"#utility.yul\":10930:11072   */\n    tag_136:\n        /* \"#utility.yul\":11033:11065   */\n      tag_275\n        /* \"#utility.yul\":11059:11064   */\n      dup2\n        /* \"#utility.yul\":11033:11065   */\n      tag_123\n      jump\t// in\n    tag_275:\n        /* \"#utility.yul\":11028:11031   */\n      dup3\n        /* \"#utility.yul\":11021:11066   */\n      mstore\n        /* \"#utility.yul\":10930:11072   */\n      pop\n      pop\n      jump\t// out\n        /* \"#utility.yul\":11078:11196   */\n    tag_137:\n        /* \"#utility.yul\":11165:11189   */\n      tag_277\n        /* \"#utility.yul\":11183:11188   */\n      dup2\n        /* \"#utility.yul\":11165:11189   */\n      tag_125\n      jump\t// in\n    tag_277:\n        /* \"#utility.yul\":11160:11163   */\n      dup3\n        /* \"#utility.yul\":11153:11190   */\n      mstore\n        /* \"#utility.yul\":11078:11196   */\n      pop\n      pop\n      jump\t// out\n        /* \"#utility.yul\":11202:11311   */\n    tag_138:\n        /* \"#utility.yul\":11283:11304   */\n      tag_279\n        /* \"#utility.yul\":11298:11303   */\n      dup2\n        /* \"#utility.yul\":11283:11304   */\n      tag_127\n      jump\t// in\n    tag_279:\n        /* \"#utility.yul\":11278:11281   */\n      dup3\n        /* \"#utility.yul\":11271:11305   */\n      mstore\n        /* \"#utility.yul\":11202:11311   */\n      pop\n      pop\n      jump\t// out\n        /* \"#utility.yul\":11317:12405   */\n    tag_28:\n        /* \"#utility.yul\":11628:11632   */\n      0x00\n        /* \"#utility.yul\":11666:11669   */\n      0xe0\n        /* \"#utility.yul\":11655:11664   */\n      dup3\n        /* \"#utility.yul\":11651:11670   */\n      add\n        /* \"#utility.yul\":11643:11670   */\n      swap1\n      pop\n        /* \"#utility.yul\":11680:11751   */\n      tag_281\n        /* \"#utility.yul\":11748:11749   */\n      0x00\n        /* \"#utility.yul\":11737:11746   */\n      dup4\n        /* \"#utility.yul\":11733:11750   */\n      add\n        /* \"#utility.yul\":11724:11730   */\n      dup11\n        /* \"#utility.yul\":11680:11751   */\n      tag_133\n      jump\t// in\n    tag_281:\n        /* \"#utility.yul\":11798:11807   */\n      dup2\n        /* \"#utility.yul\":11792:11796   */\n      dup2\n        /* \"#utility.yul\":11788:11808   */\n      sub\n        /* \"#utility.yul\":11783:11785   */\n      0x20\n        /* \"#utility.yul\":11772:11781   */\n      dup4\n        /* \"#utility.yul\":11768:11786   */\n      add\n        /* \"#utility.yul\":11761:11809   */\n      mstore\n        /* \"#utility.yul\":11826:11904   */\n      tag_282\n        /* \"#utility.yul\":11899:11903   */\n      dup2\n        /* \"#utility.yul\":11890:11896   */\n      dup10\n        /* \"#utility.yul\":11826:11904   */\n      tag_135\n      jump\t// in\n    tag_282:\n        /* \"#utility.yul\":11818:11904   */\n      swap1\n      pop\n        /* \"#utility.yul\":11951:11960   */\n      dup2\n        /* \"#utility.yul\":11945:11949   */\n      dup2\n        /* \"#utility.yul\":11941:11961   */\n      sub\n        /* \"#utility.yul\":11936:11938   */\n      0x40\n        /* \"#utility.yul\":11925:11934   */\n      dup4\n        /* \"#utility.yul\":11921:11939   */\n      add\n        /* \"#utility.yul\":11914:11962   */\n      mstore\n        /* \"#utility.yul\":11979:12057   */\n      tag_283\n        /* \"#utility.yul\":12052:12056   */\n      dup2\n        /* \"#utility.yul\":12043:12049   */\n      dup9\n        /* \"#utility.yul\":11979:12057   */\n      tag_135\n      jump\t// in\n    tag_283:\n        /* \"#utility.yul\":11971:12057   */\n      swap1\n      pop\n        /* \"#utility.yul\":12067:12139   */\n      tag_284\n        /* \"#utility.yul\":12135:12137   */\n      0x60\n        /* \"#utility.yul\":12124:12133   */\n      dup4\n        /* \"#utility.yul\":12120:12138   */\n      add\n        /* \"#utility.yul\":12111:12117   */\n      dup8\n        /* \"#utility.yul\":12067:12139   */\n      tag_133\n      jump\t// in\n    tag_284:\n        /* \"#utility.yul\":12149:12238   */\n      tag_285\n        /* \"#utility.yul\":12233:12236   */\n      0x80\n        /* \"#utility.yul\":12222:12231   */\n      dup4\n        /* \"#utility.yul\":12218:12237   */\n      add\n        /* \"#utility.yul\":12209:12215   */\n      dup7\n        /* \"#utility.yul\":12149:12238   */\n      tag_136\n      jump\t// in\n    tag_285:\n        /* \"#utility.yul\":12248:12321   */\n      tag_286\n        /* \"#utility.yul\":12316:12319   */\n      0xa0\n        /* \"#utility.yul\":12305:12314   */\n      dup4\n        /* \"#utility.yul\":12301:12320   */\n      add\n        /* \"#utility.yul\":12292:12298   */\n      dup6\n        /* \"#utility.yul\":12248:12321   */\n      tag_137\n      jump\t// in\n    tag_286:\n        /* \"#utility.yul\":12331:12398   */\n      tag_287\n        /* \"#utility.yul\":12393:12396   */\n      0xc0\n        /* \"#utility.yul\":12382:12391   */\n      dup4\n        /* \"#utility.yul\":12378:12397   */\n      add\n        /* \"#utility.yul\":12369:12375   */\n      dup5\n        /* \"#utility.yul\":12331:12398   */\n      tag_138\n      jump\t// in\n    tag_287:\n        /* \"#utility.yul\":11317:12405   */\n      swap9\n      swap8\n      pop\n      pop\n      pop\n      pop\n      pop\n      pop\n      pop\n      pop\n      jump\t// out\n        /* \"#utility.yul\":12411:12583   */\n    tag_139:\n        /* \"#utility.yul\":12551:12575   */\n      0x5072696365206d75737420626520706f73697469766500000000000000000000\n        /* \"#utility.yul\":12547:12548   */\n      0x00\n        /* \"#utility.yul\":12539:12545   */\n      dup3\n        /* \"#utility.yul\":12535:12549   */\n      add\n        /* \"#utility.yul\":12528:12576   */\n      mstore\n        /* \"#utility.yul\":12411:12583   */\n      pop\n      jump\t// out\n        /* \"#utility.yul\":12589:12955   */\n    tag_140:\n        /* \"#utility.yul\":12731:12734   */\n      0x00\n        /* \"#utility.yul\":12752:12819   */\n      tag_290\n        /* \"#utility.yul\":12816:12818   */\n      0x16\n        /* \"#utility.yul\":12811:12814   */\n      dup4\n        /* \"#utility.yul\":12752:12819   */\n      tag_134\n      jump\t// in\n    tag_290:\n        /* \"#utility.yul\":12745:12819   */\n      swap2\n      pop\n        /* \"#utility.yul\":12828:12921   */\n      tag_291\n        /* \"#utility.yul\":12917:12920   */\n      dup3\n        /* \"#utility.yul\":12828:12921   */\n      tag_139\n      jump\t// in\n    tag_291:\n        /* \"#utility.yul\":12946:12948   */\n      0x20\n        /* \"#utility.yul\":12941:12944   */\n      dup3\n        /* \"#utility.yul\":12937:12949   */\n      add\n        /* \"#utility.yul\":12930:12949   */\n      swap1\n      pop\n        /* \"#utility.yul\":12589:12955   */\n      swap2\n      swap1\n      pop\n      jump\t// out\n        /* \"#utility.yul\":12961:13380   */\n    tag_35:\n        /* \"#utility.yul\":13127:13131   */\n      0x00\n        /* \"#utility.yul\":13165:13167   */\n      0x20\n        /* \"#utility.yul\":13154:13163   */\n      dup3\n        /* \"#utility.yul\":13150:13168   */\n      add\n        /* \"#utility.yul\":13142:13168   */\n      swap1\n      pop\n        /* \"#utility.yul\":13214:13223   */\n      dup2\n        /* \"#utility.yul\":13208:13212   */\n      dup2\n        /* \"#utility.yul\":13204:13224   */\n      sub\n        /* \"#utility.yul\":13200:13201   */\n      0x00\n        /* \"#utility.yul\":13189:13198   */\n      dup4\n        /* \"#utility.yul\":13185:13202   */\n      add\n        /* \"#utility.yul\":13178:13225   */\n      mstore\n        /* \"#utility.yul\":13242:13373   */\n      tag_293\n        /* \"#utility.yul\":13368:13372   */\n      dup2\n        /* \"#utility.yul\":13242:13373   */\n      tag_140\n      jump\t// in\n    tag_293:\n        /* \"#utility.yul\":13234:13373   */\n      swap1\n      pop\n        /* \"#utility.yul\":12961:13380   */\n      swap2\n      swap1\n      pop\n      jump\t// out\n        /* \"#utility.yul\":13386:13566   */\n    tag_141:\n        /* \"#utility.yul\":13434:13511   */\n      0x4e487b7100000000000000000000000000000000000000000000000000000000\n        /* \"#utility.yul\":13431:13432   */\n      0x00\n        /* \"#utility.yul\":13424:13512   */\n      mstore\n        /* \"#utility.yul\":13531:13535   */\n      0x11\n        /* \"#utility.yul\":13528:13529   */\n      0x04\n        /* \"#utility.yul\":13521:13536   */\n      mstore\n        /* \"#utility.yul\":13555:13559   */\n      0x24\n        /* \"#utility.yul\":13552:13553   */\n      0x00\n        /* \"#utility.yul\":13545:13560   */\n      revert\n        /* \"#utility.yul\":13572:13805   */\n    tag_37:\n        /* \"#utility.yul\":13611:13614   */\n      0x00\n        /* \"#utility.yul\":13634:13658   */\n      tag_296\n        /* \"#utility.yul\":13652:13657   */\n      dup3\n        /* \"#utility.yul\":13634:13658   */\n      tag_111\n      jump\t// in\n    tag_296:\n        /* \"#utility.yul\":13625:13658   */\n      swap2\n      pop\n        /* \"#utility.yul\":13680:13746   */\n      0xffffffffffffffffffffffffffffffffffffffffffffffffffffffffffffffff\n        /* \"#utility.yul\":13673:13678   */\n      dup3\n        /* \"#utility.yul\":13670:13747   */\n      sub\n        /* \"#utility.yul\":13667:13770   */\n      tag_297\n      jumpi\n        /* \"#utility.yul\":13750:13768   */\n      tag_298\n      tag_141\n      jump\t// in\n    tag_298:\n        /* \"#utility.yul\":13667:13770   */\n    tag_297:\n        /* \"#utility.yul\":13797:13798   */\n      0x01\n        /* \"#utility.yul\":13790:13795   */\n      dup3\n        /* \"#utility.yul\":13786:13799   */\n      add\n        /* \"#utility.yul\":13779:13799   */\n      swap1\n      pop\n        /* \"#utility.yul\":13572:13805   */\n      swap2\n      swap1\n      pop\n      jump\t// out\n        /* \"#utility.yul\":13811:13991   */\n    tag_142:\n        /* \"#utility.yul\":13859:13936   */\n      0x4e487b7100000000000000000000000000000000000000000000000000000000\n        /* \"#utility.yul\":13856:13857   */\n      0x00\n        /* \"#utility.yul\":13849:13937   */\n      mstore\n        /* \"#utility.yul\":13956:13960   */\n      0x22\n        /* \"#utility.yul\":13953:13954   */\n      0x04\n        /* \"#utility.yul\":13946:13961   */\n      mstore\n        /* \"#utility.yul\":13980:13984   */\n      0x24\n        /* \"#utility.yul\":13977:13978   */\n      0x00\n        /* \"#utility.yul\":13970:13985   */\n      revert\n        /* \"#utility.yul\":13997:14317   */\n    tag_55:\n        /* \"#utility.yul\":14041:14047   */\n      0x00\n        /* \"#utility.yul\":14078:14079   */\n      0x02\n        /* \"#utility.yul\":14072:14076   */\n      dup3\n        /* \"#utility.yul\":14068:14080   */\n      div\n        /* \"#utility.yul\":14058:14080   */\n      swap1\n      pop\n        /* \"#utility.yul\":14125:14126   */\n      0x01\n        /* \"#utility.yul\":14119:14123   */\n      dup3\n        /* \"#utility.yul\":14115:14127   */\n      and\n        /* \"#utility.yul\":14146:14164   */\n      dup1\n        /* \"#utility.yul\":14136:14217   */\n      tag_301\n      jumpi\n        /* \"#utility.yul\":14202:14206   */\n      0x7f\n        /* \"#utility.yul\":14194:14200   */\n      dup3\n        /* \"#utility.yul\":14190:14207   */\n      and\n        /* \"#utility.yul\":14180:14207   */\n      swap2\n      pop\n        /* \"#utility.yul\":14136:14217   */\n    tag_301:\n        /* \"#utility.yul\":14264:14266   */\n      0x20\n        /* \"#utility.yul\":14256:14262   */\n      dup3\n        /* \"#utility.yul\":14253:14267   */\n      lt\n        /* \"#utility.yul\":14233:14251   */\n      dup2\n        /* \"#utility.yul\":14230:14268   */\n      sub\n        /* \"#utility.yul\":14227:14311   */\n      tag_302\n      jumpi\n        /* \"#utility.yul\":14283:14301   */\n      tag_303\n      tag_142\n      jump\t// in\n    tag_303:\n        /* \"#utility.yul\":14227:14311   */\n    tag_302:\n        /* \"#utility.yul\":14048:14317   */\n      pop\n        /* \"#utility.yul\":13997:14317   */\n      swap2\n      swap1\n      pop\n      jump\t// out\n        /* \"#utility.yul\":14323:14464   */\n    tag_143:\n        /* \"#utility.yul\":14372:14376   */\n      0x00\n        /* \"#utility.yul\":14395:14398   */\n      dup2\n        /* \"#utility.yul\":14387:14398   */\n      swap1\n      pop\n        /* \"#utility.yul\":14418:14421   */\n      dup2\n        /* \"#utility.yul\":14415:14416   */\n      0x00\n        /* \"#utility.yul\":14408:14422   */\n      mstore\n        /* \"#utility.yul\":14452:14456   */\n      0x20\n        /* \"#utility.yul\":14449:14450   */\n      0x00\n        /* \"#utility.yul\":14439:14457   */\n      keccak256\n        /* \"#utility.yul\":14431:14457   */\n      swap1\n      pop\n        /* \"#utility.yul\":14323:14464   */\n      swap2\n      swap1\n      pop\n      jump\t// out\n        /* \"#utility.yul\":14470:14563   */\n    tag_144:\n        /* \"#utility.yul\":14507:14513   */\n      0x00\n        /* \"#utility.yul\":14554:14556   */\n      0x20\n        /* \"#utility.yul\":14549:14551   */\n      0x1f\n        /* \"#utility.yul\":14542:14547   */\n      dup4\n        /* \"#utility.yul\":14538:14552   */\n      add\n        /* \"#utility.yul\":14534:14557   */\n      div\n        /* \"#utility.yul\":14524:14557   */\n      swap1\n      pop\n        /* \"#utility.yul\":14470:14563   */\n      swap2\n      swap1\n      pop\n      jump\t// out\n        /* \"#utility.yul\":14569:14676   */\n    tag_145:\n        /* \"#utility.yul\":14613:14621   */\n      0x00\n        /* \"#utility.yul\":14663:14668   */\n      dup3\n        /* \"#utility.yul\":14657:14661   */\n      dup3\n        /* \"#utility.yul\":14653:14669   */\n      shl\n        /* \"#utility.yul\":14632:14669   */\n      swap1\n      pop\n        /* \"#utility.yul\":14569:14676   */\n      swap3\n      swap2\n      pop\n      pop\n      jump\t// out\n        /* \"#utility.yul\":14682:15075   */\n    tag_146:\n        /* \"#utility.yul\":14751:14757   */\n      0x00\n        /* \"#utility.yul\":14801:14802   */\n      0x08\n        /* \"#utility.yul\":14789:14799   */\n      dup4\n        /* \"#utility.yul\":14785:14803   */\n      mul\n        /* \"#utility.yul\":14824:14921   */\n      tag_308\n        /* \"#utility.yul\":14854:14920   */\n      0xffffffffffffffffffffffffffffffffffffffffffffffffffffffffffffffff\n        /* \"#utility.yul\":14843:14852   */\n      dup3\n        /* \"#utility.yul\":14824:14921   */\n      tag_145\n      jump\t// in\n    tag_308:\n        /* \"#utility.yul\":14942:14981   */\n      tag_309\n        /* \"#utility.yul\":14972:14980   */\n      dup7\n        /* \"#utility.yul\":14961:14970   */\n      dup4\n        /* \"#utility.yul\":14942:14981   */\n      tag_145\n      jump\t// in\n    tag_309:\n        /* \"#utility.yul\":14930:14981   */\n      swap6\n      pop\n        /* \"#utility.yul\":15014:15018   */\n      dup1\n        /* \"#utility.yul\":15010:15019   */\n      not\n        /* \"#utility.yul\":15003:15008   */\n      dup5\n        /* \"#utility.yul\":14999:15020   */\n      and\n        /* \"#utility.yul\":14990:15020   */\n      swap4\n      pop\n        /* \"#utility.yul\":15063:15067   */\n      dup1\n        /* \"#utility.yul\":15053:15061   */\n      dup7\n        /* \"#utility.yul\":15049:15068   */\n      and\n        /* \"#utility.yul\":15042:15047   */\n      dup5\n        /* \"#utility.yul\":15039:15069   */\n      or\n        /* \"#utility.yul\":15029:15069   */\n      swap3\n      pop\n        /* \"#utility.yul\":14758:15075   */\n      pop\n      pop\n        /* \"#utility.yul\":14682:15075   */\n      swap4\n      swap3\n      pop\n      pop\n      pop\n      jump\t// out\n        /* \"#utility.yul\":15081:15141   */\n    tag_147:\n        /* \"#utility.yul\":15109:15112   */\n      0x00\n        /* \"#utility.yul\":15130:15135   */\n      dup2\n        /* \"#utility.yul\":15123:15135   */\n      swap1\n      pop\n        /* \"#utility.yul\":15081:15141   */\n      swap2\n      swap1\n      pop\n      jump\t// out\n        /* \"#utility.yul\":15147:15289   */\n    tag_148:\n        /* \"#utility.yul\":15197:15206   */\n      0x00\n        /* \"#utility.yul\":15230:15283   */\n      tag_312\n        /* \"#utility.yul\":15248:15282   */\n      tag_313\n        /* \"#utility.yul\":15257:15281   */\n      tag_314\n        /* \"#utility.yul\":15275:15280   */\n      dup5\n        /* \"#utility.yul\":15257:15281   */\n      tag_111\n      jump\t// in\n    tag_314:\n        /* \"#utility.yul\":15248:15282   */\n      tag_147\n      jump\t// in\n    tag_313:\n        /* \"#utility.yul\":15230:15283   */\n      tag_111\n      jump\t// in\n    tag_312:\n        /* \"#utility.yul\":15217:15283   */\n      swap1\n      pop\n        /* \"#utility.yul\":15147:15289   */\n      swap2\n      swap1\n      pop\n      jump\t// out\n        /* \"#utility.yul\":15295:15370   */\n    tag_149:\n        /* \"#utility.yul\":15338:15341   */\n      0x00\n        /* \"#utility.yul\":15359:15364   */\n      dup2\n        /* \"#utility.yul\":15352:15364   */\n      swap1\n      pop\n        /* \"#utility.yul\":15295:15370   */\n      swap2\n      swap1\n      pop\n      jump\t// out\n        /* \"#utility.yul\":15376:15645   */\n    tag_150:\n        /* \"#utility.yul\":15486:15525   */\n      tag_317\n        /* \"#utility.yul\":15517:15524   */\n      dup4\n        /* \"#utility.yul\":15486:15525   */\n      tag_148\n      jump\t// in\n    tag_317:\n        /* \"#utility.yul\":15547:15638   */\n      tag_318\n        /* \"#utility.yul\":15596:15637   */\n      tag_319\n        /* \"#utility.yul\":15620:15636   */\n      dup3\n        /* \"#utility.yul\":15596:15637   */\n      tag_149\n      jump\t// in\n    tag_319:\n        /* \"#utility.yul\":15588:15594   */\n      dup5\n        /* \"#utility.yul\":15581:15585   */\n      dup5\n        /* \"#utility.yul\":15575:15586   */\n      sload\n        /* \"#utility.yul\":15547:15638   */\n      tag_146\n      jump\t// in\n    tag_318:\n        /* \"#utility.yul\":15541:15545   */\n      dup3\n        /* \"#utility.yul\":15534:15639   */\n      sstore\n        /* \"#utility.yul\":15452:15645   */\n      pop\n        /* \"#utility.yul\":15376:15645   */\n      pop\n      pop\n      pop\n      jump\t// out\n        /* \"#utility.yul\":15651:15724   */\n    tag_151:\n        /* \"#utility.yul\":15696:15699   */\n      0x00\n        /* \"#utility.yul\":15651:15724   */\n      swap1\n      jump\t// out\n        /* \"#utility.yul\":15730:15919   */\n    tag_152:\n        /* \"#utility.yul\":15807:15839   */\n      tag_322\n      tag_151\n      jump\t// in\n    tag_322:\n        /* \"#utility.yul\":15848:15913   */\n      tag_323\n        /* \"#utility.yul\":15906:15912   */\n      dup2\n        /* \"#utility.yul\":15898:15904   */\n      dup5\n        /* \"#utility.yul\":15892:15896   */\n      dup5\n        /* \"#utility.yul\":15848:15913   */\n      tag_150\n      jump\t// in\n    tag_323:\n        /* \"#utility.yul\":15783:15919   */\n      pop\n        /* \"#utility.yul\":15730:15919   */\n      pop\n      pop\n      jump\t// out\n        /* \"#utility.yul\":15925:16111   */\n    tag_153:\n        /* \"#utility.yul\":15985:16105   */\n    tag_325:\n        /* \"#utility.yul\":16002:16005   */\n      dup2\n        /* \"#utility.yul\":15995:16000   */\n      dup2\n        /* \"#utility.yul\":15992:16006   */\n      lt\n        /* \"#utility.yul\":15985:16105   */\n      iszero\n      tag_327\n      jumpi\n        /* \"#utility.yul\":16056:16095   */\n      tag_328\n        /* \"#utility.yul\":16093:16094   */\n      0x00\n        /* \"#utility.yul\":16086:16091   */\n      dup3\n        /* \"#utility.yul\":16056:16095   */\n      tag_152\n      jump\t// in\n    tag_328:\n        /* \"#utility.yul\":16029:16030   */\n      0x01\n        /* \"#utility.yul\":16022:16027   */\n      dup2\n        /* \"#utility.yul\":16018:16031   */\n      add\n        /* \"#utility.yul\":16009:16031   */\n      swap1\n      pop\n        /* \"#utility.yul\":15985:16105   */\n      jump(tag_325)\n    tag_327:\n        /* \"#utility.yul\":15925:16111   */\n      pop\n      pop\n      jump\t// out\n        /* \"#utility.yul\":16117:16660   */\n    tag_154:\n        /* \"#utility.yul\":16218:16220   */\n      0x1f\n        /* \"#utility.yul\":16213:16216   */\n      dup3\n        /* \"#utility.yul\":16210:16221   */\n      gt\n        /* \"#utility.yul\":16207:16653   */\n      iszero\n      tag_330\n      jumpi\n        /* \"#utility.yul\":16252:16290   */\n      tag_331\n        /* \"#utility.yul\":16284:16289   */\n      dup2\n        /* \"#utility.yul\":16252:16290   */\n      tag_143\n      jump\t// in\n    tag_331:\n        /* \"#utility.yul\":16336:16365   */\n      tag_332\n        /* \"#utility.yul\":16354:16364   */\n      dup5\n        /* \"#utility.yul\":16336:16365   */\n      tag_144\n      jump\t// in\n    tag_332:\n        /* \"#utility.yul\":16326:16334   */\n      dup2\n        /* \"#utility.yul\":16322:16366   */\n      add\n        /* \"#utility.yul\":16519:16521   */\n      0x20\n        /* \"#utility.yul\":16507:16517   */\n      dup6\n        /* \"#utility.yul\":16504:16522   */\n      lt\n        /* \"#utility.yul\":16501:16550   */\n      iszero\n      tag_333\n      jumpi\n        /* \"#utility.yul\":16540:16548   */\n      dup2\n        /* \"#utility.yul\":16525:16548   */\n      swap1\n      pop\n        /* \"#utility.yul\":16501:16550   */\n    tag_333:\n        /* \"#utility.yul\":16563:16643   */\n      tag_334\n        /* \"#utility.yul\":16619:16641   */\n      tag_335\n        /* \"#utility.yul\":16637:16640   */\n      dup6\n        /* \"#utility.yul\":16619:16641   */\n      tag_144\n      jump\t// in\n    tag_335:\n        /* \"#utility.yul\":16609:16617   */\n      dup4\n        /* \"#utility.yul\":16605:16642   */\n      add\n        /* \"#utility.yul\":16592:16603   */\n      dup3\n        /* \"#utility.yul\":16563:16643   */\n      tag_153\n      jump\t// in\n    tag_334:\n        /* \"#utility.yul\":16222:16653   */\n      pop\n      pop\n        /* \"#utility.yul\":16207:16653   */\n    tag_330:\n        /* \"#utility.yul\":16117:16660   */\n      pop\n      pop\n      pop\n      jump\t// out\n        /* \"#utility.yul\":16666:16783   */\n    tag_155:\n        /* \"#utility.yul\":16720:16728   */\n      0x00\n        /* \"#utility.yul\":16770:16775   */\n      dup3\n        /* \"#utility.yul\":16764:16768   */\n      dup3\n        /* \"#utility.yul\":16760:16776   */\n      shr\n        /* \"#utility.yul\":16739:16776   */\n      swap1\n      pop\n        /* \"#utility.yul\":16666:16783   */\n      swap3\n      swap2\n      pop\n      pop\n      jump\t// out\n        /* \"#utility.yul\":16789:16958   */\n    tag_156:\n        /* \"#utility.yul\":16833:16839   */\n      0x00\n        /* \"#utility.yul\":16866:16917   */\n      tag_338\n        /* \"#utility.yul\":16914:16915   */\n      0x00\n        /* \"#utility.yul\":16910:16916   */\n      not\n        /* \"#utility.yul\":16902:16907   */\n      dup5\n        /* \"#utility.yul\":16899:16900   */\n      0x08\n        /* \"#utility.yul\":16895:16908   */\n      mul\n        /* \"#utility.yul\":16866:16917   */\n      tag_155\n      jump\t// in\n    tag_338:\n        /* \"#utility.yul\":16862:16918   */\n      not\n        /* \"#utility.yul\":16947:16951   */\n      dup1\n        /* \"#utility.yul\":16941:16945   */\n      dup4\n        /* \"#utility.yul\":16937:16952   */\n      and\n        /* \"#utility.yul\":16927:16952   */\n      swap2\n      pop\n        /* \"#utility.yul\":16840:16958   */\n      pop\n        /* \"#utility.yul\":16789:16958   */\n      swap3\n      swap2\n      pop\n      pop\n      jump\t// out\n        /* \"#utility.yul\":16963:17258   */\n    tag_157:\n        /* \"#utility.yul\":17039:17043   */\n      0x00\n        /* \"#utility.yul\":17185:17214   */\n      tag_340\n        /* \"#utility.yul\":17210:17213   */\n      dup4\n        /* \"#utility.yul\":17204:17208   */\n      dup4\n        /* \"#utility.yul\":17185:17214   */\n      tag_156\n      jump\t// in\n    tag_340:\n        /* \"#utility.yul\":17177:17214   */\n      swap2\n      pop\n        /* \"#utility.yul\":17247:17250   */\n      dup3\n        /* \"#utility.yul\":17244:17245   */\n      0x02\n        /* \"#utility.yul\":17240:17251   */\n      mul\n        /* \"#utility.yul\":17234:17238   */\n      dup3\n        /* \"#utility.yul\":17231:17252   */\n      or\n        /* \"#utility.yul\":17223:17252   */\n      swap1\n      pop\n        /* \"#utility.yul\":16963:17258   */\n      swap3\n      swap2\n      pop\n      pop\n      jump\t// out\n        /* \"#utility.yul\":17263:18658   */\n    tag_39:\n        /* \"#utility.yul\":17380:17417   */\n      tag_342\n        /* \"#utility.yul\":17413:17416   */\n      dup3\n        /* \"#utility.yul\":17380:17417   */\n      tag_118\n      jump\t// in\n    tag_342:\n        /* \"#utility.yul\":17482:17500   */\n      0xffffffffffffffff\n        /* \"#utility.yul\":17474:17480   */\n      dup2\n        /* \"#utility.yul\":17471:17501   */\n      gt\n        /* \"#utility.yul\":17468:17524   */\n      iszero\n      tag_343\n      jumpi\n        /* \"#utility.yul\":17504:17522   */\n      tag_344\n      tag_46\n      jump\t// in\n    tag_344:\n        /* \"#utility.yul\":17468:17524   */\n    tag_343:\n        /* \"#utility.yul\":17548:17586   */\n      tag_345\n        /* \"#utility.yul\":17580:17584   */\n      dup3\n        /* \"#utility.yul\":17574:17585   */\n      sload\n        /* \"#utility.yul\":17548:17586   */\n      tag_55\n      jump\t// in\n    tag_345:\n        /* \"#utility.yul\":17633:17700   */\n      tag_346\n        /* \"#utility.yul\":17693:17699   */\n      dup3\n        /* \"#utility.yul\":17685:17691   */\n      dup3\n        /* \"#utility.yul\":17679:17683   */\n      dup6\n        /* \"#utility.yul\":17633:17700   */\n      tag_154\n      jump\t// in\n    tag_346:\n        /* \"#utility.yul\":17727:17728   */\n      0x00\n        /* \"#utility.yul\":17751:17755   */\n      0x20\n        /* \"#utility.yul\":17738:17755   */\n      swap1\n      pop\n        /* \"#utility.yul\":17783:17785   */\n      0x1f\n        /* \"#utility.yul\":17775:17781   */\n      dup4\n        /* \"#utility.yul\":17772:17786   */\n      gt\n        /* \"#utility.yul\":17800:17801   */\n      0x01\n        /* \"#utility.yul\":17795:18413   */\n      dup2\n      eq\n      tag_348\n      jumpi\n        /* \"#utility.yul\":18457:18458   */\n      0x00\n        /* \"#utility.yul\":18474:18480   */\n      dup5\n        /* \"#utility.yul\":18471:18548   */\n      iszero\n      tag_349\n      jumpi\n        /* \"#utility.yul\":18523:18532   */\n      dup3\n        /* \"#utility.yul\":18518:18521   */\n      dup8\n        /* \"#utility.yul\":18514:18533   */\n      add\n        /* \"#utility.yul\":18508:18534   */\n      mload\n        /* \"#utility.yul\":18499:18534   */\n      swap1\n      pop\n        /* \"#utility.yul\":18471:18548   */\n    tag_349:\n        /* \"#utility.yul\":18574:18641   */\n      tag_350\n        /* \"#utility.yul\":18634:18640   */\n      dup6\n        /* \"#utility.yul\":18627:18632   */\n      dup3\n        /* \"#utility.yul\":18574:18641   */\n      tag_157\n      jump\t// in\n    tag_350:\n        /* \"#utility.yul\":18568:18572   */\n      dup7\n        /* \"#utility.yul\":18561:18642   */\n      sstore\n        /* \"#utility.yul\":18430:18652   */\n      pop\n        /* \"#utility.yul\":17765:18652   */\n      jump(tag_347)\n        /* \"#utility.yul\":17795:18413   */\n    tag_348:\n        /* \"#utility.yul\":17847:17851   */\n      0x1f\n        /* \"#utility.yul\":17843:17852   */\n      not\n        /* \"#utility.yul\":17835:17841   */\n      dup5\n        /* \"#utility.yul\":17831:17853   */\n      and\n        /* \"#utility.yul\":17881:17918   */\n      tag_351\n        /* \"#utility.yul\":17913:17917   */\n      dup7\n        /* \"#utility.yul\":17881:17918   */\n      tag_143\n      jump\t// in\n    tag_351:\n        /* \"#utility.yul\":17940:17941   */\n      0x00\n        /* \"#utility.yul\":17954:18162   */\n    tag_352:\n        /* \"#utility.yul\":17968:17975   */\n      dup3\n        /* \"#utility.yul\":17965:17966   */\n      dup2\n        /* \"#utility.yul\":17962:17976   */\n      lt\n        /* \"#utility.yul\":17954:18162   */\n      iszero\n      tag_354\n      jumpi\n        /* \"#utility.yul\":18047:18056   */\n      dup5\n        /* \"#utility.yul\":18042:18045   */\n      dup10\n        /* \"#utility.yul\":18038:18057   */\n      add\n        /* \"#utility.yul\":18032:18058   */\n      mload\n        /* \"#utility.yul\":18024:18030   */\n      dup3\n        /* \"#utility.yul\":18017:18059   */\n      sstore\n        /* \"#utility.yul\":18098:18099   */\n      0x01\n        /* \"#utility.yul\":18090:18096   */\n      dup3\n        /* \"#utility.yul\":18086:18100   */\n      add\n        /* \"#utility.yul\":18076:18100   */\n      swap2\n      pop\n        /* \"#utility.yul\":18145:18147   */\n      0x20\n        /* \"#utility.yul\":18134:18143   */\n      dup6\n        /* \"#utility.yul\":18130:18148   */\n      add\n        /* \"#utility.yul\":18117:18148   */\n      swap5\n      pop\n        /* \"#utility.yul\":17991:17995   */\n      0x20\n        /* \"#utility.yul\":17988:17989   */\n      dup2\n        /* \"#utility.yul\":17984:17996   */\n      add\n        /* \"#utility.yul\":17979:17996   */\n      swap1\n      pop\n        /* \"#utility.yul\":17954:18162   */\n      jump(tag_352)\n    tag_354:\n        /* \"#utility.yul\":18190:18196   */\n      dup7\n        /* \"#utility.yul\":18181:18188   */\n      dup4\n        /* \"#utility.yul\":18178:18197   */\n      lt\n        /* \"#utility.yul\":18175:18354   */\n      iszero\n      tag_355\n      jumpi\n        /* \"#utility.yul\":18248:18257   */\n      dup5\n        /* \"#utility.yul\":18243:18246   */\n      dup10\n        /* \"#utility.yul\":18239:18258   */\n      add\n        /* \"#utility.yul\":18233:18259   */\n      mload\n        /* \"#utility.yul\":18291:18339   */\n      tag_356\n        /* \"#utility.yul\":18333:18337   */\n      0x1f\n        /* \"#utility.yul\":18325:18331   */\n      dup10\n        /* \"#utility.yul\":18321:18338   */\n      and\n        /* \"#utility.yul\":18310:18319   */\n      dup3\n        /* \"#utility.yul\":18291:18339   */\n      tag_156\n      jump\t// in\n    tag_356:\n        /* \"#utility.yul\":18283:18289   */\n      dup4\n        /* \"#utility.yul\":18276:18340   */\n      sstore\n        /* \"#utility.yul\":18198:18354   */\n      pop\n        /* \"#utility.yul\":18175:18354   */\n    tag_355:\n        /* \"#utility.yul\":18400:18401   */\n      0x01\n        /* \"#utility.yul\":18396:18397   */\n      0x02\n        /* \"#utility.yul\":18388:18394   */\n      dup9\n        /* \"#utility.yul\":18384:18398   */\n      mul\n        /* \"#utility.yul\":18380:18402   */\n      add\n        /* \"#utility.yul\":18374:18378   */\n      dup9\n        /* \"#utility.yul\":18367:18403   */\n      sstore\n        /* \"#utility.yul\":17802:18413   */\n      pop\n      pop\n      pop\n        /* \"#utility.yul\":17765:18652   */\n    tag_347:\n      pop\n        /* \"#utility.yul\":17355:18658   */\n      pop\n      pop\n      pop\n        /* \"#utility.yul\":17263:18658   */\n      pop\n      pop\n      jump\t// out\n        /* \"#utility.yul\":18664:19288   */\n    tag_42:\n        /* \"#utility.yul\":18853:18857   */\n      0x00\n        /* \"#utility.yul\":18891:18893   */\n      0x60\n        /* \"#utility.yul\":18880:18889   */\n      dup3\n        /* \"#utility.yul\":18876:18894   */\n      add\n        /* \"#utility.yul\":18868:18894   */\n      swap1\n      pop\n        /* \"#utility.yul\":18940:18949   */\n      dup2\n        /* \"#utility.yul\":18934:18938   */\n      dup2\n        /* \"#utility.yul\":18930:18950   */\n      sub\n        /* \"#utility.yul\":18926:18927   */\n      0x00\n        /* \"#utility.yul\":18915:18924   */\n      dup4\n        /* \"#utility.yul\":18911:18928   */\n      add\n        /* \"#utility.yul\":18904:18951   */\n      mstore\n        /* \"#utility.yul\":18968:19046   */\n      tag_358\n        /* \"#utility.yul\":19041:19045   */\n      dup2\n        /* \"#utility.yul\":19032:19038   */\n      dup7\n        /* \"#utility.yul\":18968:19046   */\n      tag_135\n      jump\t// in\n    tag_358:\n        /* \"#utility.yul\":18960:19046   */\n      swap1\n      pop\n        /* \"#utility.yul\":19093:19102   */\n      dup2\n        /* \"#utility.yul\":19087:19091   */\n      dup2\n        /* \"#utility.yul\":19083:19103   */\n      sub\n        /* \"#utility.yul\":19078:19080   */\n      0x20\n        /* \"#utility.yul\":19067:19076   */\n      dup4\n        /* \"#utility.yul\":19063:19081   */\n      add\n        /* \"#utility.yul\":19056:19104   */\n      mstore\n        /* \"#utility.yul\":19121:19199   */\n      tag_359\n        /* \"#utility.yul\":19194:19198   */\n      dup2\n        /* \"#utility.yul\":19185:19191   */\n      dup6\n        /* \"#utility.yul\":19121:19199   */\n      tag_135\n      jump\t// in\n    tag_359:\n        /* \"#utility.yul\":19113:19199   */\n      swap1\n      pop\n        /* \"#utility.yul\":19209:19281   */\n      tag_360\n        /* \"#utility.yul\":19277:19279   */\n      0x40\n        /* \"#utility.yul\":19266:19275   */\n      dup4\n        /* \"#utility.yul\":19262:19280   */\n      add\n        /* \"#utility.yul\":19253:19259   */\n      dup5\n        /* \"#utility.yul\":19209:19281   */\n      tag_133\n      jump\t// in\n    tag_360:\n        /* \"#utility.yul\":18664:19288   */\n      swap5\n      swap4\n      pop\n      pop\n      pop\n      pop\n      jump\t// out\n        /* \"#utility.yul\":19294:19488   */\n    tag_66:\n        /* \"#utility.yul\":19334:19338   */\n      0x00\n        /* \"#utility.yul\":19354:19374   */\n      tag_362\n        /* \"#utility.yul\":19372:19373   */\n      dup3\n        /* \"#utility.yul\":19354:19374   */\n      tag_111\n      jump\t// in\n    tag_362:\n        /* \"#utility.yul\":19349:19374   */\n      swap2\n      pop\n        /* \"#utility.yul\":19388:19408   */\n      tag_363\n        /* \"#utility.yul\":19406:19407   */\n      dup4\n        /* \"#utility.yul\":19388:19408   */\n      tag_111\n      jump\t// in\n    tag_363:\n        /* \"#utility.yul\":19383:19408   */\n      swap3\n      pop\n        /* \"#utility.yul\":19432:19433   */\n      dup3\n        /* \"#utility.yul\":19429:19430   */\n      dup3\n        /* \"#utility.yul\":19425:19434   */\n      sub\n        /* \"#utility.yul\":19417:19434   */\n      swap1\n      pop\n        /* \"#utility.yul\":19456:19457   */\n      dup2\n        /* \"#utility.yul\":19450:19454   */\n      dup2\n        /* \"#utility.yul\":19447:19458   */\n      gt\n        /* \"#utility.yul\":19444:19481   */\n      iszero\n      tag_364\n      jumpi\n        /* \"#utility.yul\":19461:19479   */\n      tag_365\n      tag_141\n      jump\t// in\n    tag_365:\n        /* \"#utility.yul\":19444:19481   */\n    tag_364:\n        /* \"#utility.yul\":19294:19488   */\n      swap3\n      swap2\n      pop\n      pop\n      jump\t// out\n        /* \"#utility.yul\":19494:19674   */\n    tag_69:\n        /* \"#utility.yul\":19542:19619   */\n      0x4e487b7100000000000000000000000000000000000000000000000000000000\n        /* \"#utility.yul\":19539:19540   */\n      0x00\n        /* \"#utility.yul\":19532:19620   */\n      mstore\n        /* \"#utility.yul\":19639:19643   */\n      0x32\n        /* \"#utility.yul\":19636:19637   */\n      0x04\n        /* \"#utility.yul\":19629:19644   */\n      mstore\n        /* \"#utility.yul\":19663:19667   */\n      0x24\n        /* \"#utility.yul\":19660:19661   */\n      0x00\n        /* \"#utility.yul\":19653:19668   */\n      revert\n        /* \"#utility.yul\":19680:19852   */\n    tag_158:\n        /* \"#utility.yul\":19820:19844   */\n      0x4974656d20494420646f6573206e6f7420657869737400000000000000000000\n        /* \"#utility.yul\":19816:19817   */\n      0x00\n        /* \"#utility.yul\":19808:19814   */\n      dup3\n        /* \"#utility.yul\":19804:19818   */\n      add\n        /* \"#utility.yul\":19797:19845   */\n      mstore\n        /* \"#utility.yul\":19680:19852   */\n      pop\n      jump\t// out\n        /* \"#utility.yul\":19858:20224   */\n    tag_159:\n        /* \"#utility.yul\":20000:20003   */\n      0x00\n        /* \"#utility.yul\":20021:20088   */\n      tag_369\n        /* \"#utility.yul\":20085:20087   */\n      0x16\n        /* \"#utility.yul\":20080:20083   */\n      dup4\n        /* \"#utility.yul\":20021:20088   */\n      tag_134\n      jump\t// in\n    tag_369:\n        /* \"#utility.yul\":20014:20088   */\n      swap2\n      pop\n        /* \"#utility.yul\":20097:20190   */\n      tag_370\n        /* \"#utility.yul\":20186:20189   */\n      dup3\n        /* \"#utility.yul\":20097:20190   */\n      tag_158\n      jump\t// in\n    tag_370:\n        /* \"#utility.yul\":20215:20217   */\n      0x20\n        /* \"#utility.yul\":20210:20213   */\n      dup3\n        /* \"#utility.yul\":20206:20218   */\n      add\n        /* \"#utility.yul\":20199:20218   */\n      swap1\n      pop\n        /* \"#utility.yul\":19858:20224   */\n      swap2\n      swap1\n      pop\n      jump\t// out\n        /* \"#utility.yul\":20230:20649   */\n    tag_85:\n        /* \"#utility.yul\":20396:20400   */\n      0x00\n        /* \"#utility.yul\":20434:20436   */\n      0x20\n        /* \"#utility.yul\":20423:20432   */\n      dup3\n        /* \"#utility.yul\":20419:20437   */\n      add\n        /* \"#utility.yul\":20411:20437   */\n      swap1\n      pop\n        /* \"#utility.yul\":20483:20492   */\n      dup2\n        /* \"#utility.yul\":20477:20481   */\n      dup2\n        /* \"#utility.yul\":20473:20493   */\n      sub\n        /* \"#utility.yul\":20469:20470   */\n      0x00\n        /* \"#utility.yul\":20458:20467   */\n      dup4\n        /* \"#utility.yul\":20454:20471   */\n      add\n        /* \"#utility.yul\":20447:20494   */\n      mstore\n        /* \"#utility.yul\":20511:20642   */\n      tag_372\n        /* \"#utility.yul\":20637:20641   */\n      dup2\n        /* \"#utility.yul\":20511:20642   */\n      tag_159\n      jump\t// in\n    tag_372:\n        /* \"#utility.yul\":20503:20642   */\n      swap1\n      pop\n        /* \"#utility.yul\":20230:20649   */\n      swap2\n      swap1\n      pop\n      jump\t// out\n        /* \"#utility.yul\":20655:20827   */\n    tag_160:\n        /* \"#utility.yul\":20795:20819   */\n      0x53656c6c65722063616e6e6f7420626520627579657200000000000000000000\n        /* \"#utility.yul\":20791:20792   */\n      0x00\n        /* \"#utility.yul\":20783:20789   */\n      dup3\n        /* \"#utility.yul\":20779:20793   */\n      add\n        /* \"#utility.yul\":20772:20820   */\n      mstore\n        /* \"#utility.yul\":20655:20827   */\n      pop\n      jump\t// out\n        /* \"#utility.yul\":20833:21199   */\n    tag_161:\n        /* \"#utility.yul\":20975:20978   */\n      0x00\n        /* \"#utility.yul\":20996:21063   */\n      tag_375\n        /* \"#utility.yul\":21060:21062   */\n      0x16\n        /* \"#utility.yul\":21055:21058   */\n      dup4\n        /* \"#utility.yul\":20996:21063   */\n      tag_134\n      jump\t// in\n    tag_375:\n        /* \"#utility.yul\":20989:21063   */\n      swap2\n      pop\n        /* \"#utility.yul\":21072:21165   */\n      tag_376\n        /* \"#utility.yul\":21161:21164   */\n      dup3\n        /* \"#utility.yul\":21072:21165   */\n      tag_160\n      jump\t// in\n    tag_376:\n        /* \"#utility.yul\":21190:21192   */\n      0x20\n        /* \"#utility.yul\":21185:21188   */\n      dup3\n        /* \"#utility.yul\":21181:21193   */\n      add\n        /* \"#utility.yul\":21174:21193   */\n      swap1\n      pop\n        /* \"#utility.yul\":20833:21199   */\n      swap2\n      swap1\n      pop\n      jump\t// out\n        /* \"#utility.yul\":21205:21624   */\n    tag_88:\n        /* \"#utility.yul\":21371:21375   */\n      0x00\n        /* \"#utility.yul\":21409:21411   */\n      0x20\n        /* \"#utility.yul\":21398:21407   */\n      dup3\n        /* \"#utility.yul\":21394:21412   */\n      add\n        /* \"#utility.yul\":21386:21412   */\n      swap1\n      pop\n        /* \"#utility.yul\":21458:21467   */\n      dup2\n        /* \"#utility.yul\":21452:21456   */\n      dup2\n        /* \"#utility.yul\":21448:21468   */\n      sub\n        /* \"#utility.yul\":21444:21445   */\n      0x00\n        /* \"#utility.yul\":21433:21442   */\n      dup4\n        /* \"#utility.yul\":21429:21446   */\n      add\n        /* \"#utility.yul\":21422:21469   */\n      mstore\n        /* \"#utility.yul\":21486:21617   */\n      tag_378\n        /* \"#utility.yul\":21612:21616   */\n      dup2\n        /* \"#utility.yul\":21486:21617   */\n      tag_161\n      jump\t// in\n    tag_378:\n        /* \"#utility.yul\":21478:21617   */\n      swap1\n      pop\n        /* \"#utility.yul\":21205:21624   */\n      swap2\n      swap1\n      pop\n      jump\t// out\n        /* \"#utility.yul\":21630:21795   */\n    tag_162:\n        /* \"#utility.yul\":21770:21787   */\n      0x496e636f72726563742076616c75650000000000000000000000000000000000\n        /* \"#utility.yul\":21766:21767   */\n      0x00\n        /* \"#utility.yul\":21758:21764   */\n      dup3\n        /* \"#utility.yul\":21754:21768   */\n      add\n        /* \"#utility.yul\":21747:21788   */\n      mstore\n        /* \"#utility.yul\":21630:21795   */\n      pop\n      jump\t// out\n        /* \"#utility.yul\":21801:22167   */\n    tag_163:\n        /* \"#utility.yul\":21943:21946   */\n      0x00\n        /* \"#utility.yul\":21964:22031   */\n      tag_381\n        /* \"#utility.yul\":22028:22030   */\n      0x0f\n        /* \"#utility.yul\":22023:22026   */\n      dup4\n        /* \"#utility.yul\":21964:22031   */\n      tag_134\n      jump\t// in\n    tag_381:\n        /* \"#utility.yul\":21957:22031   */\n      swap2\n      pop\n        /* \"#utility.yul\":22040:22133   */\n      tag_382\n        /* \"#utility.yul\":22129:22132   */\n      dup3\n        /* \"#utility.yul\":22040:22133   */\n      tag_162\n      jump\t// in\n    tag_382:\n        /* \"#utility.yul\":22158:22160   */\n      0x20\n        /* \"#utility.yul\":22153:22156   */\n      dup3\n        /* \"#utility.yul\":22149:22161   */\n      add\n        /* \"#utility.yul\":22142:22161   */\n      swap1\n      pop\n        /* \"#utility.yul\":21801:22167   */\n      swap2\n      swap1\n      pop\n      jump\t// out\n        /* \"#utility.yul\":22173:22592   */\n    tag_91:\n        /* \"#utility.yul\":22339:22343   */\n      0x00\n        /* \"#utility.yul\":22377:22379   */\n      0x20\n        /* \"#utility.yul\":22366:22375   */\n      dup3\n        /* \"#utility.yul\":22362:22380   */\n      add\n        /* \"#utility.yul\":22354:22380   */\n      swap1\n      pop\n        /* \"#utility.yul\":22426:22435   */\n      dup2\n        /* \"#utility.yul\":22420:22424   */\n      dup2\n        /* \"#utility.yul\":22416:22436   */\n      sub\n        /* \"#utility.yul\":22412:22413   */\n      0x00\n        /* \"#utility.yul\":22401:22410   */\n      dup4\n        /* \"#utility.yul\":22397:22414   */\n      add\n        /* \"#utility.yul\":22390:22437   */\n      mstore\n        /* \"#utility.yul\":22454:22585   */\n      tag_384\n        /* \"#utility.yul\":22580:22584   */\n      dup2\n        /* \"#utility.yul\":22454:22585   */\n      tag_163\n      jump\t// in\n    tag_384:\n        /* \"#utility.yul\":22446:22585   */\n      swap1\n      pop\n        /* \"#utility.yul\":22173:22592   */\n      swap2\n      swap1\n      pop\n      jump\t// out\n        /* \"#utility.yul\":22598:22765   */\n    tag_164:\n        /* \"#utility.yul\":22738:22757   */\n      0x4974656d20616c726561647920736f6c64000000000000000000000000000000\n        /* \"#utility.yul\":22734:22735   */\n      0x00\n        /* \"#utility.yul\":22726:22732   */\n      dup3\n        /* \"#utility.yul\":22722:22736   */\n      add\n        /* \"#utility.yul\":22715:22758   */\n      mstore\n        /* \"#utility.yul\":22598:22765   */\n      pop\n      jump\t// out\n        /* \"#utility.yul\":22771:23137   */\n    tag_165:\n        /* \"#utility.yul\":22913:22916   */\n      0x00\n        /* \"#utility.yul\":22934:23001   */\n      tag_387\n        /* \"#utility.yul\":22998:23000   */\n      0x11\n        /* \"#utility.yul\":22993:22996   */\n      dup4\n        /* \"#utility.yul\":22934:23001   */\n      tag_134\n      jump\t// in\n    tag_387:\n        /* \"#utility.yul\":22927:23001   */\n      swap2\n      pop\n        /* \"#utility.yul\":23010:23103   */\n      tag_388\n        /* \"#utility.yul\":23099:23102   */\n      dup3\n        /* \"#utility.yul\":23010:23103   */\n      tag_164\n      jump\t// in\n    tag_388:\n        /* \"#utility.yul\":23128:23130   */\n      0x20\n        /* \"#utility.yul\":23123:23126   */\n      dup3\n        /* \"#utility.yul\":23119:23131   */\n      add\n        /* \"#utility.yul\":23112:23131   */\n      swap1\n      pop\n        /* \"#utility.yul\":22771:23137   */\n      swap2\n      swap1\n      pop\n      jump\t// out\n        /* \"#utility.yul\":23143:23562   */\n    tag_94:\n        /* \"#utility.yul\":23309:23313   */\n      0x00\n        /* \"#utility.yul\":23347:23349   */\n      0x20\n        /* \"#utility.yul\":23336:23345   */\n      dup3\n        /* \"#utility.yul\":23332:23350   */\n      add\n        /* \"#utility.yul\":23324:23350   */\n      swap1\n      pop\n        /* \"#utility.yul\":23396:23405   */\n      dup2\n        /* \"#utility.yul\":23390:23394   */\n      dup2\n        /* \"#utility.yul\":23386:23406   */\n      sub\n        /* \"#utility.yul\":23382:23383   */\n      0x00\n        /* \"#utility.yul\":23371:23380   */\n      dup4\n        /* \"#utility.yul\":23367:23384   */\n      add\n        /* \"#utility.yul\":23360:23407   */\n      mstore\n        /* \"#utility.yul\":23424:23555   */\n      tag_390\n        /* \"#utility.yul\":23550:23554   */\n      dup2\n        /* \"#utility.yul\":23424:23555   */\n      tag_165\n      jump\t// in\n    tag_390:\n        /* \"#utility.yul\":23416:23555   */\n      swap1\n      pop\n        /* \"#utility.yul\":23143:23562   */\n      swap2\n      swap1\n      pop\n      jump\t// out\n        /* \"#utility.yul\":23592:24423   */\n    tag_166:\n        /* \"#utility.yul\":23677:23680   */\n      0x00\n        /* \"#utility.yul\":23714:23719   */\n      dup2\n        /* \"#utility.yul\":23708:23720   */\n      sload\n        /* \"#utility.yul\":23743:23779   */\n      tag_392\n        /* \"#utility.yul\":23769:23778   */\n      dup2\n        /* \"#utility.yul\":23743:23779   */\n      tag_55\n      jump\t// in\n    tag_392:\n        /* \"#utility.yul\":23795:23866   */\n      tag_393\n        /* \"#utility.yul\":23859:23865   */\n      dup2\n        /* \"#utility.yul\":23854:23857   */\n      dup7\n        /* \"#utility.yul\":23795:23866   */\n      tag_134\n      jump\t// in\n    tag_393:\n        /* \"#utility.yul\":23788:23866   */\n      swap5\n      pop\n        /* \"#utility.yul\":23897:23898   */\n      0x01\n        /* \"#utility.yul\":23886:23895   */\n      dup3\n        /* \"#utility.yul\":23882:23899   */\n      and\n        /* \"#utility.yul\":23913:23914   */\n      0x00\n        /* \"#utility.yul\":23908:24072   */\n      dup2\n      eq\n      tag_395\n      jumpi\n        /* \"#utility.yul\":24086:24087   */\n      0x01\n        /* \"#utility.yul\":24081:24417   */\n      dup2\n      eq\n      tag_396\n      jumpi\n        /* \"#utility.yul\":23875:24417   */\n      jump(tag_394)\n        /* \"#utility.yul\":23908:24072   */\n    tag_395:\n        /* \"#utility.yul\":23992:23996   */\n      0xff\n        /* \"#utility.yul\":23988:23997   */\n      not\n        /* \"#utility.yul\":23977:23986   */\n      dup4\n        /* \"#utility.yul\":23973:23998   */\n      and\n        /* \"#utility.yul\":23968:23971   */\n      dup7\n        /* \"#utility.yul\":23961:23999   */\n      mstore\n        /* \"#utility.yul\":24052:24058   */\n      dup2\n        /* \"#utility.yul\":24045:24059   */\n      iszero\n        /* \"#utility.yul\":24038:24060   */\n      iszero\n        /* \"#utility.yul\":24032:24036   */\n      0x20\n        /* \"#utility.yul\":24028:24061   */\n      mul\n        /* \"#utility.yul\":24023:24026   */\n      dup7\n        /* \"#utility.yul\":24019:24062   */\n      add\n        /* \"#utility.yul\":24012:24062   */\n      swap4\n      pop\n        /* \"#utility.yul\":23908:24072   */\n      jump(tag_394)\n        /* \"#utility.yul\":24081:24417   */\n    tag_396:\n        /* \"#utility.yul\":24148:24186   */\n      tag_397\n        /* \"#utility.yul\":24180:24185   */\n      dup6\n        /* \"#utility.yul\":24148:24186   */\n      tag_143\n      jump\t// in\n    tag_397:\n        /* \"#utility.yul\":24208:24209   */\n      0x00\n        /* \"#utility.yul\":24222:24376   */\n    tag_398:\n        /* \"#utility.yul\":24236:24242   */\n      dup4\n        /* \"#utility.yul\":24233:24234   */\n      dup2\n        /* \"#utility.yul\":24230:24243   */\n      lt\n        /* \"#utility.yul\":24222:24376   */\n      iszero\n      tag_400\n      jumpi\n        /* \"#utility.yul\":24310:24317   */\n      dup2\n        /* \"#utility.yul\":24304:24318   */\n      sload\n        /* \"#utility.yul\":24300:24301   */\n      dup2\n        /* \"#utility.yul\":24295:24298   */\n      dup10\n        /* \"#utility.yul\":24291:24302   */\n      add\n        /* \"#utility.yul\":24284:24319   */\n      mstore\n        /* \"#utility.yul\":24360:24361   */\n      0x01\n        /* \"#utility.yul\":24351:24358   */\n      dup3\n        /* \"#utility.yul\":24347:24362   */\n      add\n        /* \"#utility.yul\":24336:24362   */\n      swap2\n      pop\n        /* \"#utility.yul\":24258:24262   */\n      0x20\n        /* \"#utility.yul\":24255:24256   */\n      dup2\n        /* \"#utility.yul\":24251:24263   */\n      add\n        /* \"#utility.yul\":24246:24263   */\n      swap1\n      pop\n        /* \"#utility.yul\":24222:24376   */\n      jump(tag_398)\n    tag_400:\n        /* \"#utility.yul\":24405:24406   */\n      dup1\n        /* \"#utility.yul\":24400:24403   */\n      dup9\n        /* \"#utility.yul\":24396:24407   */\n      add\n        /* \"#utility.yul\":24389:24407   */\n      swap6\n      pop\n        /* \"#utility.yul\":24088:24417   */\n      pop\n      pop\n        /* \"#utility.yul\":23875:24417   */\n    tag_394:\n      pop\n        /* \"#utility.yul\":23681:24423   */\n      pop\n      pop\n        /* \"#utility.yul\":23592:24423   */\n      swap3\n      swap2\n      pop\n      pop\n      jump\t// out\n        /* \"#utility.yul\":24429:24846   */\n    tag_98:\n        /* \"#utility.yul\":24567:24571   */\n      0x00\n        /* \"#utility.yul\":24605:24607   */\n      0x40\n        /* \"#utility.yul\":24594:24603   */\n      dup3\n        /* \"#utility.yul\":24590:24608   */\n      add\n        /* \"#utility.yul\":24582:24608   */\n      swap1\n      pop\n        /* \"#utility.yul\":24654:24663   */\n      dup2\n        /* \"#utility.yul\":24648:24652   */\n      dup2\n        /* \"#utility.yul\":24644:24664   */\n      sub\n        /* \"#utility.yul\":24640:24641   */\n      0x00\n        /* \"#utility.yul\":24629:24638   */\n      dup4\n        /* \"#utility.yul\":24625:24642   */\n      add\n        /* \"#utility.yul\":24618:24665   */\n      mstore\n        /* \"#utility.yul\":24682:24757   */\n      tag_402\n        /* \"#utility.yul\":24752:24756   */\n      dup2\n        /* \"#utility.yul\":24743:24749   */\n      dup6\n        /* \"#utility.yul\":24682:24757   */\n      tag_166\n      jump\t// in\n    tag_402:\n        /* \"#utility.yul\":24674:24757   */\n      swap1\n      pop\n        /* \"#utility.yul\":24767:24839   */\n      tag_403\n        /* \"#utility.yul\":24835:24837   */\n      0x20\n        /* \"#utility.yul\":24824:24833   */\n      dup4\n        /* \"#utility.yul\":24820:24838   */\n      add\n        /* \"#utility.yul\":24811:24817   */\n      dup5\n        /* \"#utility.yul\":24767:24839   */\n      tag_133\n      jump\t// in\n    tag_403:\n        /* \"#utility.yul\":24429:24846   */\n      swap4\n      swap3\n      pop\n      pop\n      pop\n      jump\t// out\n\n    auxdata: 0xa26469706673582212207afd269c7aed3c4068275775997e62dbf29e517070a72b8ebaaafe0c6dadd11b64736f6c63430008190033\n}\n",
				"bytecode": {
					"linkReferences": {},
					"object": "6080604052348015600e575f80fd5b5061175d8061001c5f395ff3fe608060405260043610610049575f3560e01c80630562021c1461004d5780634ba1d6aa146100755780636bfb0d011461009f578063bfb231d2146100c9578063e7fb74c71461010b575b5f80fd5b348015610058575f80fd5b50610073600480360381019061006e9190610c62565b610127565b005b348015610080575f80fd5b50610089610339565b6040516100969190610f2d565b60405180910390f35b3480156100aa575f80fd5b506100b36105fa565b6040516100c09190610f5c565b60405180910390f35b3480156100d4575f80fd5b506100ef60048036038101906100ea9190610f75565b6105ff565b6040516101029796959493929190611015565b60405180910390f35b61012560048036038101906101209190610f75565b610794565b005b5f8111610169576040517f08c379a0000000000000000000000000000000000000000000000000000000008152600401610160906110da565b60405180910390fd5b5f8081548092919061017a90611125565b91905055506040518060e001604052805f5481526020018481526020018381526020018281526020013373ffffffffffffffffffffffffffffffffffffffff1681526020015f73ffffffffffffffffffffffffffffffffffffffff1681526020015f151581525060015f805481526020019081526020015f205f820151815f015560208201518160010190816102109190611366565b5060408201518160020190816102269190611366565b50606082015181600301556080820151816004015f6101000a81548173ffffffffffffffffffffffffffffffffffffffff021916908373ffffffffffffffffffffffffffffffffffffffff16021790555060a0820151816005015f6101000a81548173ffffffffffffffffffffffffffffffffffffffff021916908373ffffffffffffffffffffffffffffffffffffffff16021790555060c08201518160050160146101000a81548160ff0219169083151502179055509050503373ffffffffffffffffffffffffffffffffffffffff165f547f3ec1beb288b62a2e890402fe7f1b8ae6b2b57519029f47be4804a27fae2082c585858560405161032c93929190611435565b60405180910390a3505050565b60605f805467ffffffffffffffff81111561035757610356610b0b565b5b60405190808252806020026020018201604052801561039057816020015b61037d610a7c565b8152602001906001900390816103755790505b5090505f600190505b5f5481116105f25760015f8281526020019081526020015f206040518060e00160405290815f82015481526020016001820180546103d690611199565b80601f016020809104026020016040519081016040528092919081815260200182805461040290611199565b801561044d5780601f106104245761010080835404028352916020019161044d565b820191905f5260205f20905b81548152906001019060200180831161043057829003601f168201915b5050505050815260200160028201805461046690611199565b80601f016020809104026020016040519081016040528092919081815260200182805461049290611199565b80156104dd5780601f106104b4576101008083540402835291602001916104dd565b820191905f5260205f20905b8154815290600101906020018083116104c057829003601f168201915b5050505050815260200160038201548152602001600482015f9054906101000a900473ffffffffffffffffffffffffffffffffffffffff1673ffffffffffffffffffffffffffffffffffffffff1673ffffffffffffffffffffffffffffffffffffffff168152602001600582015f9054906101000a900473ffffffffffffffffffffffffffffffffffffffff1673ffffffffffffffffffffffffffffffffffffffff1673ffffffffffffffffffffffffffffffffffffffff1681526020016005820160149054906101000a900460ff161515151581525050826001836105c39190611478565b815181106105d4576105d36114ab565b5b602002602001018190525080806105ea90611125565b915050610399565b508091505090565b5f5481565b6001602052805f5260405f205f91509050805f01549080600101805461062490611199565b80601f016020809104026020016040519081016040528092919081815260200182805461065090611199565b801561069b5780601f106106725761010080835404028352916020019161069b565b820191905f5260205f20905b81548152906001019060200180831161067e57829003601f168201915b5050505050908060020180546106b090611199565b80601f01602080910402602001604051908101604052809291908181526020018280546106dc90611199565b80156107275780601f106106fe57610100808354040283529160200191610727565b820191905f5260205f20905b81548152906001019060200180831161070a57829003601f168201915b505050505090806003015490806004015f9054906101000a900473ffffffffffffffffffffffffffffffffffffffff1690806005015f9054906101000a900473ffffffffffffffffffffffffffffffffffffffff16908060050160149054906101000a900460ff16905087565b5f811180156107a457505f548111155b6107e3576040517f08c379a00000000000000000000000000000000000000000000000000000000081526004016107da90611522565b60405180910390fd5b5f60015f8381526020019081526020015f209050806004015f9054906101000a900473ffffffffffffffffffffffffffffffffffffffff1673ffffffffffffffffffffffffffffffffffffffff163373ffffffffffffffffffffffffffffffffffffffff1603610888576040517f08c379a000000000000000000000000000000000000000000000000000000000815260040161087f9061158a565b60405180910390fd5b806003015434146108ce576040517f08c379a00000000000000000000000000000000000000000000000000000000081526004016108c5906115f2565b60405180910390fd5b8060050160149054906101000a900460ff1615610920576040517f08c379a00000000000000000000000000000000000000000000000000000000081526004016109179061165a565b60405180910390fd5b806004015f9054906101000a900473ffffffffffffffffffffffffffffffffffffffff1673ffffffffffffffffffffffffffffffffffffffff166108fc3490811502906040515f60405180830381858888f19350505050158015610986573d5f803e3d5ffd5b5060018160050160146101000a81548160ff02191690831515021790555033816005015f6101000a81548173ffffffffffffffffffffffffffffffffffffffff021916908373ffffffffffffffffffffffffffffffffffffffff1602179055503373ffffffffffffffffffffffffffffffffffffffff16816004015f9054906101000a900473ffffffffffffffffffffffffffffffffffffffff1673ffffffffffffffffffffffffffffffffffffffff16837f3b8d931b3031f1db7027edc66b50d3430d54217ac726ca7688c2b779e5a90c1f846001018560030154604051610a709291906116f9565b60405180910390a45050565b6040518060e001604052805f815260200160608152602001606081526020015f81526020015f73ffffffffffffffffffffffffffffffffffffffff1681526020015f73ffffffffffffffffffffffffffffffffffffffff1681526020015f151581525090565b5f604051905090565b5f80fd5b5f80fd5b5f80fd5b5f80fd5b5f601f19601f8301169050919050565b7f4e487b71000000000000000000000000000000000000000000000000000000005f52604160045260245ffd5b610b4182610afb565b810181811067ffffffffffffffff82111715610b6057610b5f610b0b565b5b80604052505050565b5f610b72610ae2565b9050610b7e8282610b38565b919050565b5f67ffffffffffffffff821115610b9d57610b9c610b0b565b5b610ba682610afb565b9050602081019050919050565b828183375f83830152505050565b5f610bd3610bce84610b83565b610b69565b905082815260208101848484011115610bef57610bee610af7565b5b610bfa848285610bb3565b509392505050565b5f82601f830112610c1657610c15610af3565b5b8135610c26848260208601610bc1565b91505092915050565b5f819050919050565b610c4181610c2f565b8114610c4b575f80fd5b50565b5f81359050610c5c81610c38565b92915050565b5f805f60608486031215610c7957610c78610aeb565b5b5f84013567ffffffffffffffff811115610c9657610c95610aef565b5b610ca286828701610c02565b935050602084013567ffffffffffffffff811115610cc357610cc2610aef565b5b610ccf86828701610c02565b9250506040610ce086828701610c4e565b9150509250925092565b5f81519050919050565b5f82825260208201905092915050565b5f819050602082019050919050565b610d1c81610c2f565b82525050565b5f81519050919050565b5f82825260208201905092915050565b8281835e5f83830152505050565b5f610d5482610d22565b610d5e8185610d2c565b9350610d6e818560208601610d3c565b610d7781610afb565b840191505092915050565b5f73ffffffffffffffffffffffffffffffffffffffff82169050919050565b5f610dab82610d82565b9050919050565b610dbb81610da1565b82525050565b5f610dcb82610d82565b9050919050565b610ddb81610dc1565b82525050565b5f8115159050919050565b610df581610de1565b82525050565b5f60e083015f830151610e105f860182610d13565b5060208301518482036020860152610e288282610d4a565b91505060408301518482036040860152610e428282610d4a565b9150506060830151610e576060860182610d13565b506080830151610e6a6080860182610db2565b5060a0830151610e7d60a0860182610dd2565b5060c0830151610e9060c0860182610dec565b508091505092915050565b5f610ea68383610dfb565b905092915050565b5f602082019050919050565b5f610ec482610cea565b610ece8185610cf4565b935083602082028501610ee085610d04565b805f5b85811015610f1b5784840389528151610efc8582610e9b565b9450610f0783610eae565b925060208a01995050600181019050610ee3565b50829750879550505050505092915050565b5f6020820190508181035f830152610f458184610eba565b905092915050565b610f5681610c2f565b82525050565b5f602082019050610f6f5f830184610f4d565b92915050565b5f60208284031215610f8a57610f89610aeb565b5b5f610f9784828501610c4e565b91505092915050565b5f82825260208201905092915050565b5f610fba82610d22565b610fc48185610fa0565b9350610fd4818560208601610d3c565b610fdd81610afb565b840191505092915050565b610ff181610da1565b82525050565b61100081610dc1565b82525050565b61100f81610de1565b82525050565b5f60e0820190506110285f83018a610f4d565b818103602083015261103a8189610fb0565b9050818103604083015261104e8188610fb0565b905061105d6060830187610f4d565b61106a6080830186610fe8565b61107760a0830185610ff7565b61108460c0830184611006565b98975050505050505050565b7f5072696365206d75737420626520706f736974697665000000000000000000005f82015250565b5f6110c4601683610fa0565b91506110cf82611090565b602082019050919050565b5f6020820190508181035f8301526110f1816110b8565b9050919050565b7f4e487b71000000000000000000000000000000000000000000000000000000005f52601160045260245ffd5b5f61112f82610c2f565b91507fffffffffffffffffffffffffffffffffffffffffffffffffffffffffffffffff8203611161576111606110f8565b5b600182019050919050565b7f4e487b71000000000000000000000000000000000000000000000000000000005f52602260045260245ffd5b5f60028204905060018216806111b057607f821691505b6020821081036111c3576111c261116c565b5b50919050565b5f819050815f5260205f209050919050565b5f6020601f8301049050919050565b5f82821b905092915050565b5f600883026112257fffffffffffffffffffffffffffffffffffffffffffffffffffffffffffffffff826111ea565b61122f86836111ea565b95508019841693508086168417925050509392505050565b5f819050919050565b5f61126a61126561126084610c2f565b611247565b610c2f565b9050919050565b5f819050919050565b61128383611250565b61129761128f82611271565b8484546111f6565b825550505050565b5f90565b6112ab61129f565b6112b681848461127a565b505050565b5b818110156112d9576112ce5f826112a3565b6001810190506112bc565b5050565b601f82111561131e576112ef816111c9565b6112f8846111db565b81016020851015611307578190505b61131b611313856111db565b8301826112bb565b50505b505050565b5f82821c905092915050565b5f61133e5f1984600802611323565b1980831691505092915050565b5f611356838361132f565b9150826002028217905092915050565b61136f82610d22565b67ffffffffffffffff81111561138857611387610b0b565b5b6113928254611199565b61139d8282856112dd565b5f60209050601f8311600181146113ce575f84156113bc578287015190505b6113c6858261134b565b86555061142d565b601f1984166113dc866111c9565b5f5b82811015611403578489015182556001820191506020850194506020810190506113de565b86831015611420578489015161141c601f89168261132f565b8355505b6001600288020188555050505b505050505050565b5f6060820190508181035f83015261144d8186610fb0565b905081810360208301526114618185610fb0565b90506114706040830184610f4d565b949350505050565b5f61148282610c2f565b915061148d83610c2f565b92508282039050818111156114a5576114a46110f8565b5b92915050565b7f4e487b71000000000000000000000000000000000000000000000000000000005f52603260045260245ffd5b7f4974656d20494420646f6573206e6f74206578697374000000000000000000005f82015250565b5f61150c601683610fa0565b9150611517826114d8565b602082019050919050565b5f6020820190508181035f83015261153981611500565b9050919050565b7f53656c6c65722063616e6e6f74206265206275796572000000000000000000005f82015250565b5f611574601683610fa0565b915061157f82611540565b602082019050919050565b5f6020820190508181035f8301526115a181611568565b9050919050565b7f496e636f72726563742076616c756500000000000000000000000000000000005f82015250565b5f6115dc600f83610fa0565b91506115e7826115a8565b602082019050919050565b5f6020820190508181035f830152611609816115d0565b9050919050565b7f4974656d20616c726561647920736f6c640000000000000000000000000000005f82015250565b5f611644601183610fa0565b915061164f82611610565b602082019050919050565b5f6020820190508181035f83015261167181611638565b9050919050565b5f815461168481611199565b61168e8186610fa0565b9450600182165f81146116a857600181146116be576116f0565b60ff1983168652811515602002860193506116f0565b6116c7856111c9565b5f5b838110156116e8578154818901526001820191506020810190506116c9565b808801955050505b50505092915050565b5f6040820190508181035f8301526117118185611678565b90506117206020830184610f4d565b939250505056fea26469706673582212207afd269c7aed3c4068275775997e62dbf29e517070a72b8ebaaafe0c6dadd11b64736f6c63430008190033",
					"opcodes": "PUSH1 0x80 PUSH1 0x40 MSTORE CALLVALUE DUP1 ISZERO PUSH1 0xE JUMPI PUSH0 DUP1 REVERT JUMPDEST POP PUSH2 0x175D DUP1 PUSH2 0x1C PUSH0 CODECOPY PUSH0 RETURN INVALID PUSH1 0x80 PUSH1 0x40 MSTORE PUSH1 0x4 CALLDATASIZE LT PUSH2 0x49 JUMPI PUSH0 CALLDATALOAD PUSH1 0xE0 SHR DUP1 PUSH4 0x562021C EQ PUSH2 0x4D JUMPI DUP1 PUSH4 0x4BA1D6AA EQ PUSH2 0x75 JUMPI DUP1 PUSH4 0x6BFB0D01 EQ PUSH2 0x9F JUMPI DUP1 PUSH4 0xBFB231D2 EQ PUSH2 0xC9 JUMPI DUP1 PUSH4 0xE7FB74C7 EQ PUSH2 0x10B JUMPI JUMPDEST PUSH0 DUP1 REVERT JUMPDEST CALLVALUE DUP1 ISZERO PUSH2 0x58 JUMPI PUSH0 DUP1 REVERT JUMPDEST POP PUSH2 0x73 PUSH1 0x4 DUP1 CALLDATASIZE SUB DUP2 ADD SWAP1 PUSH2 0x6E SWAP2 SWAP1 PUSH2 0xC62 JUMP JUMPDEST PUSH2 0x127 JUMP JUMPDEST STOP JUMPDEST CALLVALUE DUP1 ISZERO PUSH2 0x80 JUMPI PUSH0 DUP1 REVERT JUMPDEST POP PUSH2 0x89 PUSH2 0x339 JUMP JUMPDEST PUSH1 0x40 MLOAD PUSH2 0x96 SWAP2 SWAP1 PUSH2 0xF2D JUMP JUMPDEST PUSH1 0x40 MLOAD DUP1 SWAP2 SUB SWAP1 RETURN JUMPDEST CALLVALUE DUP1 ISZERO PUSH2 0xAA JUMPI PUSH0 DUP1 REVERT JUMPDEST POP PUSH2 0xB3 PUSH2 0x5FA JUMP JUMPDEST PUSH1 0x40 MLOAD PUSH2 0xC0 SWAP2 SWAP1 PUSH2 0xF5C JUMP JUMPDEST PUSH1 0x40 MLOAD DUP1 SWAP2 SUB SWAP1 RETURN JUMPDEST CALLVALUE DUP1 ISZERO PUSH2 0xD4 JUMPI PUSH0 DUP1 REVERT JUMPDEST POP PUSH2 0xEF PUSH1 0x4 DUP1 CALLDATASIZE SUB DUP2 ADD SWAP1 PUSH2 0xEA SWAP2 SWAP1 PUSH2 0xF75 JUMP JUMPDEST PUSH2 0x5FF JUMP JUMPDEST PUSH1 0x40 MLOAD PUSH2 0x102 SWAP8 SWAP7 SWAP6 SWAP5 SWAP4 SWAP3 SWAP2 SWAP1 PUSH2 0x1015 JUMP JUMPDEST PUSH1 0x40 MLOAD DUP1 SWAP2 SUB SWAP1 RETURN JUMPDEST PUSH2 0x125 PUSH1 0x4 DUP1 CALLDATASIZE SUB DUP2 ADD SWAP1 PUSH2 0x120 SWAP2 SWAP1 PUSH2 0xF75 JUMP JUMPDEST PUSH2 0x794 JUMP JUMPDEST STOP JUMPDEST PUSH0 DUP2 GT PUSH2 0x169 JUMPI PUSH1 0x40 MLOAD PUSH32 0x8C379A000000000000000000000000000000000000000000000000000000000 DUP2 MSTORE PUSH1 0x4 ADD PUSH2 0x160 SWAP1 PUSH2 0x10DA JUMP JUMPDEST PUSH1 0x40 MLOAD DUP1 SWAP2 SUB SWAP1 REVERT JUMPDEST PUSH0 DUP1 DUP2 SLOAD DUP1 SWAP3 SWAP2 SWAP1 PUSH2 0x17A SWAP1 PUSH2 0x1125 JUMP JUMPDEST SWAP2 SWAP1 POP SSTORE POP PUSH1 0x40 MLOAD DUP1 PUSH1 0xE0 ADD PUSH1 0x40 MSTORE DUP1 PUSH0 SLOAD DUP2 MSTORE PUSH1 0x20 ADD DUP5 DUP2 MSTORE PUSH1 0x20 ADD DUP4 DUP2 MSTORE PUSH1 0x20 ADD DUP3 DUP2 MSTORE PUSH1 0x20 ADD CALLER PUSH20 0xFFFFFFFFFFFFFFFFFFFFFFFFFFFFFFFFFFFFFFFF AND DUP2 MSTORE PUSH1 0x20 ADD PUSH0 PUSH20 0xFFFFFFFFFFFFFFFFFFFFFFFFFFFFFFFFFFFFFFFF AND DUP2 MSTORE PUSH1 0x20 ADD PUSH0 ISZERO ISZERO DUP2 MSTORE POP PUSH1 0x1 PUSH0 DUP1 SLOAD DUP2 MSTORE PUSH1 0x20 ADD SWAP1 DUP2 MSTORE PUSH1 0x20 ADD PUSH0 KECCAK256 PUSH0 DUP3 ADD MLOAD DUP2 PUSH0 ADD SSTORE PUSH1 0x20 DUP3 ADD MLOAD DUP2 PUSH1 0x1 ADD SWAP1 DUP2 PUSH2 0x210 SWAP2 SWAP1 PUSH2 0x1366 JUMP JUMPDEST POP PUSH1 0x40 DUP3 ADD MLOAD DUP2 PUSH1 0x2 ADD SWAP1 DUP2 PUSH2 0x226 SWAP2 SWAP1 PUSH2 0x1366 JUMP JUMPDEST POP PUSH1 0x60 DUP3 ADD MLOAD DUP2 PUSH1 0x3 ADD SSTORE PUSH1 0x80 DUP3 ADD MLOAD DUP2 PUSH1 0x4 ADD PUSH0 PUSH2 0x100 EXP DUP2 SLOAD DUP2 PUSH20 0xFFFFFFFFFFFFFFFFFFFFFFFFFFFFFFFFFFFFFFFF MUL NOT AND SWAP1 DUP4 PUSH20 0xFFFFFFFFFFFFFFFFFFFFFFFFFFFFFFFFFFFFFFFF AND MUL OR SWAP1 SSTORE POP PUSH1 0xA0 DUP3 ADD MLOAD DUP2 PUSH1 0x5 ADD PUSH0 PUSH2 0x100 EXP DUP2 SLOAD DUP2 PUSH20 0xFFFFFFFFFFFFFFFFFFFFFFFFFFFFFFFFFFFFFFFF MUL NOT AND SWAP1 DUP4 PUSH20 0xFFFFFFFFFFFFFFFFFFFFFFFFFFFFFFFFFFFFFFFF AND MUL OR SWAP1 SSTORE POP PUSH1 0xC0 DUP3 ADD MLOAD DUP2 PUSH1 0x5 ADD PUSH1 0x14 PUSH2 0x100 EXP DUP2 SLOAD DUP2 PUSH1 0xFF MUL NOT AND SWAP1 DUP4 ISZERO ISZERO MUL OR SWAP1 SSTORE POP SWAP1 POP POP CALLER PUSH20 0xFFFFFFFFFFFFFFFFFFFFFFFFFFFFFFFFFFFFFFFF AND PUSH0 SLOAD PUSH32 0x3EC1BEB288B62A2E890402FE7F1B8AE6B2B57519029F47BE4804A27FAE2082C5 DUP6 DUP6 DUP6 PUSH1 0x40 MLOAD PUSH2 0x32C SWAP4 SWAP3 SWAP2 SWAP1 PUSH2 0x1435 JUMP JUMPDEST PUSH1 0x40 MLOAD DUP1 SWAP2 SUB SWAP1 LOG3 POP POP POP JUMP JUMPDEST PUSH1 0x60 PUSH0 DUP1 SLOAD PUSH8 0xFFFFFFFFFFFFFFFF DUP2 GT ISZERO PUSH2 0x357 JUMPI PUSH2 0x356 PUSH2 0xB0B JUMP JUMPDEST JUMPDEST PUSH1 0x40 MLOAD SWAP1 DUP1 DUP3 MSTORE DUP1 PUSH1 0x20 MUL PUSH1 0x20 ADD DUP3 ADD PUSH1 0x40 MSTORE DUP1 ISZERO PUSH2 0x390 JUMPI DUP2 PUSH1 0x20 ADD JUMPDEST PUSH2 0x37D PUSH2 0xA7C JUMP JUMPDEST DUP2 MSTORE PUSH1 0x20 ADD SWAP1 PUSH1 0x1 SWAP1 SUB SWAP1 DUP2 PUSH2 0x375 JUMPI SWAP1 POP JUMPDEST POP SWAP1 POP PUSH0 PUSH1 0x1 SWAP1 POP JUMPDEST PUSH0 SLOAD DUP2 GT PUSH2 0x5F2 JUMPI PUSH1 0x1 PUSH0 DUP3 DUP2 MSTORE PUSH1 0x20 ADD SWAP1 DUP2 MSTORE PUSH1 0x20 ADD PUSH0 KECCAK256 PUSH1 0x40 MLOAD DUP1 PUSH1 0xE0 ADD PUSH1 0x40 MSTORE SWAP1 DUP2 PUSH0 DUP3 ADD SLOAD DUP2 MSTORE PUSH1 0x20 ADD PUSH1 0x1 DUP3 ADD DUP1 SLOAD PUSH2 0x3D6 SWAP1 PUSH2 0x1199 JUMP JUMPDEST DUP1 PUSH1 0x1F ADD PUSH1 0x20 DUP1 SWAP2 DIV MUL PUSH1 0x20 ADD PUSH1 0x40 MLOAD SWAP1 DUP2 ADD PUSH1 0x40 MSTORE DUP1 SWAP3 SWAP2 SWAP1 DUP2 DUP2 MSTORE PUSH1 0x20 ADD DUP3 DUP1 SLOAD PUSH2 0x402 SWAP1 PUSH2 0x1199 JUMP JUMPDEST DUP1 ISZERO PUSH2 0x44D JUMPI DUP1 PUSH1 0x1F LT PUSH2 0x424 JUMPI PUSH2 0x100 DUP1 DUP4 SLOAD DIV MUL DUP4 MSTORE SWAP2 PUSH1 0x20 ADD SWAP2 PUSH2 0x44D JUMP JUMPDEST DUP3 ADD SWAP2 SWAP1 PUSH0 MSTORE PUSH1 0x20 PUSH0 KECCAK256 SWAP1 JUMPDEST DUP2 SLOAD DUP2 MSTORE SWAP1 PUSH1 0x1 ADD SWAP1 PUSH1 0x20 ADD DUP1 DUP4 GT PUSH2 0x430 JUMPI DUP3 SWAP1 SUB PUSH1 0x1F AND DUP3 ADD SWAP2 JUMPDEST POP POP POP POP POP DUP2 MSTORE PUSH1 0x20 ADD PUSH1 0x2 DUP3 ADD DUP1 SLOAD PUSH2 0x466 SWAP1 PUSH2 0x1199 JUMP JUMPDEST DUP1 PUSH1 0x1F ADD PUSH1 0x20 DUP1 SWAP2 DIV MUL PUSH1 0x20 ADD PUSH1 0x40 MLOAD SWAP1 DUP2 ADD PUSH1 0x40 MSTORE DUP1 SWAP3 SWAP2 SWAP1 DUP2 DUP2 MSTORE PUSH1 0x20 ADD DUP3 DUP1 SLOAD PUSH2 0x492 SWAP1 PUSH2 0x1199 JUMP JUMPDEST DUP1 ISZERO PUSH2 0x4DD JUMPI DUP1 PUSH1 0x1F LT PUSH2 0x4B4 JUMPI PUSH2 0x100 DUP1 DUP4 SLOAD DIV MUL DUP4 MSTORE SWAP2 PUSH1 0x20 ADD SWAP2 PUSH2 0x4DD JUMP JUMPDEST DUP3 ADD SWAP2 SWAP1 PUSH0 MSTORE PUSH1 0x20 PUSH0 KECCAK256 SWAP1 JUMPDEST DUP2 SLOAD DUP2 MSTORE SWAP1 PUSH1 0x1 ADD SWAP1 PUSH1 0x20 ADD DUP1 DUP4 GT PUSH2 0x4C0 JUMPI DUP3 SWAP1 SUB PUSH1 0x1F AND DUP3 ADD SWAP2 JUMPDEST POP POP POP POP POP DUP2 MSTORE PUSH1 0x20 ADD PUSH1 0x3 DUP3 ADD SLOAD DUP2 MSTORE PUSH1 0x20 ADD PUSH1 0x4 DUP3 ADD PUSH0 SWAP1 SLOAD SWAP1 PUSH2 0x100 EXP SWAP1 DIV PUSH20 0xFFFFFFFFFFFFFFFFFFFFFFFFFFFFFFFFFFFFFFFF AND PUSH20 0xFFFFFFFFFFFFFFFFFFFFFFFFFFFFFFFFFFFFFFFF AND PUSH20 0xFFFFFFFFFFFFFFFFFFFFFFFFFFFFFFFFFFFFFFFF AND DUP2 MSTORE PUSH1 0x20 ADD PUSH1 0x5 DUP3 ADD PUSH0 SWAP1 SLOAD SWAP1 PUSH2 0x100 EXP SWAP1 DIV PUSH20 0xFFFFFFFFFFFFFFFFFFFFFFFFFFFFFFFFFFFFFFFF AND PUSH20 0xFFFFFFFFFFFFFFFFFFFFFFFFFFFFFFFFFFFFFFFF AND PUSH20 0xFFFFFFFFFFFFFFFFFFFFFFFFFFFFFFFFFFFFFFFF AND DUP2 MSTORE PUSH1 0x20 ADD PUSH1 0x5 DUP3 ADD PUSH1 0x14 SWAP1 SLOAD SWAP1 PUSH2 0x100 EXP SWAP1 DIV PUSH1 0xFF AND ISZERO ISZERO ISZERO ISZERO DUP2 MSTORE POP POP DUP3 PUSH1 0x1 DUP4 PUSH2 0x5C3 SWAP2 SWAP1 PUSH2 0x1478 JUMP JUMPDEST DUP2 MLOAD DUP2 LT PUSH2 0x5D4 JUMPI PUSH2 0x5D3 PUSH2 0x14AB JUMP JUMPDEST JUMPDEST PUSH1 0x20 MUL PUSH1 0x20 ADD ADD DUP2 SWAP1 MSTORE POP DUP1 DUP1 PUSH2 0x5EA SWAP1 PUSH2 0x1125 JUMP JUMPDEST SWAP2 POP POP PUSH2 0x399 JUMP JUMPDEST POP DUP1 SWAP2 POP POP SWAP1 JUMP JUMPDEST PUSH0 SLOAD DUP2 JUMP JUMPDEST PUSH1 0x1 PUSH1 0x20 MSTORE DUP1 PUSH0 MSTORE PUSH1 0x40 PUSH0 KECCAK256 PUSH0 SWAP2 POP SWAP1 POP DUP1 PUSH0 ADD SLOAD SWAP1 DUP1 PUSH1 0x1 ADD DUP1 SLOAD PUSH2 0x624 SWAP1 PUSH2 0x1199 JUMP JUMPDEST DUP1 PUSH1 0x1F ADD PUSH1 0x20 DUP1 SWAP2 DIV MUL PUSH1 0x20 ADD PUSH1 0x40 MLOAD SWAP1 DUP2 ADD PUSH1 0x40 MSTORE DUP1 SWAP3 SWAP2 SWAP1 DUP2 DUP2 MSTORE PUSH1 0x20 ADD DUP3 DUP1 SLOAD PUSH2 0x650 SWAP1 PUSH2 0x1199 JUMP JUMPDEST DUP1 ISZERO PUSH2 0x69B JUMPI DUP1 PUSH1 0x1F LT PUSH2 0x672 JUMPI PUSH2 0x100 DUP1 DUP4 SLOAD DIV MUL DUP4 MSTORE SWAP2 PUSH1 0x20 ADD SWAP2 PUSH2 0x69B JUMP JUMPDEST DUP3 ADD SWAP2 SWAP1 PUSH0 MSTORE PUSH1 0x20 PUSH0 KECCAK256 SWAP1 JUMPDEST DUP2 SLOAD DUP2 MSTORE SWAP1 PUSH1 0x1 ADD SWAP1 PUSH1 0x20 ADD DUP1 DUP4 GT PUSH2 0x67E JUMPI DUP3 SWAP1 SUB PUSH1 0x1F AND DUP3 ADD SWAP2 JUMPDEST POP POP POP POP POP SWAP1 DUP1 PUSH1 0x2 ADD DUP1 SLOAD PUSH2 0x6B0 SWAP1 PUSH2 0x1199 JUMP JUMPDEST DUP1 PUSH1 0x1F ADD PUSH1 0x20 DUP1 SWAP2 DIV MUL PUSH1 0x20 ADD PUSH1 0x40 MLOAD SWAP1 DUP2 ADD PUSH1 0x40 MSTORE DUP1 SWAP3 SWAP2 SWAP1 DUP2 DUP2 MSTORE PUSH1 0x20 ADD DUP3 DUP1 SLOAD PUSH2 0x6DC SWAP1 PUSH2 0x1199 JUMP JUMPDEST DUP1 ISZERO PUSH2 0x727 JUMPI DUP1 PUSH1 0x1F LT PUSH2 0x6FE JUMPI PUSH2 0x100 DUP1 DUP4 SLOAD DIV MUL DUP4 MSTORE SWAP2 PUSH1 0x20 ADD SWAP2 PUSH2 0x727 JUMP JUMPDEST DUP3 ADD SWAP2 SWAP1 PUSH0 MSTORE PUSH1 0x20 PUSH0 KECCAK256 SWAP1 JUMPDEST DUP2 SLOAD DUP2 MSTORE SWAP1 PUSH1 0x1 ADD SWAP1 PUSH1 0x20 ADD DUP1 DUP4 GT PUSH2 0x70A JUMPI DUP3 SWAP1 SUB PUSH1 0x1F AND DUP3 ADD SWAP2 JUMPDEST POP POP POP POP POP SWAP1 DUP1 PUSH1 0x3 ADD SLOAD SWAP1 DUP1 PUSH1 0x4 ADD PUSH0 SWAP1 SLOAD SWAP1 PUSH2 0x100 EXP SWAP1 DIV PUSH20 0xFFFFFFFFFFFFFFFFFFFFFFFFFFFFFFFFFFFFFFFF AND SWAP1 DUP1 PUSH1 0x5 ADD PUSH0 SWAP1 SLOAD SWAP1 PUSH2 0x100 EXP SWAP1 DIV PUSH20 0xFFFFFFFFFFFFFFFFFFFFFFFFFFFFFFFFFFFFFFFF AND SWAP1 DUP1 PUSH1 0x5 ADD PUSH1 0x14 SWAP1 SLOAD SWAP1 PUSH2 0x100 EXP SWAP1 DIV PUSH1 0xFF AND SWAP1 POP DUP8 JUMP JUMPDEST PUSH0 DUP2 GT DUP1 ISZERO PUSH2 0x7A4 JUMPI POP PUSH0 SLOAD DUP2 GT ISZERO JUMPDEST PUSH2 0x7E3 JUMPI PUSH1 0x40 MLOAD PUSH32 0x8C379A000000000000000000000000000000000000000000000000000000000 DUP2 MSTORE PUSH1 0x4 ADD PUSH2 0x7DA SWAP1 PUSH2 0x1522 JUMP JUMPDEST PUSH1 0x40 MLOAD DUP1 SWAP2 SUB SWAP1 REVERT JUMPDEST PUSH0 PUSH1 0x1 PUSH0 DUP4 DUP2 MSTORE PUSH1 0x20 ADD SWAP1 DUP2 MSTORE PUSH1 0x20 ADD PUSH0 KECCAK256 SWAP1 POP DUP1 PUSH1 0x4 ADD PUSH0 SWAP1 SLOAD SWAP1 PUSH2 0x100 EXP SWAP1 DIV PUSH20 0xFFFFFFFFFFFFFFFFFFFFFFFFFFFFFFFFFFFFFFFF AND PUSH20 0xFFFFFFFFFFFFFFFFFFFFFFFFFFFFFFFFFFFFFFFF AND CALLER PUSH20 0xFFFFFFFFFFFFFFFFFFFFFFFFFFFFFFFFFFFFFFFF AND SUB PUSH2 0x888 JUMPI PUSH1 0x40 MLOAD PUSH32 0x8C379A000000000000000000000000000000000000000000000000000000000 DUP2 MSTORE PUSH1 0x4 ADD PUSH2 0x87F SWAP1 PUSH2 0x158A JUMP JUMPDEST PUSH1 0x40 MLOAD DUP1 SWAP2 SUB SWAP1 REVERT JUMPDEST DUP1 PUSH1 0x3 ADD SLOAD CALLVALUE EQ PUSH2 0x8CE JUMPI PUSH1 0x40 MLOAD PUSH32 0x8C379A000000000000000000000000000000000000000000000000000000000 DUP2 MSTORE PUSH1 0x4 ADD PUSH2 0x8C5 SWAP1 PUSH2 0x15F2 JUMP JUMPDEST PUSH1 0x40 MLOAD DUP1 SWAP2 SUB SWAP1 REVERT JUMPDEST DUP1 PUSH1 0x5 ADD PUSH1 0x14 SWAP1 SLOAD SWAP1 PUSH2 0x100 EXP SWAP1 DIV PUSH1 0xFF AND ISZERO PUSH2 0x920 JUMPI PUSH1 0x40 MLOAD PUSH32 0x8C379A000000000000000000000000000000000000000000000000000000000 DUP2 MSTORE PUSH1 0x4 ADD PUSH2 0x917 SWAP1 PUSH2 0x165A JUMP JUMPDEST PUSH1 0x40 MLOAD DUP1 SWAP2 SUB SWAP1 REVERT JUMPDEST DUP1 PUSH1 0x4 ADD PUSH0 SWAP1 SLOAD SWAP1 PUSH2 0x100 EXP SWAP1 DIV PUSH20 0xFFFFFFFFFFFFFFFFFFFFFFFFFFFFFFFFFFFFFFFF AND PUSH20 0xFFFFFFFFFFFFFFFFFFFFFFFFFFFFFFFFFFFFFFFF AND PUSH2 0x8FC CALLVALUE SWAP1 DUP2 ISZERO MUL SWAP1 PUSH1 0x40 MLOAD PUSH0 PUSH1 0x40 MLOAD DUP1 DUP4 SUB DUP2 DUP6 DUP9 DUP9 CALL SWAP4 POP POP POP POP ISZERO DUP1 ISZERO PUSH2 0x986 JUMPI RETURNDATASIZE PUSH0 DUP1 RETURNDATACOPY RETURNDATASIZE PUSH0 REVERT JUMPDEST POP PUSH1 0x1 DUP2 PUSH1 0x5 ADD PUSH1 0x14 PUSH2 0x100 EXP DUP2 SLOAD DUP2 PUSH1 0xFF MUL NOT AND SWAP1 DUP4 ISZERO ISZERO MUL OR SWAP1 SSTORE POP CALLER DUP2 PUSH1 0x5 ADD PUSH0 PUSH2 0x100 EXP DUP2 SLOAD DUP2 PUSH20 0xFFFFFFFFFFFFFFFFFFFFFFFFFFFFFFFFFFFFFFFF MUL NOT AND SWAP1 DUP4 PUSH20 0xFFFFFFFFFFFFFFFFFFFFFFFFFFFFFFFFFFFFFFFF AND MUL OR SWAP1 SSTORE POP CALLER PUSH20 0xFFFFFFFFFFFFFFFFFFFFFFFFFFFFFFFFFFFFFFFF AND DUP2 PUSH1 0x4 ADD PUSH0 SWAP1 SLOAD SWAP1 PUSH2 0x100 EXP SWAP1 DIV PUSH20 0xFFFFFFFFFFFFFFFFFFFFFFFFFFFFFFFFFFFFFFFF AND PUSH20 0xFFFFFFFFFFFFFFFFFFFFFFFFFFFFFFFFFFFFFFFF AND DUP4 PUSH32 0x3B8D931B3031F1DB7027EDC66B50D3430D54217AC726CA7688C2B779E5A90C1F DUP5 PUSH1 0x1 ADD DUP6 PUSH1 0x3 ADD SLOAD PUSH1 0x40 MLOAD PUSH2 0xA70 SWAP3 SWAP2 SWAP1 PUSH2 0x16F9 JUMP JUMPDEST PUSH1 0x40 MLOAD DUP1 SWAP2 SUB SWAP1 LOG4 POP POP JUMP JUMPDEST PUSH1 0x40 MLOAD DUP1 PUSH1 0xE0 ADD PUSH1 0x40 MSTORE DUP1 PUSH0 DUP2 MSTORE PUSH1 0x20 ADD PUSH1 0x60 DUP2 MSTORE PUSH1 0x20 ADD PUSH1 0x60 DUP2 MSTORE PUSH1 0x20 ADD PUSH0 DUP2 MSTORE PUSH1 0x20 ADD PUSH0 PUSH20 0xFFFFFFFFFFFFFFFFFFFFFFFFFFFFFFFFFFFFFFFF AND DUP2 MSTORE PUSH1 0x20 ADD PUSH0 PUSH20 0xFFFFFFFFFFFFFFFFFFFFFFFFFFFFFFFFFFFFFFFF AND DUP2 MSTORE PUSH1 0x20 ADD PUSH0 ISZERO ISZERO DUP2 MSTORE POP SWAP1 JUMP JUMPDEST PUSH0 PUSH1 0x40 MLOAD SWAP1 POP SWAP1 JUMP JUMPDEST PUSH0 DUP1 REVERT JUMPDEST PUSH0 DUP1 REVERT JUMPDEST PUSH0 DUP1 REVERT JUMPDEST PUSH0 DUP1 REVERT JUMPDEST PUSH0 PUSH1 0x1F NOT PUSH1 0x1F DUP4 ADD AND SWAP1 POP SWAP2 SWAP1 POP JUMP JUMPDEST PUSH32 0x4E487B7100000000000000000000000000000000000000000000000000000000 PUSH0 MSTORE PUSH1 0x41 PUSH1 0x4 MSTORE PUSH1 0x24 PUSH0 REVERT JUMPDEST PUSH2 0xB41 DUP3 PUSH2 0xAFB JUMP JUMPDEST DUP2 ADD DUP2 DUP2 LT PUSH8 0xFFFFFFFFFFFFFFFF DUP3 GT OR ISZERO PUSH2 0xB60 JUMPI PUSH2 0xB5F PUSH2 0xB0B JUMP JUMPDEST JUMPDEST DUP1 PUSH1 0x40 MSTORE POP POP POP JUMP JUMPDEST PUSH0 PUSH2 0xB72 PUSH2 0xAE2 JUMP JUMPDEST SWAP1 POP PUSH2 0xB7E DUP3 DUP3 PUSH2 0xB38 JUMP JUMPDEST SWAP2 SWAP1 POP JUMP JUMPDEST PUSH0 PUSH8 0xFFFFFFFFFFFFFFFF DUP3 GT ISZERO PUSH2 0xB9D JUMPI PUSH2 0xB9C PUSH2 0xB0B JUMP JUMPDEST JUMPDEST PUSH2 0xBA6 DUP3 PUSH2 0xAFB JUMP JUMPDEST SWAP1 POP PUSH1 0x20 DUP2 ADD SWAP1 POP SWAP2 SWAP1 POP JUMP JUMPDEST DUP3 DUP2 DUP4 CALLDATACOPY PUSH0 DUP4 DUP4 ADD MSTORE POP POP POP JUMP JUMPDEST PUSH0 PUSH2 0xBD3 PUSH2 0xBCE DUP5 PUSH2 0xB83 JUMP JUMPDEST PUSH2 0xB69 JUMP JUMPDEST SWAP1 POP DUP3 DUP2 MSTORE PUSH1 0x20 DUP2 ADD DUP5 DUP5 DUP5 ADD GT ISZERO PUSH2 0xBEF JUMPI PUSH2 0xBEE PUSH2 0xAF7 JUMP JUMPDEST JUMPDEST PUSH2 0xBFA DUP5 DUP3 DUP6 PUSH2 0xBB3 JUMP JUMPDEST POP SWAP4 SWAP3 POP POP POP JUMP JUMPDEST PUSH0 DUP3 PUSH1 0x1F DUP4 ADD SLT PUSH2 0xC16 JUMPI PUSH2 0xC15 PUSH2 0xAF3 JUMP JUMPDEST JUMPDEST DUP2 CALLDATALOAD PUSH2 0xC26 DUP5 DUP3 PUSH1 0x20 DUP7 ADD PUSH2 0xBC1 JUMP JUMPDEST SWAP2 POP POP SWAP3 SWAP2 POP POP JUMP JUMPDEST PUSH0 DUP2 SWAP1 POP SWAP2 SWAP1 POP JUMP JUMPDEST PUSH2 0xC41 DUP2 PUSH2 0xC2F JUMP JUMPDEST DUP2 EQ PUSH2 0xC4B JUMPI PUSH0 DUP1 REVERT JUMPDEST POP JUMP JUMPDEST PUSH0 DUP2 CALLDATALOAD SWAP1 POP PUSH2 0xC5C DUP2 PUSH2 0xC38 JUMP JUMPDEST SWAP3 SWAP2 POP POP JUMP JUMPDEST PUSH0 DUP1 PUSH0 PUSH1 0x60 DUP5 DUP7 SUB SLT ISZERO PUSH2 0xC79 JUMPI PUSH2 0xC78 PUSH2 0xAEB JUMP JUMPDEST JUMPDEST PUSH0 DUP5 ADD CALLDATALOAD PUSH8 0xFFFFFFFFFFFFFFFF DUP2 GT ISZERO PUSH2 0xC96 JUMPI PUSH2 0xC95 PUSH2 0xAEF JUMP JUMPDEST JUMPDEST PUSH2 0xCA2 DUP7 DUP3 DUP8 ADD PUSH2 0xC02 JUMP JUMPDEST SWAP4 POP POP PUSH1 0x20 DUP5 ADD CALLDATALOAD PUSH8 0xFFFFFFFFFFFFFFFF DUP2 GT ISZERO PUSH2 0xCC3 JUMPI PUSH2 0xCC2 PUSH2 0xAEF JUMP JUMPDEST JUMPDEST PUSH2 0xCCF DUP7 DUP3 DUP8 ADD PUSH2 0xC02 JUMP JUMPDEST SWAP3 POP POP PUSH1 0x40 PUSH2 0xCE0 DUP7 DUP3 DUP8 ADD PUSH2 0xC4E JUMP JUMPDEST SWAP2 POP POP SWAP3 POP SWAP3 POP SWAP3 JUMP JUMPDEST PUSH0 DUP2 MLOAD SWAP1 POP SWAP2 SWAP1 POP JUMP JUMPDEST PUSH0 DUP3 DUP3 MSTORE PUSH1 0x20 DUP3 ADD SWAP1 POP SWAP3 SWAP2 POP POP JUMP JUMPDEST PUSH0 DUP2 SWAP1 POP PUSH1 0x20 DUP3 ADD SWAP1 POP SWAP2 SWAP1 POP JUMP JUMPDEST PUSH2 0xD1C DUP2 PUSH2 0xC2F JUMP JUMPDEST DUP3 MSTORE POP POP JUMP JUMPDEST PUSH0 DUP2 MLOAD SWAP1 POP SWAP2 SWAP1 POP JUMP JUMPDEST PUSH0 DUP3 DUP3 MSTORE PUSH1 0x20 DUP3 ADD SWAP1 POP SWAP3 SWAP2 POP POP JUMP JUMPDEST DUP3 DUP2 DUP4 MCOPY PUSH0 DUP4 DUP4 ADD MSTORE POP POP POP JUMP JUMPDEST PUSH0 PUSH2 0xD54 DUP3 PUSH2 0xD22 JUMP JUMPDEST PUSH2 0xD5E DUP2 DUP6 PUSH2 0xD2C JUMP JUMPDEST SWAP4 POP PUSH2 0xD6E DUP2 DUP6 PUSH1 0x20 DUP7 ADD PUSH2 0xD3C JUMP JUMPDEST PUSH2 0xD77 DUP2 PUSH2 0xAFB JUMP JUMPDEST DUP5 ADD SWAP2 POP POP SWAP3 SWAP2 POP POP JUMP JUMPDEST PUSH0 PUSH20 0xFFFFFFFFFFFFFFFFFFFFFFFFFFFFFFFFFFFFFFFF DUP3 AND SWAP1 POP SWAP2 SWAP1 POP JUMP JUMPDEST PUSH0 PUSH2 0xDAB DUP3 PUSH2 0xD82 JUMP JUMPDEST SWAP1 POP SWAP2 SWAP1 POP JUMP JUMPDEST PUSH2 0xDBB DUP2 PUSH2 0xDA1 JUMP JUMPDEST DUP3 MSTORE POP POP JUMP JUMPDEST PUSH0 PUSH2 0xDCB DUP3 PUSH2 0xD82 JUMP JUMPDEST SWAP1 POP SWAP2 SWAP1 POP JUMP JUMPDEST PUSH2 0xDDB DUP2 PUSH2 0xDC1 JUMP JUMPDEST DUP3 MSTORE POP POP JUMP JUMPDEST PUSH0 DUP2 ISZERO ISZERO SWAP1 POP SWAP2 SWAP1 POP JUMP JUMPDEST PUSH2 0xDF5 DUP2 PUSH2 0xDE1 JUMP JUMPDEST DUP3 MSTORE POP POP JUMP JUMPDEST PUSH0 PUSH1 0xE0 DUP4 ADD PUSH0 DUP4 ADD MLOAD PUSH2 0xE10 PUSH0 DUP7 ADD DUP3 PUSH2 0xD13 JUMP JUMPDEST POP PUSH1 0x20 DUP4 ADD MLOAD DUP5 DUP3 SUB PUSH1 0x20 DUP7 ADD MSTORE PUSH2 0xE28 DUP3 DUP3 PUSH2 0xD4A JUMP JUMPDEST SWAP2 POP POP PUSH1 0x40 DUP4 ADD MLOAD DUP5 DUP3 SUB PUSH1 0x40 DUP7 ADD MSTORE PUSH2 0xE42 DUP3 DUP3 PUSH2 0xD4A JUMP JUMPDEST SWAP2 POP POP PUSH1 0x60 DUP4 ADD MLOAD PUSH2 0xE57 PUSH1 0x60 DUP7 ADD DUP3 PUSH2 0xD13 JUMP JUMPDEST POP PUSH1 0x80 DUP4 ADD MLOAD PUSH2 0xE6A PUSH1 0x80 DUP7 ADD DUP3 PUSH2 0xDB2 JUMP JUMPDEST POP PUSH1 0xA0 DUP4 ADD MLOAD PUSH2 0xE7D PUSH1 0xA0 DUP7 ADD DUP3 PUSH2 0xDD2 JUMP JUMPDEST POP PUSH1 0xC0 DUP4 ADD MLOAD PUSH2 0xE90 PUSH1 0xC0 DUP7 ADD DUP3 PUSH2 0xDEC JUMP JUMPDEST POP DUP1 SWAP2 POP POP SWAP3 SWAP2 POP POP JUMP JUMPDEST PUSH0 PUSH2 0xEA6 DUP4 DUP4 PUSH2 0xDFB JUMP JUMPDEST SWAP1 POP SWAP3 SWAP2 POP POP JUMP JUMPDEST PUSH0 PUSH1 0x20 DUP3 ADD SWAP1 POP SWAP2 SWAP1 POP JUMP JUMPDEST PUSH0 PUSH2 0xEC4 DUP3 PUSH2 0xCEA JUMP JUMPDEST PUSH2 0xECE DUP2 DUP6 PUSH2 0xCF4 JUMP JUMPDEST SWAP4 POP DUP4 PUSH1 0x20 DUP3 MUL DUP6 ADD PUSH2 0xEE0 DUP6 PUSH2 0xD04 JUMP JUMPDEST DUP1 PUSH0 JUMPDEST DUP6 DUP2 LT ISZERO PUSH2 0xF1B JUMPI DUP5 DUP5 SUB DUP10 MSTORE DUP2 MLOAD PUSH2 0xEFC DUP6 DUP3 PUSH2 0xE9B JUMP JUMPDEST SWAP5 POP PUSH2 0xF07 DUP4 PUSH2 0xEAE JUMP JUMPDEST SWAP3 POP PUSH1 0x20 DUP11 ADD SWAP10 POP POP PUSH1 0x1 DUP2 ADD SWAP1 POP PUSH2 0xEE3 JUMP JUMPDEST POP DUP3 SWAP8 POP DUP8 SWAP6 POP POP POP POP POP POP SWAP3 SWAP2 POP POP JUMP JUMPDEST PUSH0 PUSH1 0x20 DUP3 ADD SWAP1 POP DUP2 DUP2 SUB PUSH0 DUP4 ADD MSTORE PUSH2 0xF45 DUP2 DUP5 PUSH2 0xEBA JUMP JUMPDEST SWAP1 POP SWAP3 SWAP2 POP POP JUMP JUMPDEST PUSH2 0xF56 DUP2 PUSH2 0xC2F JUMP JUMPDEST DUP3 MSTORE POP POP JUMP JUMPDEST PUSH0 PUSH1 0x20 DUP3 ADD SWAP1 POP PUSH2 0xF6F PUSH0 DUP4 ADD DUP5 PUSH2 0xF4D JUMP JUMPDEST SWAP3 SWAP2 POP POP JUMP JUMPDEST PUSH0 PUSH1 0x20 DUP3 DUP5 SUB SLT ISZERO PUSH2 0xF8A JUMPI PUSH2 0xF89 PUSH2 0xAEB JUMP JUMPDEST JUMPDEST PUSH0 PUSH2 0xF97 DUP5 DUP3 DUP6 ADD PUSH2 0xC4E JUMP JUMPDEST SWAP2 POP POP SWAP3 SWAP2 POP POP JUMP JUMPDEST PUSH0 DUP3 DUP3 MSTORE PUSH1 0x20 DUP3 ADD SWAP1 POP SWAP3 SWAP2 POP POP JUMP JUMPDEST PUSH0 PUSH2 0xFBA DUP3 PUSH2 0xD22 JUMP JUMPDEST PUSH2 0xFC4 DUP2 DUP6 PUSH2 0xFA0 JUMP JUMPDEST SWAP4 POP PUSH2 0xFD4 DUP2 DUP6 PUSH1 0x20 DUP7 ADD PUSH2 0xD3C JUMP JUMPDEST PUSH2 0xFDD DUP2 PUSH2 0xAFB JUMP JUMPDEST DUP5 ADD SWAP2 POP POP SWAP3 SWAP2 POP POP JUMP JUMPDEST PUSH2 0xFF1 DUP2 PUSH2 0xDA1 JUMP JUMPDEST DUP3 MSTORE POP POP JUMP JUMPDEST PUSH2 0x1000 DUP2 PUSH2 0xDC1 JUMP JUMPDEST DUP3 MSTORE POP POP JUMP JUMPDEST PUSH2 0x100F DUP2 PUSH2 0xDE1 JUMP JUMPDEST DUP3 MSTORE POP POP JUMP JUMPDEST PUSH0 PUSH1 0xE0 DUP3 ADD SWAP1 POP PUSH2 0x1028 PUSH0 DUP4 ADD DUP11 PUSH2 0xF4D JUMP JUMPDEST DUP2 DUP2 SUB PUSH1 0x20 DUP4 ADD MSTORE PUSH2 0x103A DUP2 DUP10 PUSH2 0xFB0 JUMP JUMPDEST SWAP1 POP DUP2 DUP2 SUB PUSH1 0x40 DUP4 ADD MSTORE PUSH2 0x104E DUP2 DUP9 PUSH2 0xFB0 JUMP JUMPDEST SWAP1 POP PUSH2 0x105D PUSH1 0x60 DUP4 ADD DUP8 PUSH2 0xF4D JUMP JUMPDEST PUSH2 0x106A PUSH1 0x80 DUP4 ADD DUP7 PUSH2 0xFE8 JUMP JUMPDEST PUSH2 0x1077 PUSH1 0xA0 DUP4 ADD DUP6 PUSH2 0xFF7 JUMP JUMPDEST PUSH2 0x1084 PUSH1 0xC0 DUP4 ADD DUP5 PUSH2 0x1006 JUMP JUMPDEST SWAP9 SWAP8 POP POP POP POP POP POP POP POP JUMP JUMPDEST PUSH32 0x5072696365206D75737420626520706F73697469766500000000000000000000 PUSH0 DUP3 ADD MSTORE POP JUMP JUMPDEST PUSH0 PUSH2 0x10C4 PUSH1 0x16 DUP4 PUSH2 0xFA0 JUMP JUMPDEST SWAP2 POP PUSH2 0x10CF DUP3 PUSH2 0x1090 JUMP JUMPDEST PUSH1 0x20 DUP3 ADD SWAP1 POP SWAP2 SWAP1 POP JUMP JUMPDEST PUSH0 PUSH1 0x20 DUP3 ADD SWAP1 POP DUP2 DUP2 SUB PUSH0 DUP4 ADD MSTORE PUSH2 0x10F1 DUP2 PUSH2 0x10B8 JUMP JUMPDEST SWAP1 POP SWAP2 SWAP1 POP JUMP JUMPDEST PUSH32 0x4E487B7100000000000000000000000000000000000000000000000000000000 PUSH0 MSTORE PUSH1 0x11 PUSH1 0x4 MSTORE PUSH1 0x24 PUSH0 REVERT JUMPDEST PUSH0 PUSH2 0x112F DUP3 PUSH2 0xC2F JUMP JUMPDEST SWAP2 POP PUSH32 0xFFFFFFFFFFFFFFFFFFFFFFFFFFFFFFFFFFFFFFFFFFFFFFFFFFFFFFFFFFFFFFFF DUP3 SUB PUSH2 0x1161 JUMPI PUSH2 0x1160 PUSH2 0x10F8 JUMP JUMPDEST JUMPDEST PUSH1 0x1 DUP3 ADD SWAP1 POP SWAP2 SWAP1 POP JUMP JUMPDEST PUSH32 0x4E487B7100000000000000000000000000000000000000000000000000000000 PUSH0 MSTORE PUSH1 0x22 PUSH1 0x4 MSTORE PUSH1 0x24 PUSH0 REVERT JUMPDEST PUSH0 PUSH1 0x2 DUP3 DIV SWAP1 POP PUSH1 0x1 DUP3 AND DUP1 PUSH2 0x11B0 JUMPI PUSH1 0x7F DUP3 AND SWAP2 POP JUMPDEST PUSH1 0x20 DUP3 LT DUP2 SUB PUSH2 0x11C3 JUMPI PUSH2 0x11C2 PUSH2 0x116C JUMP JUMPDEST JUMPDEST POP SWAP2 SWAP1 POP JUMP JUMPDEST PUSH0 DUP2 SWAP1 POP DUP2 PUSH0 MSTORE PUSH1 0x20 PUSH0 KECCAK256 SWAP1 POP SWAP2 SWAP1 POP JUMP JUMPDEST PUSH0 PUSH1 0x20 PUSH1 0x1F DUP4 ADD DIV SWAP1 POP SWAP2 SWAP1 POP JUMP JUMPDEST PUSH0 DUP3 DUP3 SHL SWAP1 POP SWAP3 SWAP2 POP POP JUMP JUMPDEST PUSH0 PUSH1 0x8 DUP4 MUL PUSH2 0x1225 PUSH32 0xFFFFFFFFFFFFFFFFFFFFFFFFFFFFFFFFFFFFFFFFFFFFFFFFFFFFFFFFFFFFFFFF DUP3 PUSH2 0x11EA JUMP JUMPDEST PUSH2 0x122F DUP7 DUP4 PUSH2 0x11EA JUMP JUMPDEST SWAP6 POP DUP1 NOT DUP5 AND SWAP4 POP DUP1 DUP7 AND DUP5 OR SWAP3 POP POP POP SWAP4 SWAP3 POP POP POP JUMP JUMPDEST PUSH0 DUP2 SWAP1 POP SWAP2 SWAP1 POP JUMP JUMPDEST PUSH0 PUSH2 0x126A PUSH2 0x1265 PUSH2 0x1260 DUP5 PUSH2 0xC2F JUMP JUMPDEST PUSH2 0x1247 JUMP JUMPDEST PUSH2 0xC2F JUMP JUMPDEST SWAP1 POP SWAP2 SWAP1 POP JUMP JUMPDEST PUSH0 DUP2 SWAP1 POP SWAP2 SWAP1 POP JUMP JUMPDEST PUSH2 0x1283 DUP4 PUSH2 0x1250 JUMP JUMPDEST PUSH2 0x1297 PUSH2 0x128F DUP3 PUSH2 0x1271 JUMP JUMPDEST DUP5 DUP5 SLOAD PUSH2 0x11F6 JUMP JUMPDEST DUP3 SSTORE POP POP POP POP JUMP JUMPDEST PUSH0 SWAP1 JUMP JUMPDEST PUSH2 0x12AB PUSH2 0x129F JUMP JUMPDEST PUSH2 0x12B6 DUP2 DUP5 DUP5 PUSH2 0x127A JUMP JUMPDEST POP POP POP JUMP JUMPDEST JUMPDEST DUP2 DUP2 LT ISZERO PUSH2 0x12D9 JUMPI PUSH2 0x12CE PUSH0 DUP3 PUSH2 0x12A3 JUMP JUMPDEST PUSH1 0x1 DUP2 ADD SWAP1 POP PUSH2 0x12BC JUMP JUMPDEST POP POP JUMP JUMPDEST PUSH1 0x1F DUP3 GT ISZERO PUSH2 0x131E JUMPI PUSH2 0x12EF DUP2 PUSH2 0x11C9 JUMP JUMPDEST PUSH2 0x12F8 DUP5 PUSH2 0x11DB JUMP JUMPDEST DUP2 ADD PUSH1 0x20 DUP6 LT ISZERO PUSH2 0x1307 JUMPI DUP2 SWAP1 POP JUMPDEST PUSH2 0x131B PUSH2 0x1313 DUP6 PUSH2 0x11DB JUMP JUMPDEST DUP4 ADD DUP3 PUSH2 0x12BB JUMP JUMPDEST POP POP JUMPDEST POP POP POP JUMP JUMPDEST PUSH0 DUP3 DUP3 SHR SWAP1 POP SWAP3 SWAP2 POP POP JUMP JUMPDEST PUSH0 PUSH2 0x133E PUSH0 NOT DUP5 PUSH1 0x8 MUL PUSH2 0x1323 JUMP JUMPDEST NOT DUP1 DUP4 AND SWAP2 POP POP SWAP3 SWAP2 POP POP JUMP JUMPDEST PUSH0 PUSH2 0x1356 DUP4 DUP4 PUSH2 0x132F JUMP JUMPDEST SWAP2 POP DUP3 PUSH1 0x2 MUL DUP3 OR SWAP1 POP SWAP3 SWAP2 POP POP JUMP JUMPDEST PUSH2 0x136F DUP3 PUSH2 0xD22 JUMP JUMPDEST PUSH8 0xFFFFFFFFFFFFFFFF DUP2 GT ISZERO PUSH2 0x1388 JUMPI PUSH2 0x1387 PUSH2 0xB0B JUMP JUMPDEST JUMPDEST PUSH2 0x1392 DUP3 SLOAD PUSH2 0x1199 JUMP JUMPDEST PUSH2 0x139D DUP3 DUP3 DUP6 PUSH2 0x12DD JUMP JUMPDEST PUSH0 PUSH1 0x20 SWAP1 POP PUSH1 0x1F DUP4 GT PUSH1 0x1 DUP2 EQ PUSH2 0x13CE JUMPI PUSH0 DUP5 ISZERO PUSH2 0x13BC JUMPI DUP3 DUP8 ADD MLOAD SWAP1 POP JUMPDEST PUSH2 0x13C6 DUP6 DUP3 PUSH2 0x134B JUMP JUMPDEST DUP7 SSTORE POP PUSH2 0x142D JUMP JUMPDEST PUSH1 0x1F NOT DUP5 AND PUSH2 0x13DC DUP7 PUSH2 0x11C9 JUMP JUMPDEST PUSH0 JUMPDEST DUP3 DUP2 LT ISZERO PUSH2 0x1403 JUMPI DUP5 DUP10 ADD MLOAD DUP3 SSTORE PUSH1 0x1 DUP3 ADD SWAP2 POP PUSH1 0x20 DUP6 ADD SWAP5 POP PUSH1 0x20 DUP2 ADD SWAP1 POP PUSH2 0x13DE JUMP JUMPDEST DUP7 DUP4 LT ISZERO PUSH2 0x1420 JUMPI DUP5 DUP10 ADD MLOAD PUSH2 0x141C PUSH1 0x1F DUP10 AND DUP3 PUSH2 0x132F JUMP JUMPDEST DUP4 SSTORE POP JUMPDEST PUSH1 0x1 PUSH1 0x2 DUP9 MUL ADD DUP9 SSTORE POP POP POP JUMPDEST POP POP POP POP POP POP JUMP JUMPDEST PUSH0 PUSH1 0x60 DUP3 ADD SWAP1 POP DUP2 DUP2 SUB PUSH0 DUP4 ADD MSTORE PUSH2 0x144D DUP2 DUP7 PUSH2 0xFB0 JUMP JUMPDEST SWAP1 POP DUP2 DUP2 SUB PUSH1 0x20 DUP4 ADD MSTORE PUSH2 0x1461 DUP2 DUP6 PUSH2 0xFB0 JUMP JUMPDEST SWAP1 POP PUSH2 0x1470 PUSH1 0x40 DUP4 ADD DUP5 PUSH2 0xF4D JUMP JUMPDEST SWAP5 SWAP4 POP POP POP POP JUMP JUMPDEST PUSH0 PUSH2 0x1482 DUP3 PUSH2 0xC2F JUMP JUMPDEST SWAP2 POP PUSH2 0x148D DUP4 PUSH2 0xC2F JUMP JUMPDEST SWAP3 POP DUP3 DUP3 SUB SWAP1 POP DUP2 DUP2 GT ISZERO PUSH2 0x14A5 JUMPI PUSH2 0x14A4 PUSH2 0x10F8 JUMP JUMPDEST JUMPDEST SWAP3 SWAP2 POP POP JUMP JUMPDEST PUSH32 0x4E487B7100000000000000000000000000000000000000000000000000000000 PUSH0 MSTORE PUSH1 0x32 PUSH1 0x4 MSTORE PUSH1 0x24 PUSH0 REVERT JUMPDEST PUSH32 0x4974656D20494420646F6573206E6F7420657869737400000000000000000000 PUSH0 DUP3 ADD MSTORE POP JUMP JUMPDEST PUSH0 PUSH2 0x150C PUSH1 0x16 DUP4 PUSH2 0xFA0 JUMP JUMPDEST SWAP2 POP PUSH2 0x1517 DUP3 PUSH2 0x14D8 JUMP JUMPDEST PUSH1 0x20 DUP3 ADD SWAP1 POP SWAP2 SWAP1 POP JUMP JUMPDEST PUSH0 PUSH1 0x20 DUP3 ADD SWAP1 POP DUP2 DUP2 SUB PUSH0 DUP4 ADD MSTORE PUSH2 0x1539 DUP2 PUSH2 0x1500 JUMP JUMPDEST SWAP1 POP SWAP2 SWAP1 POP JUMP JUMPDEST PUSH32 0x53656C6C65722063616E6E6F7420626520627579657200000000000000000000 PUSH0 DUP3 ADD MSTORE POP JUMP JUMPDEST PUSH0 PUSH2 0x1574 PUSH1 0x16 DUP4 PUSH2 0xFA0 JUMP JUMPDEST SWAP2 POP PUSH2 0x157F DUP3 PUSH2 0x1540 JUMP JUMPDEST PUSH1 0x20 DUP3 ADD SWAP1 POP SWAP2 SWAP1 POP JUMP JUMPDEST PUSH0 PUSH1 0x20 DUP3 ADD SWAP1 POP DUP2 DUP2 SUB PUSH0 DUP4 ADD MSTORE PUSH2 0x15A1 DUP2 PUSH2 0x1568 JUMP JUMPDEST SWAP1 POP SWAP2 SWAP1 POP JUMP JUMPDEST PUSH32 0x496E636F72726563742076616C75650000000000000000000000000000000000 PUSH0 DUP3 ADD MSTORE POP JUMP JUMPDEST PUSH0 PUSH2 0x15DC PUSH1 0xF DUP4 PUSH2 0xFA0 JUMP JUMPDEST SWAP2 POP PUSH2 0x15E7 DUP3 PUSH2 0x15A8 JUMP JUMPDEST PUSH1 0x20 DUP3 ADD SWAP1 POP SWAP2 SWAP1 POP JUMP JUMPDEST PUSH0 PUSH1 0x20 DUP3 ADD SWAP1 POP DUP2 DUP2 SUB PUSH0 DUP4 ADD MSTORE PUSH2 0x1609 DUP2 PUSH2 0x15D0 JUMP JUMPDEST SWAP1 POP SWAP2 SWAP1 POP JUMP JUMPDEST PUSH32 0x4974656D20616C726561647920736F6C64000000000000000000000000000000 PUSH0 DUP3 ADD MSTORE POP JUMP JUMPDEST PUSH0 PUSH2 0x1644 PUSH1 0x11 DUP4 PUSH2 0xFA0 JUMP JUMPDEST SWAP2 POP PUSH2 0x164F DUP3 PUSH2 0x1610 JUMP JUMPDEST PUSH1 0x20 DUP3 ADD SWAP1 POP SWAP2 SWAP1 POP JUMP JUMPDEST PUSH0 PUSH1 0x20 DUP3 ADD SWAP1 POP DUP2 DUP2 SUB PUSH0 DUP4 ADD MSTORE PUSH2 0x1671 DUP2 PUSH2 0x1638 JUMP JUMPDEST SWAP1 POP SWAP2 SWAP1 POP JUMP JUMPDEST PUSH0 DUP2 SLOAD PUSH2 0x1684 DUP2 PUSH2 0x1199 JUMP JUMPDEST PUSH2 0x168E DUP2 DUP7 PUSH2 0xFA0 JUMP JUMPDEST SWAP5 POP PUSH1 0x1 DUP3 AND PUSH0 DUP2 EQ PUSH2 0x16A8 JUMPI PUSH1 0x1 DUP2 EQ PUSH2 0x16BE JUMPI PUSH2 0x16F0 JUMP JUMPDEST PUSH1 0xFF NOT DUP4 AND DUP7 MSTORE DUP2 ISZERO ISZERO PUSH1 0x20 MUL DUP7 ADD SWAP4 POP PUSH2 0x16F0 JUMP JUMPDEST PUSH2 0x16C7 DUP6 PUSH2 0x11C9 JUMP JUMPDEST PUSH0 JUMPDEST DUP4 DUP2 LT ISZERO PUSH2 0x16E8 JUMPI DUP2 SLOAD DUP2 DUP10 ADD MSTORE PUSH1 0x1 DUP3 ADD SWAP2 POP PUSH1 0x20 DUP2 ADD SWAP1 POP PUSH2 0x16C9 JUMP JUMPDEST DUP1 DUP9 ADD SWAP6 POP POP POP JUMPDEST POP POP POP SWAP3 SWAP2 POP POP JUMP JUMPDEST PUSH0 PUSH1 0x40 DUP3 ADD SWAP1 POP DUP2 DUP2 SUB PUSH0 DUP4 ADD MSTORE PUSH2 0x1711 DUP2 DUP6 PUSH2 0x1678 JUMP JUMPDEST SWAP1 POP PUSH2 0x1720 PUSH1 0x20 DUP4 ADD DUP5 PUSH2 0xF4D JUMP JUMPDEST SWAP4 SWAP3 POP POP POP JUMP INVALID LOG2 PUSH5 0x6970667358 0x22 SLT KECCAK256 PUSH27 0xFD269C7AED3C4068275775997E62DBF29E517070A72B8EBAAAFE0C PUSH14 0xADD11B64736F6C63430008190033 "
				},
				"gasEstimates": {
					"creation": {
						"codeDepositCost": "1196200",
						"executionCost": "1239",
						"totalCost": "1197439"
					},
					"external": {
						"buyItem(uint256)": "infinite",
						"getAllItems()": "infinite",
						"itemCount()": "2446",
						"items(uint256)": "infinite",
						"listItem(string,string,uint256)": "infinite"
					}
				},
				"methodIdentifiers": {
					"buyItem(uint256)": "e7fb74c7",
					"getAllItems()": "4ba1d6aa",
					"itemCount()": "6bfb0d01",
					"items(uint256)": "bfb231d2",
					"listItem(string,string,uint256)": "0562021c"
				}
			},
			"storageLayout": {
				"storage": [
					{
						"astId": 18,
						"contract": "contracts/Marketplace.sol:Marketplace",
						"label": "itemCount",
						"offset": 0,
						"slot": "0",
						"type": "t_uint256"
					},
					{
						"astId": 23,
						"contract": "contracts/Marketplace.sol:Marketplace",
						"label": "items",
						"offset": 0,
						"slot": "1",
						"type": "t_mapping(t_uint256,t_struct(Item)16_storage)"
					}
				],
				"types": {
					"t_address": {
						"encoding": "inplace",
						"label": "address",
						"numberOfBytes": "20"
					},
					"t_address_payable": {
						"encoding": "inplace",
						"label": "address payable",
						"numberOfBytes": "20"
					},
					"t_bool": {
						"encoding": "inplace",
						"label": "bool",
						"numberOfBytes": "1"
					},
					"t_mapping(t_uint256,t_struct(Item)16_storage)": {
						"encoding": "mapping",
						"key": "t_uint256",
						"label": "mapping(uint256 => struct Marketplace.Item)",
						"numberOfBytes": "32",
						"value": "t_struct(Item)16_storage"
					},
					"t_string_storage": {
						"encoding": "bytes",
						"label": "string",
						"numberOfBytes": "32"
					},
					"t_struct(Item)16_storage": {
						"encoding": "inplace",
						"label": "struct Marketplace.Item",
						"members": [
							{
								"astId": 3,
								"contract": "contracts/Marketplace.sol:Marketplace",
								"label": "id",
								"offset": 0,
								"slot": "0",
								"type": "t_uint256"
							},
							{
								"astId": 5,
								"contract": "contracts/Marketplace.sol:Marketplace",
								"label": "title",
								"offset": 0,
								"slot": "1",
								"type": "t_string_storage"
							},
							{
								"astId": 7,
								"contract": "contracts/Marketplace.sol:Marketplace",
								"label": "description",
								"offset": 0,
								"slot": "2",
								"type": "t_string_storage"
							},
							{
								"astId": 9,
								"contract": "contracts/Marketplace.sol:Marketplace",
								"label": "price",
								"offset": 0,
								"slot": "3",
								"type": "t_uint256"
							},
							{
								"astId": 11,
								"contract": "contracts/Marketplace.sol:Marketplace",
								"label": "seller",
								"offset": 0,
								"slot": "4",
								"type": "t_address_payable"
							},
							{
								"astId": 13,
								"contract": "contracts/Marketplace.sol:Marketplace",
								"label": "buyer",
								"offset": 0,
								"slot": "5",
								"type": "t_address"
							},
							{
								"astId": 15,
								"contract": "contracts/Marketplace.sol:Marketplace",
								"label": "isSold",
								"offset": 20,
								"slot": "5",
								"type": "t_bool"
							}
						],
						"numberOfBytes": "192"
					},
					"t_uint256": {
						"encoding": "inplace",
						"label": "uint256",
						"numberOfBytes": "32"
					}
				}
			},
			"userdoc": {
				"kind": "user",
				"methods": {},
				"version": 1
			}
		}
	}
}